{"contracts/LocketSocial.sol":{"LocketSocial":{"abi":[{"anonymous":false,"inputs":[{"indexed":true,"internalType":"address","name":"follower","type":"address"},{"indexed":true,"internalType":"address","name":"followed","type":"address"}],"name":"Followed","type":"event"},{"anonymous":false,"inputs":[{"indexed":true,"internalType":"address","name":"author","type":"address"},{"indexed":false,"internalType":"string","name":"cid","type":"string"},{"indexed":false,"internalType":"uint256","name":"timestamp","type":"uint256"}],"name":"PhotoPublished","type":"event"},{"anonymous":false,"inputs":[{"indexed":true,"internalType":"address","name":"wallet","type":"address"},{"indexed":false,"internalType":"string","name":"username","type":"string"}],"name":"ProfileRegistered","type":"event"},{"inputs":[{"internalType":"address","name":"target","type":"address"}],"name":"followUser","outputs":[],"stateMutability":"nonpayable","type":"function"},{"inputs":[{"internalType":"address","name":"viewer","type":"address"}],"name":"getFeed","outputs":[{"components":[{"internalType":"string","name":"cid","type":"string"},{"internalType":"string","name":"caption","type":"string"},{"internalType":"uint256","name":"timestamp","type":"uint256"},{"internalType":"address","name":"author","type":"address"}],"internalType":"struct LocketSocial.Photo[]","name":"feed","type":"tuple[]"}],"stateMutability":"view","type":"function"},{"inputs":[{"internalType":"address","name":"user","type":"address"}],"name":"getFollowing","outputs":[{"internalType":"address[]","name":"followedAccounts","type":"address[]"}],"stateMutability":"view","type":"function"},{"inputs":[{"internalType":"address","name":"user","type":"address"}],"name":"getProfile","outputs":[{"components":[{"internalType":"address","name":"wallet","type":"address"},{"internalType":"string","name":"username","type":"string"},{"internalType":"string","name":"avatarCID","type":"string"},{"internalType":"bool","name":"exists","type":"bool"}],"internalType":"struct LocketSocial.UserProfile","name":"profile","type":"tuple"}],"stateMutability":"view","type":"function"},{"inputs":[{"internalType":"address","name":"user","type":"address"}],"name":"getUserPhotos","outputs":[{"components":[{"internalType":"string","name":"cid","type":"string"},{"internalType":"string","name":"caption","type":"string"},{"internalType":"uint256","name":"timestamp","type":"uint256"},{"internalType":"address","name":"author","type":"address"}],"internalType":"struct LocketSocial.Photo[]","name":"photos","type":"tuple[]"}],"stateMutability":"view","type":"function"},{"inputs":[{"internalType":"address","name":"","type":"address"}],"name":"profiles","outputs":[{"internalType":"address","name":"wallet","type":"address"},{"internalType":"string","name":"username","type":"string"},{"internalType":"string","name":"avatarCID","type":"string"},{"internalType":"bool","name":"exists","type":"bool"}],"stateMutability":"view","type":"function"},{"inputs":[{"internalType":"string","name":"cid","type":"string"},{"internalType":"string","name":"caption","type":"string"}],"name":"publishPhoto","outputs":[],"stateMutability":"nonpayable","type":"function"},{"inputs":[{"internalType":"string","name":"username","type":"string"},{"internalType":"string","name":"avatarCID","type":"string"}],"name":"registerProfile","outputs":[],"stateMutability":"nonpayable","type":"function"}],"evm":{"bytecode":{"linkReferences":{},"object":"60808060405234610016576113a0908161001c8239f35b600080fdfe608080604052600436101561001357600080fd5b60003560e01c9081630f53a47014610f085750806316b8e73114610c065780631b4886a3146108295780637dede890146107975780637df3483f1461039d578063a70806f7146101c9578063bbe15627146101365763d8236dff1461007757600080fd5b3461013157602080600319360112610131576001600160a01b03600435818116908190036101315782906000526001808252604060002092604051808486549182815201908196600052856000209060005b81811061011c57505050816100df91038261119a565b6040519380850191818652518092526040850195926000905b8382106101055786880387f35b8451811688529682019693820193908501906100f8565b825486168452928701929186019186016100c9565b600080fd5b34610131576020366003190112610131576001600160a01b036004358181169081900361013157600052600060205260406000209081541661017a600183016111bc565b916101bd60ff600361018e600285016111bc565b93015416916101af6040519586958652608060208701526080860190610fee565b908482036040860152610fee565b90151560608301520390f35b3461013157602080600319360112610131576004356001600160a01b038116919082900361013157338214610360573360005260038152604060002082600052815260ff6040600020541661032857816000526000815260ff60036040600020015416156102ec5733600052600181526040600020805490600160401b8210156102d657600182018082558210156102c0576000528160002001826001600160601b0360a01b825416179055336000526003815260406000209082600052526040600020600160ff19825416179055337f6178e95c138f06036cdc07a49ed6a3d23008969fa143baeceb037ebae22e8d14600080a3005b634e487b7160e01b600052603260045260246000fd5b634e487b7160e01b600052604160045260246000fd5b6064906040519062461bcd60e51b82526004820152601560248201527454617267657420686173206e6f2070726f66696c6560581b6044820152fd5b6064906040519062461bcd60e51b825260048201526011602482015270416c726561647920666f6c6c6f77696e6760781b6044820152fd5b6064906040519062461bcd60e51b82526004820152601660248201527521b0b73737ba103337b63637bb903cb7bab939b2b63360511b6044820152fd5b34610131576103ab366110f9565b9092919233600052600060205260ff600360406000200154161561076157831561072657336000526002602052610402604060002091604051936103ee8561117e565b6103f9368888611262565b85523691611262565b60208301524260408301523360608301528054600160401b8110156102d657610430916001820181556112ca565b61071057815180519067ffffffffffffffff82116102d65781906104548454611144565b601f81116106c0575b50602090601f831160011461065457600092610649575b50508160011b916000199060031b1c19161781555b602082015180519067ffffffffffffffff82116102d6576104ad6001840154611144565b601f81116105fe575b50602090601f831160011461056657928261054c95936003937fee00476d9873f80e65259f52c839c112f2dba3e32ed0a5fd6a682ed9504aa695989660009261055b575b505060001982851b1c1916600191821b17908201555b604083015160028201550190606060018060a01b03910151166001600160601b0360a01b825416179055604051936040855260408501916112a9565b914260208201528033930390a2005b0151905089806104fa565b906001840160005260206000209160005b601f19851681106105e65750836003937fee00476d9873f80e65259f52c839c112f2dba3e32ed0a5fd6a682ed9504aa69598969360019361054c9997601f198116106105ce575b505050811b016001820155610510565b015160001983871b60f8161c191690558980806105be565b91926020600181928685015181550194019201610577565b600184016000526020600020601f840160051c8101916020851061063f575b601f0160051c01905b81811061063357506104b6565b60008155600101610626565b909150819061061d565b015190508680610474565b9250836000526020600020906000935b601f19841685106106a5576001945083601f1981161061068c575b505050811b018155610489565b015160001960f88460031b161c1916905586808061067f565b81810151835560209485019460019093019290910190610664565b909150836000526020600020601f840160051c810160208510610709575b90849392915b601f830160051c820181106106fa57505061045d565b600081558594506001016106e4565b50806106de565b634e487b7160e01b600052600060045260246000fd5b60405162461bcd60e51b81526020600482015260136024820152724349442063616e6e6f7420626520656d70747960681b6044820152606490fd5b60405162461bcd60e51b815260206004820152600e60248201526d139bdd081c9959da5cdd195c995960921b6044820152606490fd5b3461013157602080600319360112610131576004356001600160a01b038116908190036101315760005260028152604060002080546107d581611309565b916107e3604051938461119a565b8183526000908152838120938084015b83831061080c5760405180610808878261102e565b0390f35b60048260019261081b89611321565b8152019601920191946107f3565b3461013157610837366110f9565b92919233600052600060205260ff60036040600020015416610bc8578315610b8357610886604051926108698461117e565b338452610877368787611262565b92602085019384523691611262565b60408301526001606083015233600052600060205260406000209060018060a01b038351166001600160601b0360a01b83541617825551805167ffffffffffffffff918282116102d65781906108df6001860154611144565b601f8111610b30575b50602090601f8311600114610abe57600092610ab3575b50508160011b916000199060031b1c19161760018301555b604083015180519182116102d6576109326002840154611144565b601f8111610a68575b50602090601f83116001146109d0577fe16a05fc8f54df0cc4862ec9ed0851c325c6679d0b6fe97b6441d61231b5a49e9593836109c096946060946003946000926109c5575b50508160011b9160001990851b1c19161760028201555b01910151151560ff8019835416911617905560405191829160208352339560208401916112a9565b0390a2005b015190508a80610981565b90601f198316916002850160005260206000209260005b818110610a505750846060946003947fe16a05fc8f54df0cc4862ec9ed0851c325c6679d0b6fe97b6441d61231b5a49e9a98946109c09a9860019510610a38575b505050811b016002820155610998565b015160001983871b60f8161c191690558a8080610a28565b929360206001819287860151815501950193016109e7565b600284016000526020600020601f840160051c81019160208510610aa9575b601f0160051c01905b818110610a9d575061093b565b60008155600101610a90565b9091508190610a87565b0151905087806108ff565b9250600185016000526020600020906000935b601f1984168510610b15576001945083601f19811610610afc575b505050811b016001830155610917565b015160001960f88460031b161c19169055878080610aec565b81810151835560209485019460019093019290910190610ad1565b909150600185016000526020600020601f840160051c810160208510610b7c575b90849392915b601f830160051c82018110610b6d5750506108e8565b60008155859450600101610b57565b5080610b51565b60405162461bcd60e51b815260206004820152601860248201527f557365726e616d652063616e6e6f7420626520656d70747900000000000000006044820152606490fd5b60405162461bcd60e51b815260206004820152601660248201527550726f66696c6520616c72656164792065786973747360501b6044820152606490fd5b3461013157602080600319360112610131576004356001600160a01b03818116918290036101315781600052600191828452604060002090604051808387829554938481520190600052876000209260005b888a838310610ef15750505050610c719250038361119a565b60005260028085526040600020948554938493866000905b610eae575b50610c9886611309565b95610ca6604051978861119a565b808752610cb5601f1991611309565b018360005b828110610e7f575050506000946000905b808210610e485750508697506000975b610dbc575b5050505090918093505b818110610cff5760405180610808858261102e565b83610d0a82856112f5565b5182915b610d38575b81610d2d91610d26610d339594886112f5565b52856112f5565b506112e6565b610cea565b81151580610d95575b15610d90576000198201828111610d7a57610d738793610d6183896112f5565b51610d6c828a6112f5565b52876112f5565b5091610d0e565b634e487b7160e01b600052601160045260246000fd5b610d13565b506000198201828111610d7a57610dae604091876112f5565b510151604082015111610d41565b8051881015610e435781610dd089836112f5565b5116600052838352604060002080546000915b818310610e0457505050610dfb8798979596976112e6565b97969594610cdb565b909196610e36610e3c91610e21610e1b8b866112ca565b50611321565b610e2b828d6112f5565b52610d2d818c6112f5565b976112e6565b9190610de3565b610ce0565b9095610e73610e7991610e5e610e1b8a8e6112ca565b610e68828c6112f5565b52610d2d818b6112f5565b966112e6565b90610ccb565b604051610e8b8161117e565b60006060808352808584015281604084015282015282828b010152018490610cba565b958151871015610eeb5782610ec388846112f5565b51166000528484526040600020548101809111610d7a57610ee58891976112e6565b90610c89565b95610c8e565b86548a168552958101958895509093019201610c58565b3461013157602080600319360112610131576001600160a01b0391600435838116919082900361013157606081610f4060009361117e565b8281528185820152816040820152015260005260008152604060002090610fe160405192610f6d8461117e565b848154168452610fce610f82600183016111bc565b84860190815260ff6003610f98600286016111bc565b946040890195865201541694606087019515158652604051978897828952511690870152516080604087015260a0860190610fee565b9051848203601f19016060860152610fee565b9051151560808301520390f35b919082519283825260005b84811061101a575050826000602080949584010152601f8019910116010190565b602081830181015184830182015201610ff9565b602080820190808352835180925260409283810182858560051b8401019601946000925b858410611063575050505050505090565b909192939495968580600192603f198582030187528a51906110a061109083516080808552840190610fee565b8484015183820386850152610fee565b91878101518883015260609081878060a01b0391015116910152990194019401929594939190611052565b9181601f840112156101315782359167ffffffffffffffff8311610131576020838186019501011161013157565b60406003198201126101315767ffffffffffffffff916004358381116101315782611126916004016110cb565b9390939260243591821161013157611140916004016110cb565b9091565b90600182811c92168015611174575b602083101461115e57565b634e487b7160e01b600052602260045260246000fd5b91607f1691611153565b6080810190811067ffffffffffffffff8211176102d657604052565b90601f8019910116810190811067ffffffffffffffff8211176102d657604052565b90604051918260008254926111d084611144565b90818452600194858116908160001461123f57506001146111fc575b50506111fa9250038361119a565b565b9093915060005260209081600020936000915b8183106112275750506111fa935082010138806111ec565b8554888401850152948501948794509183019161120f565b9150506111fa94506020925060ff191682840152151560051b82010138806111ec565b92919267ffffffffffffffff82116102d6576040519161128c601f8201601f19166020018461119a565b829481845281830111610131578281602093846000960137010152565b908060209392818452848401376000828201840152601f01601f1916010190565b80548210156102c05760005260206000209060021b0190600090565b6000198114610d7a5760010190565b80518210156102c05760209160051b010190565b67ffffffffffffffff81116102d65760051b60200190565b9060405161132e8161117e565b6060819361133b816111bc565b8352611349600182016111bc565b602084015260028101546040840152600301546001600160a01b031691015256fea2646970667358221220f87f4084df5a9f0969b9a71168283dfbcb301cf3eb1e30d3273fa4eed653ec6464736f6c63430008140033","opcodes":"PUSH1 0x80 DUP1 PUSH1 0x40 MSTORE CALLVALUE PUSH2 0x16 JUMPI PUSH2 0x13A0 SWAP1 DUP2 PUSH2 0x1C DUP3 CODECOPY RETURN JUMPDEST PUSH1 0x0 DUP1 REVERT INVALID PUSH1 0x80 DUP1 PUSH1 0x40 MSTORE PUSH1 0x4 CALLDATASIZE LT ISZERO PUSH2 0x13 JUMPI PUSH1 0x0 DUP1 REVERT JUMPDEST PUSH1 0x0 CALLDATALOAD PUSH1 0xE0 SHR SWAP1 DUP2 PUSH4 0xF53A470 EQ PUSH2 0xF08 JUMPI POP DUP1 PUSH4 0x16B8E731 EQ PUSH2 0xC06 JUMPI DUP1 PUSH4 0x1B4886A3 EQ PUSH2 0x829 JUMPI DUP1 PUSH4 0x7DEDE890 EQ PUSH2 0x797 JUMPI DUP1 PUSH4 0x7DF3483F EQ PUSH2 0x39D JUMPI DUP1 PUSH4 0xA70806F7 EQ PUSH2 0x1C9 JUMPI DUP1 PUSH4 0xBBE15627 EQ PUSH2 0x136 JUMPI PUSH4 0xD8236DFF EQ PUSH2 0x77 JUMPI PUSH1 0x0 DUP1 REVERT JUMPDEST CALLVALUE PUSH2 0x131 JUMPI PUSH1 0x20 DUP1 PUSH1 0x3 NOT CALLDATASIZE ADD SLT PUSH2 0x131 JUMPI PUSH1 0x1 PUSH1 0x1 PUSH1 0xA0 SHL SUB PUSH1 0x4 CALLDATALOAD DUP2 DUP2 AND SWAP1 DUP2 SWAP1 SUB PUSH2 0x131 JUMPI DUP3 SWAP1 PUSH1 0x0 MSTORE PUSH1 0x1 DUP1 DUP3 MSTORE PUSH1 0x40 PUSH1 0x0 KECCAK256 SWAP3 PUSH1 0x40 MLOAD DUP1 DUP5 DUP7 SLOAD SWAP2 DUP3 DUP2 MSTORE ADD SWAP1 DUP2 SWAP7 PUSH1 0x0 MSTORE DUP6 PUSH1 0x0 KECCAK256 SWAP1 PUSH1 0x0 JUMPDEST DUP2 DUP2 LT PUSH2 0x11C JUMPI POP POP POP DUP2 PUSH2 0xDF SWAP2 SUB DUP3 PUSH2 0x119A JUMP JUMPDEST PUSH1 0x40 MLOAD SWAP4 DUP1 DUP6 ADD SWAP2 DUP2 DUP7 MSTORE MLOAD DUP1 SWAP3 MSTORE PUSH1 0x40 DUP6 ADD SWAP6 SWAP3 PUSH1 0x0 SWAP1 JUMPDEST DUP4 DUP3 LT PUSH2 0x105 JUMPI DUP7 DUP9 SUB DUP8 RETURN JUMPDEST DUP5 MLOAD DUP2 AND DUP9 MSTORE SWAP7 DUP3 ADD SWAP7 SWAP4 DUP3 ADD SWAP4 SWAP1 DUP6 ADD SWAP1 PUSH2 0xF8 JUMP JUMPDEST DUP3 SLOAD DUP7 AND DUP5 MSTORE SWAP3 DUP8 ADD SWAP3 SWAP2 DUP7 ADD SWAP2 DUP7 ADD PUSH2 0xC9 JUMP JUMPDEST PUSH1 0x0 DUP1 REVERT JUMPDEST CALLVALUE PUSH2 0x131 JUMPI PUSH1 0x20 CALLDATASIZE PUSH1 0x3 NOT ADD SLT PUSH2 0x131 JUMPI PUSH1 0x1 PUSH1 0x1 PUSH1 0xA0 SHL SUB PUSH1 0x4 CALLDATALOAD DUP2 DUP2 AND SWAP1 DUP2 SWAP1 SUB PUSH2 0x131 JUMPI PUSH1 0x0 MSTORE PUSH1 0x0 PUSH1 0x20 MSTORE PUSH1 0x40 PUSH1 0x0 KECCAK256 SWAP1 DUP2 SLOAD AND PUSH2 0x17A PUSH1 0x1 DUP4 ADD PUSH2 0x11BC JUMP JUMPDEST SWAP2 PUSH2 0x1BD PUSH1 0xFF PUSH1 0x3 PUSH2 0x18E PUSH1 0x2 DUP6 ADD PUSH2 0x11BC JUMP JUMPDEST SWAP4 ADD SLOAD AND SWAP2 PUSH2 0x1AF PUSH1 0x40 MLOAD SWAP6 DUP7 SWAP6 DUP7 MSTORE PUSH1 0x80 PUSH1 0x20 DUP8 ADD MSTORE PUSH1 0x80 DUP7 ADD SWAP1 PUSH2 0xFEE JUMP JUMPDEST SWAP1 DUP5 DUP3 SUB PUSH1 0x40 DUP7 ADD MSTORE PUSH2 0xFEE JUMP JUMPDEST SWAP1 ISZERO ISZERO PUSH1 0x60 DUP4 ADD MSTORE SUB SWAP1 RETURN JUMPDEST CALLVALUE PUSH2 0x131 JUMPI PUSH1 0x20 DUP1 PUSH1 0x3 NOT CALLDATASIZE ADD SLT PUSH2 0x131 JUMPI PUSH1 0x4 CALLDATALOAD PUSH1 0x1 PUSH1 0x1 PUSH1 0xA0 SHL SUB DUP2 AND SWAP2 SWAP1 DUP3 SWAP1 SUB PUSH2 0x131 JUMPI CALLER DUP3 EQ PUSH2 0x360 JUMPI CALLER PUSH1 0x0 MSTORE PUSH1 0x3 DUP2 MSTORE PUSH1 0x40 PUSH1 0x0 KECCAK256 DUP3 PUSH1 0x0 MSTORE DUP2 MSTORE PUSH1 0xFF PUSH1 0x40 PUSH1 0x0 KECCAK256 SLOAD AND PUSH2 0x328 JUMPI DUP2 PUSH1 0x0 MSTORE PUSH1 0x0 DUP2 MSTORE PUSH1 0xFF PUSH1 0x3 PUSH1 0x40 PUSH1 0x0 KECCAK256 ADD SLOAD AND ISZERO PUSH2 0x2EC JUMPI CALLER PUSH1 0x0 MSTORE PUSH1 0x1 DUP2 MSTORE PUSH1 0x40 PUSH1 0x0 KECCAK256 DUP1 SLOAD SWAP1 PUSH1 0x1 PUSH1 0x40 SHL DUP3 LT ISZERO PUSH2 0x2D6 JUMPI PUSH1 0x1 DUP3 ADD DUP1 DUP3 SSTORE DUP3 LT ISZERO PUSH2 0x2C0 JUMPI PUSH1 0x0 MSTORE DUP2 PUSH1 0x0 KECCAK256 ADD DUP3 PUSH1 0x1 PUSH1 0x1 PUSH1 0x60 SHL SUB PUSH1 0xA0 SHL DUP3 SLOAD AND OR SWAP1 SSTORE CALLER PUSH1 0x0 MSTORE PUSH1 0x3 DUP2 MSTORE PUSH1 0x40 PUSH1 0x0 KECCAK256 SWAP1 DUP3 PUSH1 0x0 MSTORE MSTORE PUSH1 0x40 PUSH1 0x0 KECCAK256 PUSH1 0x1 PUSH1 0xFF NOT DUP3 SLOAD AND OR SWAP1 SSTORE CALLER PUSH32 0x6178E95C138F06036CDC07A49ED6A3D23008969FA143BAECEB037EBAE22E8D14 PUSH1 0x0 DUP1 LOG3 STOP JUMPDEST PUSH4 0x4E487B71 PUSH1 0xE0 SHL PUSH1 0x0 MSTORE PUSH1 0x32 PUSH1 0x4 MSTORE PUSH1 0x24 PUSH1 0x0 REVERT JUMPDEST PUSH4 0x4E487B71 PUSH1 0xE0 SHL PUSH1 0x0 MSTORE PUSH1 0x41 PUSH1 0x4 MSTORE PUSH1 0x24 PUSH1 0x0 REVERT JUMPDEST PUSH1 0x64 SWAP1 PUSH1 0x40 MLOAD SWAP1 PUSH3 0x461BCD PUSH1 0xE5 SHL DUP3 MSTORE PUSH1 0x4 DUP3 ADD MSTORE PUSH1 0x15 PUSH1 0x24 DUP3 ADD MSTORE PUSH21 0x54617267657420686173206E6F2070726F66696C65 PUSH1 0x58 SHL PUSH1 0x44 DUP3 ADD MSTORE REVERT JUMPDEST PUSH1 0x64 SWAP1 PUSH1 0x40 MLOAD SWAP1 PUSH3 0x461BCD PUSH1 0xE5 SHL DUP3 MSTORE PUSH1 0x4 DUP3 ADD MSTORE PUSH1 0x11 PUSH1 0x24 DUP3 ADD MSTORE PUSH17 0x416C726561647920666F6C6C6F77696E67 PUSH1 0x78 SHL PUSH1 0x44 DUP3 ADD MSTORE REVERT JUMPDEST PUSH1 0x64 SWAP1 PUSH1 0x40 MLOAD SWAP1 PUSH3 0x461BCD PUSH1 0xE5 SHL DUP3 MSTORE PUSH1 0x4 DUP3 ADD MSTORE PUSH1 0x16 PUSH1 0x24 DUP3 ADD MSTORE PUSH22 0x21B0B73737BA103337B63637BB903CB7BAB939B2B633 PUSH1 0x51 SHL PUSH1 0x44 DUP3 ADD MSTORE REVERT JUMPDEST CALLVALUE PUSH2 0x131 JUMPI PUSH2 0x3AB CALLDATASIZE PUSH2 0x10F9 JUMP JUMPDEST SWAP1 SWAP3 SWAP2 SWAP3 CALLER PUSH1 0x0 MSTORE PUSH1 0x0 PUSH1 0x20 MSTORE PUSH1 0xFF PUSH1 0x3 PUSH1 0x40 PUSH1 0x0 KECCAK256 ADD SLOAD AND ISZERO PUSH2 0x761 JUMPI DUP4 ISZERO PUSH2 0x726 JUMPI CALLER PUSH1 0x0 MSTORE PUSH1 0x2 PUSH1 0x20 MSTORE PUSH2 0x402 PUSH1 0x40 PUSH1 0x0 KECCAK256 SWAP2 PUSH1 0x40 MLOAD SWAP4 PUSH2 0x3EE DUP6 PUSH2 0x117E JUMP JUMPDEST PUSH2 0x3F9 CALLDATASIZE DUP9 DUP9 PUSH2 0x1262 JUMP JUMPDEST DUP6 MSTORE CALLDATASIZE SWAP2 PUSH2 0x1262 JUMP JUMPDEST PUSH1 0x20 DUP4 ADD MSTORE TIMESTAMP PUSH1 0x40 DUP4 ADD MSTORE CALLER PUSH1 0x60 DUP4 ADD MSTORE DUP1 SLOAD PUSH1 0x1 PUSH1 0x40 SHL DUP2 LT ISZERO PUSH2 0x2D6 JUMPI PUSH2 0x430 SWAP2 PUSH1 0x1 DUP3 ADD DUP2 SSTORE PUSH2 0x12CA JUMP JUMPDEST PUSH2 0x710 JUMPI DUP2 MLOAD DUP1 MLOAD SWAP1 PUSH8 0xFFFFFFFFFFFFFFFF DUP3 GT PUSH2 0x2D6 JUMPI DUP2 SWAP1 PUSH2 0x454 DUP5 SLOAD PUSH2 0x1144 JUMP JUMPDEST PUSH1 0x1F DUP2 GT PUSH2 0x6C0 JUMPI JUMPDEST POP PUSH1 0x20 SWAP1 PUSH1 0x1F DUP4 GT PUSH1 0x1 EQ PUSH2 0x654 JUMPI PUSH1 0x0 SWAP3 PUSH2 0x649 JUMPI JUMPDEST POP POP DUP2 PUSH1 0x1 SHL SWAP2 PUSH1 0x0 NOT SWAP1 PUSH1 0x3 SHL SHR NOT AND OR DUP2 SSTORE JUMPDEST PUSH1 0x20 DUP3 ADD MLOAD DUP1 MLOAD SWAP1 PUSH8 0xFFFFFFFFFFFFFFFF DUP3 GT PUSH2 0x2D6 JUMPI PUSH2 0x4AD PUSH1 0x1 DUP5 ADD SLOAD PUSH2 0x1144 JUMP JUMPDEST PUSH1 0x1F DUP2 GT PUSH2 0x5FE JUMPI JUMPDEST POP PUSH1 0x20 SWAP1 PUSH1 0x1F DUP4 GT PUSH1 0x1 EQ PUSH2 0x566 JUMPI SWAP3 DUP3 PUSH2 0x54C SWAP6 SWAP4 PUSH1 0x3 SWAP4 PUSH32 0xEE00476D9873F80E65259F52C839C112F2DBA3E32ED0A5FD6A682ED9504AA695 SWAP9 SWAP7 PUSH1 0x0 SWAP3 PUSH2 0x55B JUMPI JUMPDEST POP POP PUSH1 0x0 NOT DUP3 DUP6 SHL SHR NOT AND PUSH1 0x1 SWAP2 DUP3 SHL OR SWAP1 DUP3 ADD SSTORE JUMPDEST PUSH1 0x40 DUP4 ADD MLOAD PUSH1 0x2 DUP3 ADD SSTORE ADD SWAP1 PUSH1 0x60 PUSH1 0x1 DUP1 PUSH1 0xA0 SHL SUB SWAP2 ADD MLOAD AND PUSH1 0x1 PUSH1 0x1 PUSH1 0x60 SHL SUB PUSH1 0xA0 SHL DUP3 SLOAD AND OR SWAP1 SSTORE PUSH1 0x40 MLOAD SWAP4 PUSH1 0x40 DUP6 MSTORE PUSH1 0x40 DUP6 ADD SWAP2 PUSH2 0x12A9 JUMP JUMPDEST SWAP2 TIMESTAMP PUSH1 0x20 DUP3 ADD MSTORE DUP1 CALLER SWAP4 SUB SWAP1 LOG2 STOP JUMPDEST ADD MLOAD SWAP1 POP DUP10 DUP1 PUSH2 0x4FA JUMP JUMPDEST SWAP1 PUSH1 0x1 DUP5 ADD PUSH1 0x0 MSTORE PUSH1 0x20 PUSH1 0x0 KECCAK256 SWAP2 PUSH1 0x0 JUMPDEST PUSH1 0x1F NOT DUP6 AND DUP2 LT PUSH2 0x5E6 JUMPI POP DUP4 PUSH1 0x3 SWAP4 PUSH32 0xEE00476D9873F80E65259F52C839C112F2DBA3E32ED0A5FD6A682ED9504AA695 SWAP9 SWAP7 SWAP4 PUSH1 0x1 SWAP4 PUSH2 0x54C SWAP10 SWAP8 PUSH1 0x1F NOT DUP2 AND LT PUSH2 0x5CE JUMPI JUMPDEST POP POP POP DUP2 SHL ADD PUSH1 0x1 DUP3 ADD SSTORE PUSH2 0x510 JUMP JUMPDEST ADD MLOAD PUSH1 0x0 NOT DUP4 DUP8 SHL PUSH1 0xF8 AND SHR NOT AND SWAP1 SSTORE DUP10 DUP1 DUP1 PUSH2 0x5BE JUMP JUMPDEST SWAP2 SWAP3 PUSH1 0x20 PUSH1 0x1 DUP2 SWAP3 DUP7 DUP6 ADD MLOAD DUP2 SSTORE ADD SWAP5 ADD SWAP3 ADD PUSH2 0x577 JUMP JUMPDEST PUSH1 0x1 DUP5 ADD PUSH1 0x0 MSTORE PUSH1 0x20 PUSH1 0x0 KECCAK256 PUSH1 0x1F DUP5 ADD PUSH1 0x5 SHR DUP2 ADD SWAP2 PUSH1 0x20 DUP6 LT PUSH2 0x63F JUMPI JUMPDEST PUSH1 0x1F ADD PUSH1 0x5 SHR ADD SWAP1 JUMPDEST DUP2 DUP2 LT PUSH2 0x633 JUMPI POP PUSH2 0x4B6 JUMP JUMPDEST PUSH1 0x0 DUP2 SSTORE PUSH1 0x1 ADD PUSH2 0x626 JUMP JUMPDEST SWAP1 SWAP2 POP DUP2 SWAP1 PUSH2 0x61D JUMP JUMPDEST ADD MLOAD SWAP1 POP DUP7 DUP1 PUSH2 0x474 JUMP JUMPDEST SWAP3 POP DUP4 PUSH1 0x0 MSTORE PUSH1 0x20 PUSH1 0x0 KECCAK256 SWAP1 PUSH1 0x0 SWAP4 JUMPDEST PUSH1 0x1F NOT DUP5 AND DUP6 LT PUSH2 0x6A5 JUMPI PUSH1 0x1 SWAP5 POP DUP4 PUSH1 0x1F NOT DUP2 AND LT PUSH2 0x68C JUMPI JUMPDEST POP POP POP DUP2 SHL ADD DUP2 SSTORE PUSH2 0x489 JUMP JUMPDEST ADD MLOAD PUSH1 0x0 NOT PUSH1 0xF8 DUP5 PUSH1 0x3 SHL AND SHR NOT AND SWAP1 SSTORE DUP7 DUP1 DUP1 PUSH2 0x67F JUMP JUMPDEST DUP2 DUP2 ADD MLOAD DUP4 SSTORE PUSH1 0x20 SWAP5 DUP6 ADD SWAP5 PUSH1 0x1 SWAP1 SWAP4 ADD SWAP3 SWAP1 SWAP2 ADD SWAP1 PUSH2 0x664 JUMP JUMPDEST SWAP1 SWAP2 POP DUP4 PUSH1 0x0 MSTORE PUSH1 0x20 PUSH1 0x0 KECCAK256 PUSH1 0x1F DUP5 ADD PUSH1 0x5 SHR DUP2 ADD PUSH1 0x20 DUP6 LT PUSH2 0x709 JUMPI JUMPDEST SWAP1 DUP5 SWAP4 SWAP3 SWAP2 JUMPDEST PUSH1 0x1F DUP4 ADD PUSH1 0x5 SHR DUP3 ADD DUP2 LT PUSH2 0x6FA JUMPI POP POP PUSH2 0x45D JUMP JUMPDEST PUSH1 0x0 DUP2 SSTORE DUP6 SWAP5 POP PUSH1 0x1 ADD PUSH2 0x6E4 JUMP JUMPDEST POP DUP1 PUSH2 0x6DE JUMP JUMPDEST PUSH4 0x4E487B71 PUSH1 0xE0 SHL PUSH1 0x0 MSTORE PUSH1 0x0 PUSH1 0x4 MSTORE PUSH1 0x24 PUSH1 0x0 REVERT JUMPDEST PUSH1 0x40 MLOAD PUSH3 0x461BCD PUSH1 0xE5 SHL DUP2 MSTORE PUSH1 0x20 PUSH1 0x4 DUP3 ADD MSTORE PUSH1 0x13 PUSH1 0x24 DUP3 ADD MSTORE PUSH19 0x4349442063616E6E6F7420626520656D707479 PUSH1 0x68 SHL PUSH1 0x44 DUP3 ADD MSTORE PUSH1 0x64 SWAP1 REVERT JUMPDEST PUSH1 0x40 MLOAD PUSH3 0x461BCD PUSH1 0xE5 SHL DUP2 MSTORE PUSH1 0x20 PUSH1 0x4 DUP3 ADD MSTORE PUSH1 0xE PUSH1 0x24 DUP3 ADD MSTORE PUSH14 0x139BDD081C9959DA5CDD195C9959 PUSH1 0x92 SHL PUSH1 0x44 DUP3 ADD MSTORE PUSH1 0x64 SWAP1 REVERT JUMPDEST CALLVALUE PUSH2 0x131 JUMPI PUSH1 0x20 DUP1 PUSH1 0x3 NOT CALLDATASIZE ADD SLT PUSH2 0x131 JUMPI PUSH1 0x4 CALLDATALOAD PUSH1 0x1 PUSH1 0x1 PUSH1 0xA0 SHL SUB DUP2 AND SWAP1 DUP2 SWAP1 SUB PUSH2 0x131 JUMPI PUSH1 0x0 MSTORE PUSH1 0x2 DUP2 MSTORE PUSH1 0x40 PUSH1 0x0 KECCAK256 DUP1 SLOAD PUSH2 0x7D5 DUP2 PUSH2 0x1309 JUMP JUMPDEST SWAP2 PUSH2 0x7E3 PUSH1 0x40 MLOAD SWAP4 DUP5 PUSH2 0x119A JUMP JUMPDEST DUP2 DUP4 MSTORE PUSH1 0x0 SWAP1 DUP2 MSTORE DUP4 DUP2 KECCAK256 SWAP4 DUP1 DUP5 ADD JUMPDEST DUP4 DUP4 LT PUSH2 0x80C JUMPI PUSH1 0x40 MLOAD DUP1 PUSH2 0x808 DUP8 DUP3 PUSH2 0x102E JUMP JUMPDEST SUB SWAP1 RETURN JUMPDEST PUSH1 0x4 DUP3 PUSH1 0x1 SWAP3 PUSH2 0x81B DUP10 PUSH2 0x1321 JUMP JUMPDEST DUP2 MSTORE ADD SWAP7 ADD SWAP3 ADD SWAP2 SWAP5 PUSH2 0x7F3 JUMP JUMPDEST CALLVALUE PUSH2 0x131 JUMPI PUSH2 0x837 CALLDATASIZE PUSH2 0x10F9 JUMP JUMPDEST SWAP3 SWAP2 SWAP3 CALLER PUSH1 0x0 MSTORE PUSH1 0x0 PUSH1 0x20 MSTORE PUSH1 0xFF PUSH1 0x3 PUSH1 0x40 PUSH1 0x0 KECCAK256 ADD SLOAD AND PUSH2 0xBC8 JUMPI DUP4 ISZERO PUSH2 0xB83 JUMPI PUSH2 0x886 PUSH1 0x40 MLOAD SWAP3 PUSH2 0x869 DUP5 PUSH2 0x117E JUMP JUMPDEST CALLER DUP5 MSTORE PUSH2 0x877 CALLDATASIZE DUP8 DUP8 PUSH2 0x1262 JUMP JUMPDEST SWAP3 PUSH1 0x20 DUP6 ADD SWAP4 DUP5 MSTORE CALLDATASIZE SWAP2 PUSH2 0x1262 JUMP JUMPDEST PUSH1 0x40 DUP4 ADD MSTORE PUSH1 0x1 PUSH1 0x60 DUP4 ADD MSTORE CALLER PUSH1 0x0 MSTORE PUSH1 0x0 PUSH1 0x20 MSTORE PUSH1 0x40 PUSH1 0x0 KECCAK256 SWAP1 PUSH1 0x1 DUP1 PUSH1 0xA0 SHL SUB DUP4 MLOAD AND PUSH1 0x1 PUSH1 0x1 PUSH1 0x60 SHL SUB PUSH1 0xA0 SHL DUP4 SLOAD AND OR DUP3 SSTORE MLOAD DUP1 MLOAD PUSH8 0xFFFFFFFFFFFFFFFF SWAP2 DUP3 DUP3 GT PUSH2 0x2D6 JUMPI DUP2 SWAP1 PUSH2 0x8DF PUSH1 0x1 DUP7 ADD SLOAD PUSH2 0x1144 JUMP JUMPDEST PUSH1 0x1F DUP2 GT PUSH2 0xB30 JUMPI JUMPDEST POP PUSH1 0x20 SWAP1 PUSH1 0x1F DUP4 GT PUSH1 0x1 EQ PUSH2 0xABE JUMPI PUSH1 0x0 SWAP3 PUSH2 0xAB3 JUMPI JUMPDEST POP POP DUP2 PUSH1 0x1 SHL SWAP2 PUSH1 0x0 NOT SWAP1 PUSH1 0x3 SHL SHR NOT AND OR PUSH1 0x1 DUP4 ADD SSTORE JUMPDEST PUSH1 0x40 DUP4 ADD MLOAD DUP1 MLOAD SWAP2 DUP3 GT PUSH2 0x2D6 JUMPI PUSH2 0x932 PUSH1 0x2 DUP5 ADD SLOAD PUSH2 0x1144 JUMP JUMPDEST PUSH1 0x1F DUP2 GT PUSH2 0xA68 JUMPI JUMPDEST POP PUSH1 0x20 SWAP1 PUSH1 0x1F DUP4 GT PUSH1 0x1 EQ PUSH2 0x9D0 JUMPI PUSH32 0xE16A05FC8F54DF0CC4862EC9ED0851C325C6679D0B6FE97B6441D61231B5A49E SWAP6 SWAP4 DUP4 PUSH2 0x9C0 SWAP7 SWAP5 PUSH1 0x60 SWAP5 PUSH1 0x3 SWAP5 PUSH1 0x0 SWAP3 PUSH2 0x9C5 JUMPI JUMPDEST POP POP DUP2 PUSH1 0x1 SHL SWAP2 PUSH1 0x0 NOT SWAP1 DUP6 SHL SHR NOT AND OR PUSH1 0x2 DUP3 ADD SSTORE JUMPDEST ADD SWAP2 ADD MLOAD ISZERO ISZERO PUSH1 0xFF DUP1 NOT DUP4 SLOAD AND SWAP2 AND OR SWAP1 SSTORE PUSH1 0x40 MLOAD SWAP2 DUP3 SWAP2 PUSH1 0x20 DUP4 MSTORE CALLER SWAP6 PUSH1 0x20 DUP5 ADD SWAP2 PUSH2 0x12A9 JUMP JUMPDEST SUB SWAP1 LOG2 STOP JUMPDEST ADD MLOAD SWAP1 POP DUP11 DUP1 PUSH2 0x981 JUMP JUMPDEST SWAP1 PUSH1 0x1F NOT DUP4 AND SWAP2 PUSH1 0x2 DUP6 ADD PUSH1 0x0 MSTORE PUSH1 0x20 PUSH1 0x0 KECCAK256 SWAP3 PUSH1 0x0 JUMPDEST DUP2 DUP2 LT PUSH2 0xA50 JUMPI POP DUP5 PUSH1 0x60 SWAP5 PUSH1 0x3 SWAP5 PUSH32 0xE16A05FC8F54DF0CC4862EC9ED0851C325C6679D0B6FE97B6441D61231B5A49E SWAP11 SWAP9 SWAP5 PUSH2 0x9C0 SWAP11 SWAP9 PUSH1 0x1 SWAP6 LT PUSH2 0xA38 JUMPI JUMPDEST POP POP POP DUP2 SHL ADD PUSH1 0x2 DUP3 ADD SSTORE PUSH2 0x998 JUMP JUMPDEST ADD MLOAD PUSH1 0x0 NOT DUP4 DUP8 SHL PUSH1 0xF8 AND SHR NOT AND SWAP1 SSTORE DUP11 DUP1 DUP1 PUSH2 0xA28 JUMP JUMPDEST SWAP3 SWAP4 PUSH1 0x20 PUSH1 0x1 DUP2 SWAP3 DUP8 DUP7 ADD MLOAD DUP2 SSTORE ADD SWAP6 ADD SWAP4 ADD PUSH2 0x9E7 JUMP JUMPDEST PUSH1 0x2 DUP5 ADD PUSH1 0x0 MSTORE PUSH1 0x20 PUSH1 0x0 KECCAK256 PUSH1 0x1F DUP5 ADD PUSH1 0x5 SHR DUP2 ADD SWAP2 PUSH1 0x20 DUP6 LT PUSH2 0xAA9 JUMPI JUMPDEST PUSH1 0x1F ADD PUSH1 0x5 SHR ADD SWAP1 JUMPDEST DUP2 DUP2 LT PUSH2 0xA9D JUMPI POP PUSH2 0x93B JUMP JUMPDEST PUSH1 0x0 DUP2 SSTORE PUSH1 0x1 ADD PUSH2 0xA90 JUMP JUMPDEST SWAP1 SWAP2 POP DUP2 SWAP1 PUSH2 0xA87 JUMP JUMPDEST ADD MLOAD SWAP1 POP DUP8 DUP1 PUSH2 0x8FF JUMP JUMPDEST SWAP3 POP PUSH1 0x1 DUP6 ADD PUSH1 0x0 MSTORE PUSH1 0x20 PUSH1 0x0 KECCAK256 SWAP1 PUSH1 0x0 SWAP4 JUMPDEST PUSH1 0x1F NOT DUP5 AND DUP6 LT PUSH2 0xB15 JUMPI PUSH1 0x1 SWAP5 POP DUP4 PUSH1 0x1F NOT DUP2 AND LT PUSH2 0xAFC JUMPI JUMPDEST POP POP POP DUP2 SHL ADD PUSH1 0x1 DUP4 ADD SSTORE PUSH2 0x917 JUMP JUMPDEST ADD MLOAD PUSH1 0x0 NOT PUSH1 0xF8 DUP5 PUSH1 0x3 SHL AND SHR NOT AND SWAP1 SSTORE DUP8 DUP1 DUP1 PUSH2 0xAEC JUMP JUMPDEST DUP2 DUP2 ADD MLOAD DUP4 SSTORE PUSH1 0x20 SWAP5 DUP6 ADD SWAP5 PUSH1 0x1 SWAP1 SWAP4 ADD SWAP3 SWAP1 SWAP2 ADD SWAP1 PUSH2 0xAD1 JUMP JUMPDEST SWAP1 SWAP2 POP PUSH1 0x1 DUP6 ADD PUSH1 0x0 MSTORE PUSH1 0x20 PUSH1 0x0 KECCAK256 PUSH1 0x1F DUP5 ADD PUSH1 0x5 SHR DUP2 ADD PUSH1 0x20 DUP6 LT PUSH2 0xB7C JUMPI JUMPDEST SWAP1 DUP5 SWAP4 SWAP3 SWAP2 JUMPDEST PUSH1 0x1F DUP4 ADD PUSH1 0x5 SHR DUP3 ADD DUP2 LT PUSH2 0xB6D JUMPI POP POP PUSH2 0x8E8 JUMP JUMPDEST PUSH1 0x0 DUP2 SSTORE DUP6 SWAP5 POP PUSH1 0x1 ADD PUSH2 0xB57 JUMP JUMPDEST POP DUP1 PUSH2 0xB51 JUMP JUMPDEST PUSH1 0x40 MLOAD PUSH3 0x461BCD PUSH1 0xE5 SHL DUP2 MSTORE PUSH1 0x20 PUSH1 0x4 DUP3 ADD MSTORE PUSH1 0x18 PUSH1 0x24 DUP3 ADD MSTORE PUSH32 0x557365726E616D652063616E6E6F7420626520656D7074790000000000000000 PUSH1 0x44 DUP3 ADD MSTORE PUSH1 0x64 SWAP1 REVERT JUMPDEST PUSH1 0x40 MLOAD PUSH3 0x461BCD PUSH1 0xE5 SHL DUP2 MSTORE PUSH1 0x20 PUSH1 0x4 DUP3 ADD MSTORE PUSH1 0x16 PUSH1 0x24 DUP3 ADD MSTORE PUSH22 0x50726F66696C6520616C726561647920657869737473 PUSH1 0x50 SHL PUSH1 0x44 DUP3 ADD MSTORE PUSH1 0x64 SWAP1 REVERT JUMPDEST CALLVALUE PUSH2 0x131 JUMPI PUSH1 0x20 DUP1 PUSH1 0x3 NOT CALLDATASIZE ADD SLT PUSH2 0x131 JUMPI PUSH1 0x4 CALLDATALOAD PUSH1 0x1 PUSH1 0x1 PUSH1 0xA0 SHL SUB DUP2 DUP2 AND SWAP2 DUP3 SWAP1 SUB PUSH2 0x131 JUMPI DUP2 PUSH1 0x0 MSTORE PUSH1 0x1 SWAP2 DUP3 DUP5 MSTORE PUSH1 0x40 PUSH1 0x0 KECCAK256 SWAP1 PUSH1 0x40 MLOAD DUP1 DUP4 DUP8 DUP3 SWAP6 SLOAD SWAP4 DUP5 DUP2 MSTORE ADD SWAP1 PUSH1 0x0 MSTORE DUP8 PUSH1 0x0 KECCAK256 SWAP3 PUSH1 0x0 JUMPDEST DUP9 DUP11 DUP4 DUP4 LT PUSH2 0xEF1 JUMPI POP POP POP POP PUSH2 0xC71 SWAP3 POP SUB DUP4 PUSH2 0x119A JUMP JUMPDEST PUSH1 0x0 MSTORE PUSH1 0x2 DUP1 DUP6 MSTORE PUSH1 0x40 PUSH1 0x0 KECCAK256 SWAP5 DUP6 SLOAD SWAP4 DUP5 SWAP4 DUP7 PUSH1 0x0 SWAP1 JUMPDEST PUSH2 0xEAE JUMPI JUMPDEST POP PUSH2 0xC98 DUP7 PUSH2 0x1309 JUMP JUMPDEST SWAP6 PUSH2 0xCA6 PUSH1 0x40 MLOAD SWAP8 DUP9 PUSH2 0x119A JUMP JUMPDEST DUP1 DUP8 MSTORE PUSH2 0xCB5 PUSH1 0x1F NOT SWAP2 PUSH2 0x1309 JUMP JUMPDEST ADD DUP4 PUSH1 0x0 JUMPDEST DUP3 DUP2 LT PUSH2 0xE7F JUMPI POP POP POP PUSH1 0x0 SWAP5 PUSH1 0x0 SWAP1 JUMPDEST DUP1 DUP3 LT PUSH2 0xE48 JUMPI POP POP DUP7 SWAP8 POP PUSH1 0x0 SWAP8 JUMPDEST PUSH2 0xDBC JUMPI JUMPDEST POP POP POP POP SWAP1 SWAP2 DUP1 SWAP4 POP JUMPDEST DUP2 DUP2 LT PUSH2 0xCFF JUMPI PUSH1 0x40 MLOAD DUP1 PUSH2 0x808 DUP6 DUP3 PUSH2 0x102E JUMP JUMPDEST DUP4 PUSH2 0xD0A DUP3 DUP6 PUSH2 0x12F5 JUMP JUMPDEST MLOAD DUP3 SWAP2 JUMPDEST PUSH2 0xD38 JUMPI JUMPDEST DUP2 PUSH2 0xD2D SWAP2 PUSH2 0xD26 PUSH2 0xD33 SWAP6 SWAP5 DUP9 PUSH2 0x12F5 JUMP JUMPDEST MSTORE DUP6 PUSH2 0x12F5 JUMP JUMPDEST POP PUSH2 0x12E6 JUMP JUMPDEST PUSH2 0xCEA JUMP JUMPDEST DUP2 ISZERO ISZERO DUP1 PUSH2 0xD95 JUMPI JUMPDEST ISZERO PUSH2 0xD90 JUMPI PUSH1 0x0 NOT DUP3 ADD DUP3 DUP2 GT PUSH2 0xD7A JUMPI PUSH2 0xD73 DUP8 SWAP4 PUSH2 0xD61 DUP4 DUP10 PUSH2 0x12F5 JUMP JUMPDEST MLOAD PUSH2 0xD6C DUP3 DUP11 PUSH2 0x12F5 JUMP JUMPDEST MSTORE DUP8 PUSH2 0x12F5 JUMP JUMPDEST POP SWAP2 PUSH2 0xD0E JUMP JUMPDEST PUSH4 0x4E487B71 PUSH1 0xE0 SHL PUSH1 0x0 MSTORE PUSH1 0x11 PUSH1 0x4 MSTORE PUSH1 0x24 PUSH1 0x0 REVERT JUMPDEST PUSH2 0xD13 JUMP JUMPDEST POP PUSH1 0x0 NOT DUP3 ADD DUP3 DUP2 GT PUSH2 0xD7A JUMPI PUSH2 0xDAE PUSH1 0x40 SWAP2 DUP8 PUSH2 0x12F5 JUMP JUMPDEST MLOAD ADD MLOAD PUSH1 0x40 DUP3 ADD MLOAD GT PUSH2 0xD41 JUMP JUMPDEST DUP1 MLOAD DUP9 LT ISZERO PUSH2 0xE43 JUMPI DUP2 PUSH2 0xDD0 DUP10 DUP4 PUSH2 0x12F5 JUMP JUMPDEST MLOAD AND PUSH1 0x0 MSTORE DUP4 DUP4 MSTORE PUSH1 0x40 PUSH1 0x0 KECCAK256 DUP1 SLOAD PUSH1 0x0 SWAP2 JUMPDEST DUP2 DUP4 LT PUSH2 0xE04 JUMPI POP POP POP PUSH2 0xDFB DUP8 SWAP9 SWAP8 SWAP6 SWAP7 SWAP8 PUSH2 0x12E6 JUMP JUMPDEST SWAP8 SWAP7 SWAP6 SWAP5 PUSH2 0xCDB JUMP JUMPDEST SWAP1 SWAP2 SWAP7 PUSH2 0xE36 PUSH2 0xE3C SWAP2 PUSH2 0xE21 PUSH2 0xE1B DUP12 DUP7 PUSH2 0x12CA JUMP JUMPDEST POP PUSH2 0x1321 JUMP JUMPDEST PUSH2 0xE2B DUP3 DUP14 PUSH2 0x12F5 JUMP JUMPDEST MSTORE PUSH2 0xD2D DUP2 DUP13 PUSH2 0x12F5 JUMP JUMPDEST SWAP8 PUSH2 0x12E6 JUMP JUMPDEST SWAP2 SWAP1 PUSH2 0xDE3 JUMP JUMPDEST PUSH2 0xCE0 JUMP JUMPDEST SWAP1 SWAP6 PUSH2 0xE73 PUSH2 0xE79 SWAP2 PUSH2 0xE5E PUSH2 0xE1B DUP11 DUP15 PUSH2 0x12CA JUMP JUMPDEST PUSH2 0xE68 DUP3 DUP13 PUSH2 0x12F5 JUMP JUMPDEST MSTORE PUSH2 0xD2D DUP2 DUP12 PUSH2 0x12F5 JUMP JUMPDEST SWAP7 PUSH2 0x12E6 JUMP JUMPDEST SWAP1 PUSH2 0xCCB JUMP JUMPDEST PUSH1 0x40 MLOAD PUSH2 0xE8B DUP2 PUSH2 0x117E JUMP JUMPDEST PUSH1 0x0 PUSH1 0x60 DUP1 DUP4 MSTORE DUP1 DUP6 DUP5 ADD MSTORE DUP2 PUSH1 0x40 DUP5 ADD MSTORE DUP3 ADD MSTORE DUP3 DUP3 DUP12 ADD ADD MSTORE ADD DUP5 SWAP1 PUSH2 0xCBA JUMP JUMPDEST SWAP6 DUP2 MLOAD DUP8 LT ISZERO PUSH2 0xEEB JUMPI DUP3 PUSH2 0xEC3 DUP9 DUP5 PUSH2 0x12F5 JUMP JUMPDEST MLOAD AND PUSH1 0x0 MSTORE DUP5 DUP5 MSTORE PUSH1 0x40 PUSH1 0x0 KECCAK256 SLOAD DUP2 ADD DUP1 SWAP2 GT PUSH2 0xD7A JUMPI PUSH2 0xEE5 DUP9 SWAP2 SWAP8 PUSH2 0x12E6 JUMP JUMPDEST SWAP1 PUSH2 0xC89 JUMP JUMPDEST SWAP6 PUSH2 0xC8E JUMP JUMPDEST DUP7 SLOAD DUP11 AND DUP6 MSTORE SWAP6 DUP2 ADD SWAP6 DUP9 SWAP6 POP SWAP1 SWAP4 ADD SWAP3 ADD PUSH2 0xC58 JUMP JUMPDEST CALLVALUE PUSH2 0x131 JUMPI PUSH1 0x20 DUP1 PUSH1 0x3 NOT CALLDATASIZE ADD SLT PUSH2 0x131 JUMPI PUSH1 0x1 PUSH1 0x1 PUSH1 0xA0 SHL SUB SWAP2 PUSH1 0x4 CALLDATALOAD DUP4 DUP2 AND SWAP2 SWAP1 DUP3 SWAP1 SUB PUSH2 0x131 JUMPI PUSH1 0x60 DUP2 PUSH2 0xF40 PUSH1 0x0 SWAP4 PUSH2 0x117E JUMP JUMPDEST DUP3 DUP2 MSTORE DUP2 DUP6 DUP3 ADD MSTORE DUP2 PUSH1 0x40 DUP3 ADD MSTORE ADD MSTORE PUSH1 0x0 MSTORE PUSH1 0x0 DUP2 MSTORE PUSH1 0x40 PUSH1 0x0 KECCAK256 SWAP1 PUSH2 0xFE1 PUSH1 0x40 MLOAD SWAP3 PUSH2 0xF6D DUP5 PUSH2 0x117E JUMP JUMPDEST DUP5 DUP2 SLOAD AND DUP5 MSTORE PUSH2 0xFCE PUSH2 0xF82 PUSH1 0x1 DUP4 ADD PUSH2 0x11BC JUMP JUMPDEST DUP5 DUP7 ADD SWAP1 DUP2 MSTORE PUSH1 0xFF PUSH1 0x3 PUSH2 0xF98 PUSH1 0x2 DUP7 ADD PUSH2 0x11BC JUMP JUMPDEST SWAP5 PUSH1 0x40 DUP10 ADD SWAP6 DUP7 MSTORE ADD SLOAD AND SWAP5 PUSH1 0x60 DUP8 ADD SWAP6 ISZERO ISZERO DUP7 MSTORE PUSH1 0x40 MLOAD SWAP8 DUP9 SWAP8 DUP3 DUP10 MSTORE MLOAD AND SWAP1 DUP8 ADD MSTORE MLOAD PUSH1 0x80 PUSH1 0x40 DUP8 ADD MSTORE PUSH1 0xA0 DUP7 ADD SWAP1 PUSH2 0xFEE JUMP JUMPDEST SWAP1 MLOAD DUP5 DUP3 SUB PUSH1 0x1F NOT ADD PUSH1 0x60 DUP7 ADD MSTORE PUSH2 0xFEE JUMP JUMPDEST SWAP1 MLOAD ISZERO ISZERO PUSH1 0x80 DUP4 ADD MSTORE SUB SWAP1 RETURN JUMPDEST SWAP2 SWAP1 DUP3 MLOAD SWAP3 DUP4 DUP3 MSTORE PUSH1 0x0 JUMPDEST DUP5 DUP2 LT PUSH2 0x101A JUMPI POP POP DUP3 PUSH1 0x0 PUSH1 0x20 DUP1 SWAP5 SWAP6 DUP5 ADD ADD MSTORE PUSH1 0x1F DUP1 NOT SWAP2 ADD AND ADD ADD SWAP1 JUMP JUMPDEST PUSH1 0x20 DUP2 DUP4 ADD DUP2 ADD MLOAD DUP5 DUP4 ADD DUP3 ADD MSTORE ADD PUSH2 0xFF9 JUMP JUMPDEST PUSH1 0x20 DUP1 DUP3 ADD SWAP1 DUP1 DUP4 MSTORE DUP4 MLOAD DUP1 SWAP3 MSTORE PUSH1 0x40 SWAP3 DUP4 DUP2 ADD DUP3 DUP6 DUP6 PUSH1 0x5 SHL DUP5 ADD ADD SWAP7 ADD SWAP5 PUSH1 0x0 SWAP3 JUMPDEST DUP6 DUP5 LT PUSH2 0x1063 JUMPI POP POP POP POP POP POP POP SWAP1 JUMP JUMPDEST SWAP1 SWAP2 SWAP3 SWAP4 SWAP5 SWAP6 SWAP7 DUP6 DUP1 PUSH1 0x1 SWAP3 PUSH1 0x3F NOT DUP6 DUP3 SUB ADD DUP8 MSTORE DUP11 MLOAD SWAP1 PUSH2 0x10A0 PUSH2 0x1090 DUP4 MLOAD PUSH1 0x80 DUP1 DUP6 MSTORE DUP5 ADD SWAP1 PUSH2 0xFEE JUMP JUMPDEST DUP5 DUP5 ADD MLOAD DUP4 DUP3 SUB DUP7 DUP6 ADD MSTORE PUSH2 0xFEE JUMP JUMPDEST SWAP2 DUP8 DUP2 ADD MLOAD DUP9 DUP4 ADD MSTORE PUSH1 0x60 SWAP1 DUP2 DUP8 DUP1 PUSH1 0xA0 SHL SUB SWAP2 ADD MLOAD AND SWAP2 ADD MSTORE SWAP10 ADD SWAP5 ADD SWAP5 ADD SWAP3 SWAP6 SWAP5 SWAP4 SWAP2 SWAP1 PUSH2 0x1052 JUMP JUMPDEST SWAP2 DUP2 PUSH1 0x1F DUP5 ADD SLT ISZERO PUSH2 0x131 JUMPI DUP3 CALLDATALOAD SWAP2 PUSH8 0xFFFFFFFFFFFFFFFF DUP4 GT PUSH2 0x131 JUMPI PUSH1 0x20 DUP4 DUP2 DUP7 ADD SWAP6 ADD ADD GT PUSH2 0x131 JUMPI JUMP JUMPDEST PUSH1 0x40 PUSH1 0x3 NOT DUP3 ADD SLT PUSH2 0x131 JUMPI PUSH8 0xFFFFFFFFFFFFFFFF SWAP2 PUSH1 0x4 CALLDATALOAD DUP4 DUP2 GT PUSH2 0x131 JUMPI DUP3 PUSH2 0x1126 SWAP2 PUSH1 0x4 ADD PUSH2 0x10CB JUMP JUMPDEST SWAP4 SWAP1 SWAP4 SWAP3 PUSH1 0x24 CALLDATALOAD SWAP2 DUP3 GT PUSH2 0x131 JUMPI PUSH2 0x1140 SWAP2 PUSH1 0x4 ADD PUSH2 0x10CB JUMP JUMPDEST SWAP1 SWAP2 JUMP JUMPDEST SWAP1 PUSH1 0x1 DUP3 DUP2 SHR SWAP3 AND DUP1 ISZERO PUSH2 0x1174 JUMPI JUMPDEST PUSH1 0x20 DUP4 LT EQ PUSH2 0x115E JUMPI JUMP JUMPDEST PUSH4 0x4E487B71 PUSH1 0xE0 SHL PUSH1 0x0 MSTORE PUSH1 0x22 PUSH1 0x4 MSTORE PUSH1 0x24 PUSH1 0x0 REVERT JUMPDEST SWAP2 PUSH1 0x7F AND SWAP2 PUSH2 0x1153 JUMP JUMPDEST PUSH1 0x80 DUP2 ADD SWAP1 DUP2 LT PUSH8 0xFFFFFFFFFFFFFFFF DUP3 GT OR PUSH2 0x2D6 JUMPI PUSH1 0x40 MSTORE JUMP JUMPDEST SWAP1 PUSH1 0x1F DUP1 NOT SWAP2 ADD AND DUP2 ADD SWAP1 DUP2 LT PUSH8 0xFFFFFFFFFFFFFFFF DUP3 GT OR PUSH2 0x2D6 JUMPI PUSH1 0x40 MSTORE JUMP JUMPDEST SWAP1 PUSH1 0x40 MLOAD SWAP2 DUP3 PUSH1 0x0 DUP3 SLOAD SWAP3 PUSH2 0x11D0 DUP5 PUSH2 0x1144 JUMP JUMPDEST SWAP1 DUP2 DUP5 MSTORE PUSH1 0x1 SWAP5 DUP6 DUP2 AND SWAP1 DUP2 PUSH1 0x0 EQ PUSH2 0x123F JUMPI POP PUSH1 0x1 EQ PUSH2 0x11FC JUMPI JUMPDEST POP POP PUSH2 0x11FA SWAP3 POP SUB DUP4 PUSH2 0x119A JUMP JUMPDEST JUMP JUMPDEST SWAP1 SWAP4 SWAP2 POP PUSH1 0x0 MSTORE PUSH1 0x20 SWAP1 DUP2 PUSH1 0x0 KECCAK256 SWAP4 PUSH1 0x0 SWAP2 JUMPDEST DUP2 DUP4 LT PUSH2 0x1227 JUMPI POP POP PUSH2 0x11FA SWAP4 POP DUP3 ADD ADD CODESIZE DUP1 PUSH2 0x11EC JUMP JUMPDEST DUP6 SLOAD DUP9 DUP5 ADD DUP6 ADD MSTORE SWAP5 DUP6 ADD SWAP5 DUP8 SWAP5 POP SWAP2 DUP4 ADD SWAP2 PUSH2 0x120F JUMP JUMPDEST SWAP2 POP POP PUSH2 0x11FA SWAP5 POP PUSH1 0x20 SWAP3 POP PUSH1 0xFF NOT AND DUP3 DUP5 ADD MSTORE ISZERO ISZERO PUSH1 0x5 SHL DUP3 ADD ADD CODESIZE DUP1 PUSH2 0x11EC JUMP JUMPDEST SWAP3 SWAP2 SWAP3 PUSH8 0xFFFFFFFFFFFFFFFF DUP3 GT PUSH2 0x2D6 JUMPI PUSH1 0x40 MLOAD SWAP2 PUSH2 0x128C PUSH1 0x1F DUP3 ADD PUSH1 0x1F NOT AND PUSH1 0x20 ADD DUP5 PUSH2 0x119A JUMP JUMPDEST DUP3 SWAP5 DUP2 DUP5 MSTORE DUP2 DUP4 ADD GT PUSH2 0x131 JUMPI DUP3 DUP2 PUSH1 0x20 SWAP4 DUP5 PUSH1 0x0 SWAP7 ADD CALLDATACOPY ADD ADD MSTORE JUMP JUMPDEST SWAP1 DUP1 PUSH1 0x20 SWAP4 SWAP3 DUP2 DUP5 MSTORE DUP5 DUP5 ADD CALLDATACOPY PUSH1 0x0 DUP3 DUP3 ADD DUP5 ADD MSTORE PUSH1 0x1F ADD PUSH1 0x1F NOT AND ADD ADD SWAP1 JUMP JUMPDEST DUP1 SLOAD DUP3 LT ISZERO PUSH2 0x2C0 JUMPI PUSH1 0x0 MSTORE PUSH1 0x20 PUSH1 0x0 KECCAK256 SWAP1 PUSH1 0x2 SHL ADD SWAP1 PUSH1 0x0 SWAP1 JUMP JUMPDEST PUSH1 0x0 NOT DUP2 EQ PUSH2 0xD7A JUMPI PUSH1 0x1 ADD SWAP1 JUMP JUMPDEST DUP1 MLOAD DUP3 LT ISZERO PUSH2 0x2C0 JUMPI PUSH1 0x20 SWAP2 PUSH1 0x5 SHL ADD ADD SWAP1 JUMP JUMPDEST PUSH8 0xFFFFFFFFFFFFFFFF DUP2 GT PUSH2 0x2D6 JUMPI PUSH1 0x5 SHL PUSH1 0x20 ADD SWAP1 JUMP JUMPDEST SWAP1 PUSH1 0x40 MLOAD PUSH2 0x132E DUP2 PUSH2 0x117E JUMP JUMPDEST PUSH1 0x60 DUP2 SWAP4 PUSH2 0x133B DUP2 PUSH2 0x11BC JUMP JUMPDEST DUP4 MSTORE PUSH2 0x1349 PUSH1 0x1 DUP3 ADD PUSH2 0x11BC JUMP JUMPDEST PUSH1 0x20 DUP5 ADD MSTORE PUSH1 0x2 DUP2 ADD SLOAD PUSH1 0x40 DUP5 ADD MSTORE PUSH1 0x3 ADD SLOAD PUSH1 0x1 PUSH1 0x1 PUSH1 0xA0 SHL SUB AND SWAP2 ADD MSTORE JUMP INVALID LOG2 PUSH5 0x6970667358 0x22 SLT KECCAK256 0xF8 PUSH32 0x4084DF5A9F0969B9A71168283DFBCB301CF3EB1E30D3273FA4EED653EC646473 PUSH16 0x6C634300081400330000000000000000 "},"methodIdentifiers":{"followUser(address)":"a70806f7","getFeed(address)":"16b8e731","getFollowing(address)":"d8236dff","getProfile(address)":"0f53a470","getUserPhotos(address)":"7dede890","profiles(address)":"bbe15627","publishPhoto(string,string)":"7df3483f","registerProfile(string,string)":"1b4886a3"}}}}}