{"contracts/CollectibleMoment.sol":{"CollectibleMoment":{"abi":[{"inputs":[],"stateMutability":"nonpayable","type":"constructor"},{"anonymous":false,"inputs":[{"indexed":true,"internalType":"address","name":"owner","type":"address"},{"indexed":true,"internalType":"address","name":"approved","type":"address"},{"indexed":true,"internalType":"uint256","name":"tokenId","type":"uint256"}],"name":"Approval","type":"event"},{"anonymous":false,"inputs":[{"indexed":true,"internalType":"address","name":"owner","type":"address"},{"indexed":true,"internalType":"address","name":"operator","type":"address"},{"indexed":false,"internalType":"bool","name":"approved","type":"bool"}],"name":"ApprovalForAll","type":"event"},{"anonymous":false,"inputs":[{"indexed":true,"internalType":"uint256","name":"tokenId","type":"uint256"},{"indexed":true,"internalType":"uint256","name":"appPostId","type":"uint256"},{"indexed":true,"internalType":"uint256","name":"authorUserId","type":"uint256"},{"indexed":false,"internalType":"address","name":"recipient","type":"address"},{"indexed":false,"internalType":"bytes32","name":"contentHash","type":"bytes32"},{"indexed":false,"internalType":"uint256","name":"mintedAt","type":"uint256"}],"name":"MomentMinted","type":"event"},{"anonymous":false,"inputs":[{"indexed":true,"internalType":"address","name":"from","type":"address"},{"indexed":true,"internalType":"address","name":"to","type":"address"},{"indexed":true,"internalType":"uint256","name":"tokenId","type":"uint256"}],"name":"Transfer","type":"event"},{"inputs":[{"internalType":"address","name":"to","type":"address"},{"internalType":"uint256","name":"tokenId","type":"uint256"}],"name":"approve","outputs":[],"stateMutability":"nonpayable","type":"function"},{"inputs":[{"internalType":"address","name":"account","type":"address"}],"name":"balanceOf","outputs":[{"internalType":"uint256","name":"","type":"uint256"}],"stateMutability":"view","type":"function"},{"inputs":[{"internalType":"uint256","name":"tokenId","type":"uint256"}],"name":"getApproved","outputs":[{"internalType":"address","name":"","type":"address"}],"stateMutability":"view","type":"function"},{"inputs":[{"internalType":"uint256","name":"tokenId","type":"uint256"}],"name":"getMoment","outputs":[{"components":[{"internalType":"uint256","name":"appPostId","type":"uint256"},{"internalType":"uint256","name":"authorUserId","type":"uint256"},{"internalType":"string","name":"imageUrl","type":"string"},{"internalType":"string","name":"caption","type":"string"},{"internalType":"bytes32","name":"contentHash","type":"bytes32"},{"internalType":"uint256","name":"mintedAt","type":"uint256"}],"internalType":"struct CollectibleMoment.MomentData","name":"data","type":"tuple"}],"stateMutability":"view","type":"function"},{"inputs":[{"internalType":"address","name":"account","type":"address"},{"internalType":"address","name":"operator","type":"address"}],"name":"isApprovedForAll","outputs":[{"internalType":"bool","name":"","type":"bool"}],"stateMutability":"view","type":"function"},{"inputs":[{"internalType":"address","name":"recipient","type":"address"},{"internalType":"uint256","name":"appPostId","type":"uint256"},{"internalType":"uint256","name":"authorUserId","type":"uint256"},{"internalType":"string","name":"imageUrl","type":"string"},{"internalType":"string","name":"caption","type":"string"},{"internalType":"bytes32","name":"contentHash","type":"bytes32"}],"name":"mintMoment","outputs":[{"internalType":"uint256","name":"tokenId","type":"uint256"}],"stateMutability":"nonpayable","type":"function"},{"inputs":[{"internalType":"uint256","name":"","type":"uint256"}],"name":"moments","outputs":[{"internalType":"uint256","name":"appPostId","type":"uint256"},{"internalType":"uint256","name":"authorUserId","type":"uint256"},{"internalType":"string","name":"imageUrl","type":"string"},{"internalType":"string","name":"caption","type":"string"},{"internalType":"bytes32","name":"contentHash","type":"bytes32"},{"internalType":"uint256","name":"mintedAt","type":"uint256"}],"stateMutability":"view","type":"function"},{"inputs":[],"name":"name","outputs":[{"internalType":"string","name":"","type":"string"}],"stateMutability":"view","type":"function"},{"inputs":[],"name":"owner","outputs":[{"internalType":"address","name":"","type":"address"}],"stateMutability":"view","type":"function"},{"inputs":[{"internalType":"uint256","name":"tokenId","type":"uint256"}],"name":"ownerOf","outputs":[{"internalType":"address","name":"","type":"address"}],"stateMutability":"view","type":"function"},{"inputs":[{"internalType":"uint256","name":"","type":"uint256"}],"name":"postMinted","outputs":[{"internalType":"bool","name":"","type":"bool"}],"stateMutability":"view","type":"function"},{"inputs":[{"internalType":"address","name":"from","type":"address"},{"internalType":"address","name":"to","type":"address"},{"internalType":"uint256","name":"tokenId","type":"uint256"}],"name":"safeTransferFrom","outputs":[],"stateMutability":"nonpayable","type":"function"},{"inputs":[{"internalType":"address","name":"from","type":"address"},{"internalType":"address","name":"to","type":"address"},{"internalType":"uint256","name":"tokenId","type":"uint256"},{"internalType":"bytes","name":"","type":"bytes"}],"name":"safeTransferFrom","outputs":[],"stateMutability":"nonpayable","type":"function"},{"inputs":[{"internalType":"address","name":"operator","type":"address"},{"internalType":"bool","name":"approved","type":"bool"}],"name":"setApprovalForAll","outputs":[],"stateMutability":"nonpayable","type":"function"},{"inputs":[{"internalType":"bytes4","name":"interfaceId","type":"bytes4"}],"name":"supportsInterface","outputs":[{"internalType":"bool","name":"","type":"bool"}],"stateMutability":"pure","type":"function"},{"inputs":[],"name":"symbol","outputs":[{"internalType":"string","name":"","type":"string"}],"stateMutability":"view","type":"function"},{"inputs":[],"name":"totalSupply","outputs":[{"internalType":"uint256","name":"","type":"uint256"}],"stateMutability":"view","type":"function"},{"inputs":[{"internalType":"address","name":"from","type":"address"},{"internalType":"address","name":"to","type":"address"},{"internalType":"uint256","name":"tokenId","type":"uint256"}],"name":"transferFrom","outputs":[],"stateMutability":"nonpayable","type":"function"},{"inputs":[{"internalType":"address","name":"newOwner","type":"address"}],"name":"transferOwnership","outputs":[],"stateMutability":"nonpayable","type":"function"}],"evm":{"bytecode":{"linkReferences":{},"object":"608060405234620000f2576000620000188154620000f7565b601f8111620000c5575b5060327f4c6f636b657420436f6c6c65637469626c65204d6f6d656e7400000000000000018155600190620000588254620000f7565b90601f821162000096575b6006624c434d60e81b018355600980546001600160a01b0319163317905560028390556040516112ba9081620001358239f35b82815282601f60208320930160051c8301925b838110620000b957505062000063565b828155018390620000a9565b818052601f60208320910160051c8101905b818110620000e6575062000022565b828155600101620000d7565b600080fd5b90600182811c9216801562000129575b60208310146200011357565b634e487b7160e01b600052602260045260246000fd5b91607f16916200010756fe608080604052600436101561001357600080fd5b60003560e01c90816301ffc9a714610d605750806306fdde0314610cbd578063081812fc14610c6f578063095ea7b314610bb857806318160ddd14610b8d57806323b872dd14610b455780632ab3e7ee14610b5c57806342842e0e14610b45578063557a2d2014610a2b5780636352211e146109fb57806370a08231146109875780638da5cb5b1461095e57806395d89b411461087b5780639c4ff9c7146107ee5780639eb1c1d6146102b3578063a22cb4651461022e578063b88d4fde146101db578063e985e9c5146101855763f2fde38b146100f057600080fd5b3461018057602036600319011261018057610109610f11565b600954906001600160a01b039061012333838516146111f1565b1690811561013b576001600160a01b03191617600955005b60405162461bcd60e51b815260206004820152601860248201527f4e6577206f776e65722063616e6e6f74206265207a65726f00000000000000006044820152606490fd5b600080fd5b346101805760403660031901126101805761019e610f11565b6101a6610f27565b9060018060a01b03809116600052600660205260406000209116600052602052602060ff604060002054166040519015158152f35b34610180576080366003190112610180576101f4610f11565b6101fc610f27565b906064359167ffffffffffffffff83116101805761022161022c933690600401610f72565b505060443591611046565b005b3461018057604036600319011261018057610247610f11565b6024358015158091036101805733600052600660205260406000209160018060a01b03169182600052602052604060002060ff1981541660ff83161790556040519081527f17307eab39ab6107e8899845ad3d59bd9653f200f220920489ca2b5937696c3160203392a3005b346101805760c0366003190112610180576102cc610f11565b60643567ffffffffffffffff8111610180576102ec903690600401610f72565b9160843567ffffffffffffffff81116101805761030d903690600401610f72565b60095491936001600160a01b039261032890841633146111f1565b828416156107a9576024351561076b57602435600052600860205260ff604060002054166107305760025494600019861461071a576001860160025585600052600360205260406000208486166001600160601b0360a01b825416179055838516600052600460205260406000209182549060018201821161071a576103e19360016103d293019055604051986103be8a610ded565b6024358a5260443560208b0152369161123d565b9260408801938452369161123d565b606086015260a43560808601524260a086015283600052600760205260406000209085518255602086015160018301555180519067ffffffffffffffff82116106345781906104336002850154610db3565b601f81116106c7575b50602090601f83116001146106555760009261064a575b50508160011b916000199060031b1c19161760028201555b606085015194855167ffffffffffffffff81116106345761048f6003840154610db3565b96601f88116105ed575b602097508790601f831160011461057a5791806005949260a09460009261056f575b50508160011b916000199060031b1c19161760038501555b608081015160048501550151910155602435600052600884526040600020600160ff19825416179055604051918382821660007fddf252ad1be2c89b69c2b068fc378daa952ba7f163c4a11628f55a4df523b3ef8180a416815260a4358382015242604082015260443590827fbadc2ee0e723f8ede275d7503e3b04036db20a397423e1b392488ebb76272351606060243593a4604051908152f35b015190508a806104bb565b9060038501600052886000209160005b601f19851681106105d65750926005949260019260a09583601f198116106105bd575b505050811b0160038501556104d3565b015160001960f88460031b161c191690558a80806105ad565b91928a60018192868501518155019401920161058a565b600384016000526020600020601f830160051c81016020841061062d575b601f8a0160051c82018110610621575050610499565b6000815560010161060b565b508061060b565b634e487b7160e01b600052604160045260246000fd5b015190508780610453565b9250600284016000526020600020906000935b601f19841685106106ac576001945083601f19811610610693575b505050811b01600282015561046b565b015160001960f88460031b161c19169055878080610683565b81810151835560209485019460019093019290910190610668565b909150600284016000526020600020601f840160051c810160208510610713575b90849392915b601f830160051c8201811061070457505061043c565b600081558594506001016106ee565b50806106e8565b634e487b7160e01b600052601160045260246000fd5b60405162461bcd60e51b8152602060048201526013602482015272141bdcdd08185b1c9958591e481b5a5b9d1959606a1b6044820152606490fd5b60405162461bcd60e51b8152602060048201526016602482015275506f73742069642063616e6e6f74206265207a65726f60501b6044820152606490fd5b60405162461bcd60e51b815260206004820152601860248201527f526563697069656e742063616e6e6f74206265207a65726f00000000000000006044820152606490fd5b346101805760203660031901126101805760043560005260076020526040600020805460018201549161082360028201610e2b565b61086c61083260038401610e2b565b61085e60056004860154950154936040519788978852602088015260c0604088015260c0870190610ed1565b908582036060870152610ed1565b91608084015260a08301520390f35b34610180576000366003190112610180576040516000600180549061089f82610db3565b8085529181811690811561093757506001146108de575b6108da846108c681860382610e09565b604051918291602083526020830190610ed1565b0390f35b600081815292507fb10e2d527612073b26eecdfd717e6a320cf44b4afac2b0732d9fcbe2b7fa0cf65b82841061091f5750505081016020016108c6826108b6565b80546020858701810191909152909301928101610907565b60ff191660208087019190915292151560051b850190920192506108c691508390506108b6565b34610180576000366003190112610180576009546040516001600160a01b039091168152602090f35b34610180576020366003190112610180576001600160a01b036109a8610f11565b1680156109c75760005260046020526020604060002054604051908152f35b60405162461bcd60e51b815260206004820152600c60248201526b5a65726f206164647265737360a01b6044820152606490fd5b34610180576020366003190112610180576020610a19600435610fe3565b6040516001600160a01b039091168152f35b346101805760208060031936011261018057600435600060a0604051610a5081610ded565b82815282858201526060604082015260608082015282608082015201528060005260038252610a8d60018060a01b03604060002054161515610fa0565b60005260078152604060002060405190610aa682610ded565b805482526001810154838301908152610b34610ac460028401610e2b565b60408501908152610b21610ada60038601610e2b565b916060870192835260056004870154966080890197885201549460a08801958652604051988998818a5251908901525160408801525160c0606088015260e0870190610ed1565b9051858203601f19016080870152610ed1565b915160a08401525160c08301520390f35b346101805761022c610b5636610f3d565b91611046565b34610180576020366003190112610180576004356000526008602052602060ff604060002054166040519015158152f35b3461018057600036600319011261018057600254600019810190811161071a57602090604051908152f35b3461018057604036600319011261018057610bd1610f11565b602435906001600160a01b0380610be784610fe3565b16908133148015610c46575b610bfc90611009565b8360005260056020526040600020921691826001600160601b0360a01b8254161790557f8c5be1e5ebec7d5bd14f71427d1e84f3dd0314c0f7b2291e5b200ac8c7c3b925600080a4005b50816000526006602052604060002033600052602052610bfc60ff604060002054169050610bf3565b34610180576020366003190112610180576020600435806000526003825260018060a01b0390610ca782604060002054161515610fa0565b6000526005825260406000205416604051908152f35b346101805760003660031901126101805760405160008054610cde81610db3565b808452906001908181169081156109375750600114610d07576108da846108c681860382610e09565b600080805292507f290decd9548b62a8d60345a988386fc84ba6bc95484008f6362f93160ef3e5635b828410610d485750505081016020016108c6826108b6565b80546020858701810191909152909301928101610d30565b34610180576020366003190112610180576004359063ffffffff60e01b8216809203610180576020916380ac58cd60e01b8114908115610da2575b5015158152f35b6301ffc9a760e01b14905083610d9b565b90600182811c92168015610de3575b6020831014610dcd57565b634e487b7160e01b600052602260045260246000fd5b91607f1691610dc2565b60c0810190811067ffffffffffffffff82111761063457604052565b90601f8019910116810190811067ffffffffffffffff82111761063457604052565b9060405191826000825492610e3f84610db3565b908184526001948581169081600014610eae5750600114610e6b575b5050610e6992500383610e09565b565b9093915060005260209081600020936000915b818310610e96575050610e6993508201013880610e5b565b85548884018501529485019487945091830191610e7e565b915050610e6994506020925060ff191682840152151560051b8201013880610e5b565b919082519283825260005b848110610efd575050826000602080949584010152601f8019910116010190565b602081830181015184830182015201610edc565b600435906001600160a01b038216820361018057565b602435906001600160a01b038216820361018057565b6060906003190112610180576001600160a01b0390600435828116810361018057916024359081168103610180579060443590565b9181601f840112156101805782359167ffffffffffffffff8311610180576020838186019501011161018057565b15610fa757565b60405162461bcd60e51b8152602060048201526014602482015273151bdad95b88191bd95cc81b9bdd08195e1a5cdd60621b6044820152606490fd5b6000908152600360205260409020546001600160a01b0316611006811515610fa0565b90565b1561101057565b60405162461bcd60e51b815260206004820152600e60248201526d139bdd08185d5d1a1bdc9a5e995960921b6044820152606490fd5b6001600160a01b03918216919082156111ac57818061106486610fe3565b1691169181830361117357813314908115611158575b508015611132575b61108c9150611009565b60008381526005602052604081206001600160601b0360a01b90818154169055828252600460205260408220805490600019820191821161111e57558382526004602052604082208054906001820180921161111e57558482526003602052604082208054909116841790557fddf252ad1be2c89b69c2b068fc378daa952ba7f163c4a11628f55a4df523b3ef9080a4565b634e487b7160e01b84526011600452602484fd5b50600052600660205260406000203360005260205261108c60ff60406000205416611082565b9050846000526005602052339060406000205416143861107a565b60405162461bcd60e51b8152602060048201526011602482015270233937b69034b9903737ba1037bbb732b960791b6044820152606490fd5b60405162461bcd60e51b815260206004820152601860248201527f5472616e7366657220746f207a65726f206164647265737300000000000000006044820152606490fd5b156111f857565b60405162461bcd60e51b815260206004820152601760248201527f43616c6c6572206973206e6f7420746865206f776e65720000000000000000006044820152606490fd5b92919267ffffffffffffffff82116106345760405191611267601f8201601f191660200184610e09565b82948184528183011161018057828160209384600096013701015256fea2646970667358221220ac09b178f3da8f063519693e1d5f88c43db1e2d94af2ecd0a2054c6f2a83164464736f6c63430008140033","opcodes":"PUSH1 0x80 PUSH1 0x40 MSTORE CALLVALUE PUSH3 0xF2 JUMPI PUSH1 0x0 PUSH3 0x18 DUP2 SLOAD PUSH3 0xF7 JUMP JUMPDEST PUSH1 0x1F DUP2 GT PUSH3 0xC5 JUMPI JUMPDEST POP PUSH1 0x32 PUSH32 0x4C6F636B657420436F6C6C65637469626C65204D6F6D656E7400000000000000 ADD DUP2 SSTORE PUSH1 0x1 SWAP1 PUSH3 0x58 DUP3 SLOAD PUSH3 0xF7 JUMP JUMPDEST SWAP1 PUSH1 0x1F DUP3 GT PUSH3 0x96 JUMPI JUMPDEST PUSH1 0x6 PUSH3 0x4C434D PUSH1 0xE8 SHL ADD DUP4 SSTORE PUSH1 0x9 DUP1 SLOAD PUSH1 0x1 PUSH1 0x1 PUSH1 0xA0 SHL SUB NOT AND CALLER OR SWAP1 SSTORE PUSH1 0x2 DUP4 SWAP1 SSTORE PUSH1 0x40 MLOAD PUSH2 0x12BA SWAP1 DUP2 PUSH3 0x135 DUP3 CODECOPY RETURN JUMPDEST DUP3 DUP2 MSTORE DUP3 PUSH1 0x1F PUSH1 0x20 DUP4 KECCAK256 SWAP4 ADD PUSH1 0x5 SHR DUP4 ADD SWAP3 JUMPDEST DUP4 DUP2 LT PUSH3 0xB9 JUMPI POP POP PUSH3 0x63 JUMP JUMPDEST DUP3 DUP2 SSTORE ADD DUP4 SWAP1 PUSH3 0xA9 JUMP JUMPDEST DUP2 DUP1 MSTORE PUSH1 0x1F PUSH1 0x20 DUP4 KECCAK256 SWAP2 ADD PUSH1 0x5 SHR DUP2 ADD SWAP1 JUMPDEST DUP2 DUP2 LT PUSH3 0xE6 JUMPI POP PUSH3 0x22 JUMP JUMPDEST DUP3 DUP2 SSTORE PUSH1 0x1 ADD PUSH3 0xD7 JUMP JUMPDEST PUSH1 0x0 DUP1 REVERT JUMPDEST SWAP1 PUSH1 0x1 DUP3 DUP2 SHR SWAP3 AND DUP1 ISZERO PUSH3 0x129 JUMPI JUMPDEST PUSH1 0x20 DUP4 LT EQ PUSH3 0x113 JUMPI JUMP JUMPDEST PUSH4 0x4E487B71 PUSH1 0xE0 SHL PUSH1 0x0 MSTORE PUSH1 0x22 PUSH1 0x4 MSTORE PUSH1 0x24 PUSH1 0x0 REVERT JUMPDEST SWAP2 PUSH1 0x7F AND SWAP2 PUSH3 0x107 JUMP INVALID PUSH1 0x80 DUP1 PUSH1 0x40 MSTORE PUSH1 0x4 CALLDATASIZE LT ISZERO PUSH2 0x13 JUMPI PUSH1 0x0 DUP1 REVERT JUMPDEST PUSH1 0x0 CALLDATALOAD PUSH1 0xE0 SHR SWAP1 DUP2 PUSH4 0x1FFC9A7 EQ PUSH2 0xD60 JUMPI POP DUP1 PUSH4 0x6FDDE03 EQ PUSH2 0xCBD JUMPI DUP1 PUSH4 0x81812FC EQ PUSH2 0xC6F JUMPI DUP1 PUSH4 0x95EA7B3 EQ PUSH2 0xBB8 JUMPI DUP1 PUSH4 0x18160DDD EQ PUSH2 0xB8D JUMPI DUP1 PUSH4 0x23B872DD EQ PUSH2 0xB45 JUMPI DUP1 PUSH4 0x2AB3E7EE EQ PUSH2 0xB5C JUMPI DUP1 PUSH4 0x42842E0E EQ PUSH2 0xB45 JUMPI DUP1 PUSH4 0x557A2D20 EQ PUSH2 0xA2B JUMPI DUP1 PUSH4 0x6352211E EQ PUSH2 0x9FB JUMPI DUP1 PUSH4 0x70A08231 EQ PUSH2 0x987 JUMPI DUP1 PUSH4 0x8DA5CB5B EQ PUSH2 0x95E JUMPI DUP1 PUSH4 0x95D89B41 EQ PUSH2 0x87B JUMPI DUP1 PUSH4 0x9C4FF9C7 EQ PUSH2 0x7EE JUMPI DUP1 PUSH4 0x9EB1C1D6 EQ PUSH2 0x2B3 JUMPI DUP1 PUSH4 0xA22CB465 EQ PUSH2 0x22E JUMPI DUP1 PUSH4 0xB88D4FDE EQ PUSH2 0x1DB JUMPI DUP1 PUSH4 0xE985E9C5 EQ PUSH2 0x185 JUMPI PUSH4 0xF2FDE38B EQ PUSH2 0xF0 JUMPI PUSH1 0x0 DUP1 REVERT JUMPDEST CALLVALUE PUSH2 0x180 JUMPI PUSH1 0x20 CALLDATASIZE PUSH1 0x3 NOT ADD SLT PUSH2 0x180 JUMPI PUSH2 0x109 PUSH2 0xF11 JUMP JUMPDEST PUSH1 0x9 SLOAD SWAP1 PUSH1 0x1 PUSH1 0x1 PUSH1 0xA0 SHL SUB SWAP1 PUSH2 0x123 CALLER DUP4 DUP6 AND EQ PUSH2 0x11F1 JUMP JUMPDEST AND SWAP1 DUP2 ISZERO PUSH2 0x13B JUMPI PUSH1 0x1 PUSH1 0x1 PUSH1 0xA0 SHL SUB NOT AND OR PUSH1 0x9 SSTORE STOP JUMPDEST PUSH1 0x40 MLOAD PUSH3 0x461BCD PUSH1 0xE5 SHL DUP2 MSTORE PUSH1 0x20 PUSH1 0x4 DUP3 ADD MSTORE PUSH1 0x18 PUSH1 0x24 DUP3 ADD MSTORE PUSH32 0x4E6577206F776E65722063616E6E6F74206265207A65726F0000000000000000 PUSH1 0x44 DUP3 ADD MSTORE PUSH1 0x64 SWAP1 REVERT JUMPDEST PUSH1 0x0 DUP1 REVERT JUMPDEST CALLVALUE PUSH2 0x180 JUMPI PUSH1 0x40 CALLDATASIZE PUSH1 0x3 NOT ADD SLT PUSH2 0x180 JUMPI PUSH2 0x19E PUSH2 0xF11 JUMP JUMPDEST PUSH2 0x1A6 PUSH2 0xF27 JUMP JUMPDEST SWAP1 PUSH1 0x1 DUP1 PUSH1 0xA0 SHL SUB DUP1 SWAP2 AND PUSH1 0x0 MSTORE PUSH1 0x6 PUSH1 0x20 MSTORE PUSH1 0x40 PUSH1 0x0 KECCAK256 SWAP2 AND PUSH1 0x0 MSTORE PUSH1 0x20 MSTORE PUSH1 0x20 PUSH1 0xFF PUSH1 0x40 PUSH1 0x0 KECCAK256 SLOAD AND PUSH1 0x40 MLOAD SWAP1 ISZERO ISZERO DUP2 MSTORE RETURN JUMPDEST CALLVALUE PUSH2 0x180 JUMPI PUSH1 0x80 CALLDATASIZE PUSH1 0x3 NOT ADD SLT PUSH2 0x180 JUMPI PUSH2 0x1F4 PUSH2 0xF11 JUMP JUMPDEST PUSH2 0x1FC PUSH2 0xF27 JUMP JUMPDEST SWAP1 PUSH1 0x64 CALLDATALOAD SWAP2 PUSH8 0xFFFFFFFFFFFFFFFF DUP4 GT PUSH2 0x180 JUMPI PUSH2 0x221 PUSH2 0x22C SWAP4 CALLDATASIZE SWAP1 PUSH1 0x4 ADD PUSH2 0xF72 JUMP JUMPDEST POP POP PUSH1 0x44 CALLDATALOAD SWAP2 PUSH2 0x1046 JUMP JUMPDEST STOP JUMPDEST CALLVALUE PUSH2 0x180 JUMPI PUSH1 0x40 CALLDATASIZE PUSH1 0x3 NOT ADD SLT PUSH2 0x180 JUMPI PUSH2 0x247 PUSH2 0xF11 JUMP JUMPDEST PUSH1 0x24 CALLDATALOAD DUP1 ISZERO ISZERO DUP1 SWAP2 SUB PUSH2 0x180 JUMPI CALLER PUSH1 0x0 MSTORE PUSH1 0x6 PUSH1 0x20 MSTORE PUSH1 0x40 PUSH1 0x0 KECCAK256 SWAP2 PUSH1 0x1 DUP1 PUSH1 0xA0 SHL SUB AND SWAP2 DUP3 PUSH1 0x0 MSTORE PUSH1 0x20 MSTORE PUSH1 0x40 PUSH1 0x0 KECCAK256 PUSH1 0xFF NOT DUP2 SLOAD AND PUSH1 0xFF DUP4 AND OR SWAP1 SSTORE PUSH1 0x40 MLOAD SWAP1 DUP2 MSTORE PUSH32 0x17307EAB39AB6107E8899845AD3D59BD9653F200F220920489CA2B5937696C31 PUSH1 0x20 CALLER SWAP3 LOG3 STOP JUMPDEST CALLVALUE PUSH2 0x180 JUMPI PUSH1 0xC0 CALLDATASIZE PUSH1 0x3 NOT ADD SLT PUSH2 0x180 JUMPI PUSH2 0x2CC PUSH2 0xF11 JUMP JUMPDEST PUSH1 0x64 CALLDATALOAD PUSH8 0xFFFFFFFFFFFFFFFF DUP2 GT PUSH2 0x180 JUMPI PUSH2 0x2EC SWAP1 CALLDATASIZE SWAP1 PUSH1 0x4 ADD PUSH2 0xF72 JUMP JUMPDEST SWAP2 PUSH1 0x84 CALLDATALOAD PUSH8 0xFFFFFFFFFFFFFFFF DUP2 GT PUSH2 0x180 JUMPI PUSH2 0x30D SWAP1 CALLDATASIZE SWAP1 PUSH1 0x4 ADD PUSH2 0xF72 JUMP JUMPDEST PUSH1 0x9 SLOAD SWAP2 SWAP4 PUSH1 0x1 PUSH1 0x1 PUSH1 0xA0 SHL SUB SWAP3 PUSH2 0x328 SWAP1 DUP5 AND CALLER EQ PUSH2 0x11F1 JUMP JUMPDEST DUP3 DUP5 AND ISZERO PUSH2 0x7A9 JUMPI PUSH1 0x24 CALLDATALOAD ISZERO PUSH2 0x76B JUMPI PUSH1 0x24 CALLDATALOAD PUSH1 0x0 MSTORE PUSH1 0x8 PUSH1 0x20 MSTORE PUSH1 0xFF PUSH1 0x40 PUSH1 0x0 KECCAK256 SLOAD AND PUSH2 0x730 JUMPI PUSH1 0x2 SLOAD SWAP5 PUSH1 0x0 NOT DUP7 EQ PUSH2 0x71A JUMPI PUSH1 0x1 DUP7 ADD PUSH1 0x2 SSTORE DUP6 PUSH1 0x0 MSTORE PUSH1 0x3 PUSH1 0x20 MSTORE PUSH1 0x40 PUSH1 0x0 KECCAK256 DUP5 DUP7 AND PUSH1 0x1 PUSH1 0x1 PUSH1 0x60 SHL SUB PUSH1 0xA0 SHL DUP3 SLOAD AND OR SWAP1 SSTORE DUP4 DUP6 AND PUSH1 0x0 MSTORE PUSH1 0x4 PUSH1 0x20 MSTORE PUSH1 0x40 PUSH1 0x0 KECCAK256 SWAP2 DUP3 SLOAD SWAP1 PUSH1 0x1 DUP3 ADD DUP3 GT PUSH2 0x71A JUMPI PUSH2 0x3E1 SWAP4 PUSH1 0x1 PUSH2 0x3D2 SWAP4 ADD SWAP1 SSTORE PUSH1 0x40 MLOAD SWAP9 PUSH2 0x3BE DUP11 PUSH2 0xDED JUMP JUMPDEST PUSH1 0x24 CALLDATALOAD DUP11 MSTORE PUSH1 0x44 CALLDATALOAD PUSH1 0x20 DUP12 ADD MSTORE CALLDATASIZE SWAP2 PUSH2 0x123D JUMP JUMPDEST SWAP3 PUSH1 0x40 DUP9 ADD SWAP4 DUP5 MSTORE CALLDATASIZE SWAP2 PUSH2 0x123D JUMP JUMPDEST PUSH1 0x60 DUP7 ADD MSTORE PUSH1 0xA4 CALLDATALOAD PUSH1 0x80 DUP7 ADD MSTORE TIMESTAMP PUSH1 0xA0 DUP7 ADD MSTORE DUP4 PUSH1 0x0 MSTORE PUSH1 0x7 PUSH1 0x20 MSTORE PUSH1 0x40 PUSH1 0x0 KECCAK256 SWAP1 DUP6 MLOAD DUP3 SSTORE PUSH1 0x20 DUP7 ADD MLOAD PUSH1 0x1 DUP4 ADD SSTORE MLOAD DUP1 MLOAD SWAP1 PUSH8 0xFFFFFFFFFFFFFFFF DUP3 GT PUSH2 0x634 JUMPI DUP2 SWAP1 PUSH2 0x433 PUSH1 0x2 DUP6 ADD SLOAD PUSH2 0xDB3 JUMP JUMPDEST PUSH1 0x1F DUP2 GT PUSH2 0x6C7 JUMPI JUMPDEST POP PUSH1 0x20 SWAP1 PUSH1 0x1F DUP4 GT PUSH1 0x1 EQ PUSH2 0x655 JUMPI PUSH1 0x0 SWAP3 PUSH2 0x64A JUMPI JUMPDEST POP POP DUP2 PUSH1 0x1 SHL SWAP2 PUSH1 0x0 NOT SWAP1 PUSH1 0x3 SHL SHR NOT AND OR PUSH1 0x2 DUP3 ADD SSTORE JUMPDEST PUSH1 0x60 DUP6 ADD MLOAD SWAP5 DUP6 MLOAD PUSH8 0xFFFFFFFFFFFFFFFF DUP2 GT PUSH2 0x634 JUMPI PUSH2 0x48F PUSH1 0x3 DUP5 ADD SLOAD PUSH2 0xDB3 JUMP JUMPDEST SWAP7 PUSH1 0x1F DUP9 GT PUSH2 0x5ED JUMPI JUMPDEST PUSH1 0x20 SWAP8 POP DUP8 SWAP1 PUSH1 0x1F DUP4 GT PUSH1 0x1 EQ PUSH2 0x57A JUMPI SWAP2 DUP1 PUSH1 0x5 SWAP5 SWAP3 PUSH1 0xA0 SWAP5 PUSH1 0x0 SWAP3 PUSH2 0x56F JUMPI JUMPDEST POP POP DUP2 PUSH1 0x1 SHL SWAP2 PUSH1 0x0 NOT SWAP1 PUSH1 0x3 SHL SHR NOT AND OR PUSH1 0x3 DUP6 ADD SSTORE JUMPDEST PUSH1 0x80 DUP2 ADD MLOAD PUSH1 0x4 DUP6 ADD SSTORE ADD MLOAD SWAP2 ADD SSTORE PUSH1 0x24 CALLDATALOAD PUSH1 0x0 MSTORE PUSH1 0x8 DUP5 MSTORE PUSH1 0x40 PUSH1 0x0 KECCAK256 PUSH1 0x1 PUSH1 0xFF NOT DUP3 SLOAD AND OR SWAP1 SSTORE PUSH1 0x40 MLOAD SWAP2 DUP4 DUP3 DUP3 AND PUSH1 0x0 PUSH32 0xDDF252AD1BE2C89B69C2B068FC378DAA952BA7F163C4A11628F55A4DF523B3EF DUP2 DUP1 LOG4 AND DUP2 MSTORE PUSH1 0xA4 CALLDATALOAD DUP4 DUP3 ADD MSTORE TIMESTAMP PUSH1 0x40 DUP3 ADD MSTORE PUSH1 0x44 CALLDATALOAD SWAP1 DUP3 PUSH32 0xBADC2EE0E723F8EDE275D7503E3B04036DB20A397423E1B392488EBB76272351 PUSH1 0x60 PUSH1 0x24 CALLDATALOAD SWAP4 LOG4 PUSH1 0x40 MLOAD SWAP1 DUP2 MSTORE RETURN JUMPDEST ADD MLOAD SWAP1 POP DUP11 DUP1 PUSH2 0x4BB JUMP JUMPDEST SWAP1 PUSH1 0x3 DUP6 ADD PUSH1 0x0 MSTORE DUP9 PUSH1 0x0 KECCAK256 SWAP2 PUSH1 0x0 JUMPDEST PUSH1 0x1F NOT DUP6 AND DUP2 LT PUSH2 0x5D6 JUMPI POP SWAP3 PUSH1 0x5 SWAP5 SWAP3 PUSH1 0x1 SWAP3 PUSH1 0xA0 SWAP6 DUP4 PUSH1 0x1F NOT DUP2 AND LT PUSH2 0x5BD JUMPI JUMPDEST POP POP POP DUP2 SHL ADD PUSH1 0x3 DUP6 ADD SSTORE PUSH2 0x4D3 JUMP JUMPDEST ADD MLOAD PUSH1 0x0 NOT PUSH1 0xF8 DUP5 PUSH1 0x3 SHL AND SHR NOT AND SWAP1 SSTORE DUP11 DUP1 DUP1 PUSH2 0x5AD JUMP JUMPDEST SWAP2 SWAP3 DUP11 PUSH1 0x1 DUP2 SWAP3 DUP7 DUP6 ADD MLOAD DUP2 SSTORE ADD SWAP5 ADD SWAP3 ADD PUSH2 0x58A JUMP JUMPDEST PUSH1 0x3 DUP5 ADD PUSH1 0x0 MSTORE PUSH1 0x20 PUSH1 0x0 KECCAK256 PUSH1 0x1F DUP4 ADD PUSH1 0x5 SHR DUP2 ADD PUSH1 0x20 DUP5 LT PUSH2 0x62D JUMPI JUMPDEST PUSH1 0x1F DUP11 ADD PUSH1 0x5 SHR DUP3 ADD DUP2 LT PUSH2 0x621 JUMPI POP POP PUSH2 0x499 JUMP JUMPDEST PUSH1 0x0 DUP2 SSTORE PUSH1 0x1 ADD PUSH2 0x60B JUMP JUMPDEST POP DUP1 PUSH2 0x60B JUMP JUMPDEST PUSH4 0x4E487B71 PUSH1 0xE0 SHL PUSH1 0x0 MSTORE PUSH1 0x41 PUSH1 0x4 MSTORE PUSH1 0x24 PUSH1 0x0 REVERT JUMPDEST ADD MLOAD SWAP1 POP DUP8 DUP1 PUSH2 0x453 JUMP JUMPDEST SWAP3 POP PUSH1 0x2 DUP5 ADD PUSH1 0x0 MSTORE PUSH1 0x20 PUSH1 0x0 KECCAK256 SWAP1 PUSH1 0x0 SWAP4 JUMPDEST PUSH1 0x1F NOT DUP5 AND DUP6 LT PUSH2 0x6AC JUMPI PUSH1 0x1 SWAP5 POP DUP4 PUSH1 0x1F NOT DUP2 AND LT PUSH2 0x693 JUMPI JUMPDEST POP POP POP DUP2 SHL ADD PUSH1 0x2 DUP3 ADD SSTORE PUSH2 0x46B JUMP JUMPDEST ADD MLOAD PUSH1 0x0 NOT PUSH1 0xF8 DUP5 PUSH1 0x3 SHL AND SHR NOT AND SWAP1 SSTORE DUP8 DUP1 DUP1 PUSH2 0x683 JUMP JUMPDEST DUP2 DUP2 ADD MLOAD DUP4 SSTORE PUSH1 0x20 SWAP5 DUP6 ADD SWAP5 PUSH1 0x1 SWAP1 SWAP4 ADD SWAP3 SWAP1 SWAP2 ADD SWAP1 PUSH2 0x668 JUMP JUMPDEST SWAP1 SWAP2 POP PUSH1 0x2 DUP5 ADD PUSH1 0x0 MSTORE PUSH1 0x20 PUSH1 0x0 KECCAK256 PUSH1 0x1F DUP5 ADD PUSH1 0x5 SHR DUP2 ADD PUSH1 0x20 DUP6 LT PUSH2 0x713 JUMPI JUMPDEST SWAP1 DUP5 SWAP4 SWAP3 SWAP2 JUMPDEST PUSH1 0x1F DUP4 ADD PUSH1 0x5 SHR DUP3 ADD DUP2 LT PUSH2 0x704 JUMPI POP POP PUSH2 0x43C JUMP JUMPDEST PUSH1 0x0 DUP2 SSTORE DUP6 SWAP5 POP PUSH1 0x1 ADD PUSH2 0x6EE JUMP JUMPDEST POP DUP1 PUSH2 0x6E8 JUMP JUMPDEST PUSH4 0x4E487B71 PUSH1 0xE0 SHL PUSH1 0x0 MSTORE PUSH1 0x11 PUSH1 0x4 MSTORE PUSH1 0x24 PUSH1 0x0 REVERT JUMPDEST PUSH1 0x40 MLOAD PUSH3 0x461BCD PUSH1 0xE5 SHL DUP2 MSTORE PUSH1 0x20 PUSH1 0x4 DUP3 ADD MSTORE PUSH1 0x13 PUSH1 0x24 DUP3 ADD MSTORE PUSH19 0x141BDCDD08185B1C9958591E481B5A5B9D1959 PUSH1 0x6A SHL PUSH1 0x44 DUP3 ADD MSTORE PUSH1 0x64 SWAP1 REVERT JUMPDEST PUSH1 0x40 MLOAD PUSH3 0x461BCD PUSH1 0xE5 SHL DUP2 MSTORE PUSH1 0x20 PUSH1 0x4 DUP3 ADD MSTORE PUSH1 0x16 PUSH1 0x24 DUP3 ADD MSTORE PUSH22 0x506F73742069642063616E6E6F74206265207A65726F PUSH1 0x50 SHL PUSH1 0x44 DUP3 ADD MSTORE PUSH1 0x64 SWAP1 REVERT JUMPDEST PUSH1 0x40 MLOAD PUSH3 0x461BCD PUSH1 0xE5 SHL DUP2 MSTORE PUSH1 0x20 PUSH1 0x4 DUP3 ADD MSTORE PUSH1 0x18 PUSH1 0x24 DUP3 ADD MSTORE PUSH32 0x526563697069656E742063616E6E6F74206265207A65726F0000000000000000 PUSH1 0x44 DUP3 ADD MSTORE PUSH1 0x64 SWAP1 REVERT JUMPDEST CALLVALUE PUSH2 0x180 JUMPI PUSH1 0x20 CALLDATASIZE PUSH1 0x3 NOT ADD SLT PUSH2 0x180 JUMPI PUSH1 0x4 CALLDATALOAD PUSH1 0x0 MSTORE PUSH1 0x7 PUSH1 0x20 MSTORE PUSH1 0x40 PUSH1 0x0 KECCAK256 DUP1 SLOAD PUSH1 0x1 DUP3 ADD SLOAD SWAP2 PUSH2 0x823 PUSH1 0x2 DUP3 ADD PUSH2 0xE2B JUMP JUMPDEST PUSH2 0x86C PUSH2 0x832 PUSH1 0x3 DUP5 ADD PUSH2 0xE2B JUMP JUMPDEST PUSH2 0x85E PUSH1 0x5 PUSH1 0x4 DUP7 ADD SLOAD SWAP6 ADD SLOAD SWAP4 PUSH1 0x40 MLOAD SWAP8 DUP9 SWAP8 DUP9 MSTORE PUSH1 0x20 DUP9 ADD MSTORE PUSH1 0xC0 PUSH1 0x40 DUP9 ADD MSTORE PUSH1 0xC0 DUP8 ADD SWAP1 PUSH2 0xED1 JUMP JUMPDEST SWAP1 DUP6 DUP3 SUB PUSH1 0x60 DUP8 ADD MSTORE PUSH2 0xED1 JUMP JUMPDEST SWAP2 PUSH1 0x80 DUP5 ADD MSTORE PUSH1 0xA0 DUP4 ADD MSTORE SUB SWAP1 RETURN JUMPDEST CALLVALUE PUSH2 0x180 JUMPI PUSH1 0x0 CALLDATASIZE PUSH1 0x3 NOT ADD SLT PUSH2 0x180 JUMPI PUSH1 0x40 MLOAD PUSH1 0x0 PUSH1 0x1 DUP1 SLOAD SWAP1 PUSH2 0x89F DUP3 PUSH2 0xDB3 JUMP JUMPDEST DUP1 DUP6 MSTORE SWAP2 DUP2 DUP2 AND SWAP1 DUP2 ISZERO PUSH2 0x937 JUMPI POP PUSH1 0x1 EQ PUSH2 0x8DE JUMPI JUMPDEST PUSH2 0x8DA DUP5 PUSH2 0x8C6 DUP2 DUP7 SUB DUP3 PUSH2 0xE09 JUMP JUMPDEST PUSH1 0x40 MLOAD SWAP2 DUP3 SWAP2 PUSH1 0x20 DUP4 MSTORE PUSH1 0x20 DUP4 ADD SWAP1 PUSH2 0xED1 JUMP JUMPDEST SUB SWAP1 RETURN JUMPDEST PUSH1 0x0 DUP2 DUP2 MSTORE SWAP3 POP PUSH32 0xB10E2D527612073B26EECDFD717E6A320CF44B4AFAC2B0732D9FCBE2B7FA0CF6 JUMPDEST DUP3 DUP5 LT PUSH2 0x91F JUMPI POP POP POP DUP2 ADD PUSH1 0x20 ADD PUSH2 0x8C6 DUP3 PUSH2 0x8B6 JUMP JUMPDEST DUP1 SLOAD PUSH1 0x20 DUP6 DUP8 ADD DUP2 ADD SWAP2 SWAP1 SWAP2 MSTORE SWAP1 SWAP4 ADD SWAP3 DUP2 ADD PUSH2 0x907 JUMP JUMPDEST PUSH1 0xFF NOT AND PUSH1 0x20 DUP1 DUP8 ADD SWAP2 SWAP1 SWAP2 MSTORE SWAP3 ISZERO ISZERO PUSH1 0x5 SHL DUP6 ADD SWAP1 SWAP3 ADD SWAP3 POP PUSH2 0x8C6 SWAP2 POP DUP4 SWAP1 POP PUSH2 0x8B6 JUMP JUMPDEST CALLVALUE PUSH2 0x180 JUMPI PUSH1 0x0 CALLDATASIZE PUSH1 0x3 NOT ADD SLT PUSH2 0x180 JUMPI PUSH1 0x9 SLOAD PUSH1 0x40 MLOAD PUSH1 0x1 PUSH1 0x1 PUSH1 0xA0 SHL SUB SWAP1 SWAP2 AND DUP2 MSTORE PUSH1 0x20 SWAP1 RETURN JUMPDEST CALLVALUE PUSH2 0x180 JUMPI PUSH1 0x20 CALLDATASIZE PUSH1 0x3 NOT ADD SLT PUSH2 0x180 JUMPI PUSH1 0x1 PUSH1 0x1 PUSH1 0xA0 SHL SUB PUSH2 0x9A8 PUSH2 0xF11 JUMP JUMPDEST AND DUP1 ISZERO PUSH2 0x9C7 JUMPI PUSH1 0x0 MSTORE PUSH1 0x4 PUSH1 0x20 MSTORE PUSH1 0x20 PUSH1 0x40 PUSH1 0x0 KECCAK256 SLOAD PUSH1 0x40 MLOAD SWAP1 DUP2 MSTORE RETURN JUMPDEST PUSH1 0x40 MLOAD PUSH3 0x461BCD PUSH1 0xE5 SHL DUP2 MSTORE PUSH1 0x20 PUSH1 0x4 DUP3 ADD MSTORE PUSH1 0xC PUSH1 0x24 DUP3 ADD MSTORE PUSH12 0x5A65726F2061646472657373 PUSH1 0xA0 SHL PUSH1 0x44 DUP3 ADD MSTORE PUSH1 0x64 SWAP1 REVERT JUMPDEST CALLVALUE PUSH2 0x180 JUMPI PUSH1 0x20 CALLDATASIZE PUSH1 0x3 NOT ADD SLT PUSH2 0x180 JUMPI PUSH1 0x20 PUSH2 0xA19 PUSH1 0x4 CALLDATALOAD PUSH2 0xFE3 JUMP JUMPDEST PUSH1 0x40 MLOAD PUSH1 0x1 PUSH1 0x1 PUSH1 0xA0 SHL SUB SWAP1 SWAP2 AND DUP2 MSTORE RETURN JUMPDEST CALLVALUE PUSH2 0x180 JUMPI PUSH1 0x20 DUP1 PUSH1 0x3 NOT CALLDATASIZE ADD SLT PUSH2 0x180 JUMPI PUSH1 0x4 CALLDATALOAD PUSH1 0x0 PUSH1 0xA0 PUSH1 0x40 MLOAD PUSH2 0xA50 DUP2 PUSH2 0xDED JUMP JUMPDEST DUP3 DUP2 MSTORE DUP3 DUP6 DUP3 ADD MSTORE PUSH1 0x60 PUSH1 0x40 DUP3 ADD MSTORE PUSH1 0x60 DUP1 DUP3 ADD MSTORE DUP3 PUSH1 0x80 DUP3 ADD MSTORE ADD MSTORE DUP1 PUSH1 0x0 MSTORE PUSH1 0x3 DUP3 MSTORE PUSH2 0xA8D PUSH1 0x1 DUP1 PUSH1 0xA0 SHL SUB PUSH1 0x40 PUSH1 0x0 KECCAK256 SLOAD AND ISZERO ISZERO PUSH2 0xFA0 JUMP JUMPDEST PUSH1 0x0 MSTORE PUSH1 0x7 DUP2 MSTORE PUSH1 0x40 PUSH1 0x0 KECCAK256 PUSH1 0x40 MLOAD SWAP1 PUSH2 0xAA6 DUP3 PUSH2 0xDED JUMP JUMPDEST DUP1 SLOAD DUP3 MSTORE PUSH1 0x1 DUP2 ADD SLOAD DUP4 DUP4 ADD SWAP1 DUP2 MSTORE PUSH2 0xB34 PUSH2 0xAC4 PUSH1 0x2 DUP5 ADD PUSH2 0xE2B JUMP JUMPDEST PUSH1 0x40 DUP6 ADD SWAP1 DUP2 MSTORE PUSH2 0xB21 PUSH2 0xADA PUSH1 0x3 DUP7 ADD PUSH2 0xE2B JUMP JUMPDEST SWAP2 PUSH1 0x60 DUP8 ADD SWAP3 DUP4 MSTORE PUSH1 0x5 PUSH1 0x4 DUP8 ADD SLOAD SWAP7 PUSH1 0x80 DUP10 ADD SWAP8 DUP9 MSTORE ADD SLOAD SWAP5 PUSH1 0xA0 DUP9 ADD SWAP6 DUP7 MSTORE PUSH1 0x40 MLOAD SWAP9 DUP10 SWAP9 DUP2 DUP11 MSTORE MLOAD SWAP1 DUP10 ADD MSTORE MLOAD PUSH1 0x40 DUP9 ADD MSTORE MLOAD PUSH1 0xC0 PUSH1 0x60 DUP9 ADD MSTORE PUSH1 0xE0 DUP8 ADD SWAP1 PUSH2 0xED1 JUMP JUMPDEST SWAP1 MLOAD DUP6 DUP3 SUB PUSH1 0x1F NOT ADD PUSH1 0x80 DUP8 ADD MSTORE PUSH2 0xED1 JUMP JUMPDEST SWAP2 MLOAD PUSH1 0xA0 DUP5 ADD MSTORE MLOAD PUSH1 0xC0 DUP4 ADD MSTORE SUB SWAP1 RETURN JUMPDEST CALLVALUE PUSH2 0x180 JUMPI PUSH2 0x22C PUSH2 0xB56 CALLDATASIZE PUSH2 0xF3D JUMP JUMPDEST SWAP2 PUSH2 0x1046 JUMP JUMPDEST CALLVALUE PUSH2 0x180 JUMPI PUSH1 0x20 CALLDATASIZE PUSH1 0x3 NOT ADD SLT PUSH2 0x180 JUMPI PUSH1 0x4 CALLDATALOAD PUSH1 0x0 MSTORE PUSH1 0x8 PUSH1 0x20 MSTORE PUSH1 0x20 PUSH1 0xFF PUSH1 0x40 PUSH1 0x0 KECCAK256 SLOAD AND PUSH1 0x40 MLOAD SWAP1 ISZERO ISZERO DUP2 MSTORE RETURN JUMPDEST CALLVALUE PUSH2 0x180 JUMPI PUSH1 0x0 CALLDATASIZE PUSH1 0x3 NOT ADD SLT PUSH2 0x180 JUMPI PUSH1 0x2 SLOAD PUSH1 0x0 NOT DUP2 ADD SWAP1 DUP2 GT PUSH2 0x71A JUMPI PUSH1 0x20 SWAP1 PUSH1 0x40 MLOAD SWAP1 DUP2 MSTORE RETURN JUMPDEST CALLVALUE PUSH2 0x180 JUMPI PUSH1 0x40 CALLDATASIZE PUSH1 0x3 NOT ADD SLT PUSH2 0x180 JUMPI PUSH2 0xBD1 PUSH2 0xF11 JUMP JUMPDEST PUSH1 0x24 CALLDATALOAD SWAP1 PUSH1 0x1 PUSH1 0x1 PUSH1 0xA0 SHL SUB DUP1 PUSH2 0xBE7 DUP5 PUSH2 0xFE3 JUMP JUMPDEST AND SWAP1 DUP2 CALLER EQ DUP1 ISZERO PUSH2 0xC46 JUMPI JUMPDEST PUSH2 0xBFC SWAP1 PUSH2 0x1009 JUMP JUMPDEST DUP4 PUSH1 0x0 MSTORE PUSH1 0x5 PUSH1 0x20 MSTORE PUSH1 0x40 PUSH1 0x0 KECCAK256 SWAP3 AND SWAP2 DUP3 PUSH1 0x1 PUSH1 0x1 PUSH1 0x60 SHL SUB PUSH1 0xA0 SHL DUP3 SLOAD AND OR SWAP1 SSTORE PUSH32 0x8C5BE1E5EBEC7D5BD14F71427D1E84F3DD0314C0F7B2291E5B200AC8C7C3B925 PUSH1 0x0 DUP1 LOG4 STOP JUMPDEST POP DUP2 PUSH1 0x0 MSTORE PUSH1 0x6 PUSH1 0x20 MSTORE PUSH1 0x40 PUSH1 0x0 KECCAK256 CALLER PUSH1 0x0 MSTORE PUSH1 0x20 MSTORE PUSH2 0xBFC PUSH1 0xFF PUSH1 0x40 PUSH1 0x0 KECCAK256 SLOAD AND SWAP1 POP PUSH2 0xBF3 JUMP JUMPDEST CALLVALUE PUSH2 0x180 JUMPI PUSH1 0x20 CALLDATASIZE PUSH1 0x3 NOT ADD SLT PUSH2 0x180 JUMPI PUSH1 0x20 PUSH1 0x4 CALLDATALOAD DUP1 PUSH1 0x0 MSTORE PUSH1 0x3 DUP3 MSTORE PUSH1 0x1 DUP1 PUSH1 0xA0 SHL SUB SWAP1 PUSH2 0xCA7 DUP3 PUSH1 0x40 PUSH1 0x0 KECCAK256 SLOAD AND ISZERO ISZERO PUSH2 0xFA0 JUMP JUMPDEST PUSH1 0x0 MSTORE PUSH1 0x5 DUP3 MSTORE PUSH1 0x40 PUSH1 0x0 KECCAK256 SLOAD AND PUSH1 0x40 MLOAD SWAP1 DUP2 MSTORE RETURN JUMPDEST CALLVALUE PUSH2 0x180 JUMPI PUSH1 0x0 CALLDATASIZE PUSH1 0x3 NOT ADD SLT PUSH2 0x180 JUMPI PUSH1 0x40 MLOAD PUSH1 0x0 DUP1 SLOAD PUSH2 0xCDE DUP2 PUSH2 0xDB3 JUMP JUMPDEST DUP1 DUP5 MSTORE SWAP1 PUSH1 0x1 SWAP1 DUP2 DUP2 AND SWAP1 DUP2 ISZERO PUSH2 0x937 JUMPI POP PUSH1 0x1 EQ PUSH2 0xD07 JUMPI PUSH2 0x8DA DUP5 PUSH2 0x8C6 DUP2 DUP7 SUB DUP3 PUSH2 0xE09 JUMP JUMPDEST PUSH1 0x0 DUP1 DUP1 MSTORE SWAP3 POP PUSH32 0x290DECD9548B62A8D60345A988386FC84BA6BC95484008F6362F93160EF3E563 JUMPDEST DUP3 DUP5 LT PUSH2 0xD48 JUMPI POP POP POP DUP2 ADD PUSH1 0x20 ADD PUSH2 0x8C6 DUP3 PUSH2 0x8B6 JUMP JUMPDEST DUP1 SLOAD PUSH1 0x20 DUP6 DUP8 ADD DUP2 ADD SWAP2 SWAP1 SWAP2 MSTORE SWAP1 SWAP4 ADD SWAP3 DUP2 ADD PUSH2 0xD30 JUMP JUMPDEST CALLVALUE PUSH2 0x180 JUMPI PUSH1 0x20 CALLDATASIZE PUSH1 0x3 NOT ADD SLT PUSH2 0x180 JUMPI PUSH1 0x4 CALLDATALOAD SWAP1 PUSH4 0xFFFFFFFF PUSH1 0xE0 SHL DUP3 AND DUP1 SWAP3 SUB PUSH2 0x180 JUMPI PUSH1 0x20 SWAP2 PUSH4 0x80AC58CD PUSH1 0xE0 SHL DUP2 EQ SWAP1 DUP2 ISZERO PUSH2 0xDA2 JUMPI JUMPDEST POP ISZERO ISZERO DUP2 MSTORE RETURN JUMPDEST PUSH4 0x1FFC9A7 PUSH1 0xE0 SHL EQ SWAP1 POP DUP4 PUSH2 0xD9B JUMP JUMPDEST SWAP1 PUSH1 0x1 DUP3 DUP2 SHR SWAP3 AND DUP1 ISZERO PUSH2 0xDE3 JUMPI JUMPDEST PUSH1 0x20 DUP4 LT EQ PUSH2 0xDCD JUMPI JUMP JUMPDEST PUSH4 0x4E487B71 PUSH1 0xE0 SHL PUSH1 0x0 MSTORE PUSH1 0x22 PUSH1 0x4 MSTORE PUSH1 0x24 PUSH1 0x0 REVERT JUMPDEST SWAP2 PUSH1 0x7F AND SWAP2 PUSH2 0xDC2 JUMP JUMPDEST PUSH1 0xC0 DUP2 ADD SWAP1 DUP2 LT PUSH8 0xFFFFFFFFFFFFFFFF DUP3 GT OR PUSH2 0x634 JUMPI PUSH1 0x40 MSTORE JUMP JUMPDEST SWAP1 PUSH1 0x1F DUP1 NOT SWAP2 ADD AND DUP2 ADD SWAP1 DUP2 LT PUSH8 0xFFFFFFFFFFFFFFFF DUP3 GT OR PUSH2 0x634 JUMPI PUSH1 0x40 MSTORE JUMP JUMPDEST SWAP1 PUSH1 0x40 MLOAD SWAP2 DUP3 PUSH1 0x0 DUP3 SLOAD SWAP3 PUSH2 0xE3F DUP5 PUSH2 0xDB3 JUMP JUMPDEST SWAP1 DUP2 DUP5 MSTORE PUSH1 0x1 SWAP5 DUP6 DUP2 AND SWAP1 DUP2 PUSH1 0x0 EQ PUSH2 0xEAE JUMPI POP PUSH1 0x1 EQ PUSH2 0xE6B JUMPI JUMPDEST POP POP PUSH2 0xE69 SWAP3 POP SUB DUP4 PUSH2 0xE09 JUMP JUMPDEST JUMP JUMPDEST SWAP1 SWAP4 SWAP2 POP PUSH1 0x0 MSTORE PUSH1 0x20 SWAP1 DUP2 PUSH1 0x0 KECCAK256 SWAP4 PUSH1 0x0 SWAP2 JUMPDEST DUP2 DUP4 LT PUSH2 0xE96 JUMPI POP POP PUSH2 0xE69 SWAP4 POP DUP3 ADD ADD CODESIZE DUP1 PUSH2 0xE5B JUMP JUMPDEST DUP6 SLOAD DUP9 DUP5 ADD DUP6 ADD MSTORE SWAP5 DUP6 ADD SWAP5 DUP8 SWAP5 POP SWAP2 DUP4 ADD SWAP2 PUSH2 0xE7E JUMP JUMPDEST SWAP2 POP POP PUSH2 0xE69 SWAP5 POP PUSH1 0x20 SWAP3 POP PUSH1 0xFF NOT AND DUP3 DUP5 ADD MSTORE ISZERO ISZERO PUSH1 0x5 SHL DUP3 ADD ADD CODESIZE DUP1 PUSH2 0xE5B JUMP JUMPDEST SWAP2 SWAP1 DUP3 MLOAD SWAP3 DUP4 DUP3 MSTORE PUSH1 0x0 JUMPDEST DUP5 DUP2 LT PUSH2 0xEFD JUMPI POP POP DUP3 PUSH1 0x0 PUSH1 0x20 DUP1 SWAP5 SWAP6 DUP5 ADD ADD MSTORE PUSH1 0x1F DUP1 NOT SWAP2 ADD AND ADD ADD SWAP1 JUMP JUMPDEST PUSH1 0x20 DUP2 DUP4 ADD DUP2 ADD MLOAD DUP5 DUP4 ADD DUP3 ADD MSTORE ADD PUSH2 0xEDC JUMP JUMPDEST PUSH1 0x4 CALLDATALOAD SWAP1 PUSH1 0x1 PUSH1 0x1 PUSH1 0xA0 SHL SUB DUP3 AND DUP3 SUB PUSH2 0x180 JUMPI JUMP JUMPDEST PUSH1 0x24 CALLDATALOAD SWAP1 PUSH1 0x1 PUSH1 0x1 PUSH1 0xA0 SHL SUB DUP3 AND DUP3 SUB PUSH2 0x180 JUMPI JUMP JUMPDEST PUSH1 0x60 SWAP1 PUSH1 0x3 NOT ADD SLT PUSH2 0x180 JUMPI PUSH1 0x1 PUSH1 0x1 PUSH1 0xA0 SHL SUB SWAP1 PUSH1 0x4 CALLDATALOAD DUP3 DUP2 AND DUP2 SUB PUSH2 0x180 JUMPI SWAP2 PUSH1 0x24 CALLDATALOAD SWAP1 DUP2 AND DUP2 SUB PUSH2 0x180 JUMPI SWAP1 PUSH1 0x44 CALLDATALOAD SWAP1 JUMP JUMPDEST SWAP2 DUP2 PUSH1 0x1F DUP5 ADD SLT ISZERO PUSH2 0x180 JUMPI DUP3 CALLDATALOAD SWAP2 PUSH8 0xFFFFFFFFFFFFFFFF DUP4 GT PUSH2 0x180 JUMPI PUSH1 0x20 DUP4 DUP2 DUP7 ADD SWAP6 ADD ADD GT PUSH2 0x180 JUMPI JUMP JUMPDEST ISZERO PUSH2 0xFA7 JUMPI JUMP JUMPDEST PUSH1 0x40 MLOAD PUSH3 0x461BCD PUSH1 0xE5 SHL DUP2 MSTORE PUSH1 0x20 PUSH1 0x4 DUP3 ADD MSTORE PUSH1 0x14 PUSH1 0x24 DUP3 ADD MSTORE PUSH20 0x151BDAD95B88191BD95CC81B9BDD08195E1A5CDD PUSH1 0x62 SHL PUSH1 0x44 DUP3 ADD MSTORE PUSH1 0x64 SWAP1 REVERT JUMPDEST PUSH1 0x0 SWAP1 DUP2 MSTORE PUSH1 0x3 PUSH1 0x20 MSTORE PUSH1 0x40 SWAP1 KECCAK256 SLOAD PUSH1 0x1 PUSH1 0x1 PUSH1 0xA0 SHL SUB AND PUSH2 0x1006 DUP2 ISZERO ISZERO PUSH2 0xFA0 JUMP JUMPDEST SWAP1 JUMP JUMPDEST ISZERO PUSH2 0x1010 JUMPI JUMP JUMPDEST PUSH1 0x40 MLOAD PUSH3 0x461BCD PUSH1 0xE5 SHL DUP2 MSTORE PUSH1 0x20 PUSH1 0x4 DUP3 ADD MSTORE PUSH1 0xE PUSH1 0x24 DUP3 ADD MSTORE PUSH14 0x139BDD08185D5D1A1BDC9A5E9959 PUSH1 0x92 SHL PUSH1 0x44 DUP3 ADD MSTORE PUSH1 0x64 SWAP1 REVERT JUMPDEST PUSH1 0x1 PUSH1 0x1 PUSH1 0xA0 SHL SUB SWAP2 DUP3 AND SWAP2 SWAP1 DUP3 ISZERO PUSH2 0x11AC JUMPI DUP2 DUP1 PUSH2 0x1064 DUP7 PUSH2 0xFE3 JUMP JUMPDEST AND SWAP2 AND SWAP2 DUP2 DUP4 SUB PUSH2 0x1173 JUMPI DUP2 CALLER EQ SWAP1 DUP2 ISZERO PUSH2 0x1158 JUMPI JUMPDEST POP DUP1 ISZERO PUSH2 0x1132 JUMPI JUMPDEST PUSH2 0x108C SWAP2 POP PUSH2 0x1009 JUMP JUMPDEST PUSH1 0x0 DUP4 DUP2 MSTORE PUSH1 0x5 PUSH1 0x20 MSTORE PUSH1 0x40 DUP2 KECCAK256 PUSH1 0x1 PUSH1 0x1 PUSH1 0x60 SHL SUB PUSH1 0xA0 SHL SWAP1 DUP2 DUP2 SLOAD AND SWAP1 SSTORE DUP3 DUP3 MSTORE PUSH1 0x4 PUSH1 0x20 MSTORE PUSH1 0x40 DUP3 KECCAK256 DUP1 SLOAD SWAP1 PUSH1 0x0 NOT DUP3 ADD SWAP2 DUP3 GT PUSH2 0x111E JUMPI SSTORE DUP4 DUP3 MSTORE PUSH1 0x4 PUSH1 0x20 MSTORE PUSH1 0x40 DUP3 KECCAK256 DUP1 SLOAD SWAP1 PUSH1 0x1 DUP3 ADD DUP1 SWAP3 GT PUSH2 0x111E JUMPI SSTORE DUP5 DUP3 MSTORE PUSH1 0x3 PUSH1 0x20 MSTORE PUSH1 0x40 DUP3 KECCAK256 DUP1 SLOAD SWAP1 SWAP2 AND DUP5 OR SWAP1 SSTORE PUSH32 0xDDF252AD1BE2C89B69C2B068FC378DAA952BA7F163C4A11628F55A4DF523B3EF SWAP1 DUP1 LOG4 JUMP JUMPDEST PUSH4 0x4E487B71 PUSH1 0xE0 SHL DUP5 MSTORE PUSH1 0x11 PUSH1 0x4 MSTORE PUSH1 0x24 DUP5 REVERT JUMPDEST POP PUSH1 0x0 MSTORE PUSH1 0x6 PUSH1 0x20 MSTORE PUSH1 0x40 PUSH1 0x0 KECCAK256 CALLER PUSH1 0x0 MSTORE PUSH1 0x20 MSTORE PUSH2 0x108C PUSH1 0xFF PUSH1 0x40 PUSH1 0x0 KECCAK256 SLOAD AND PUSH2 0x1082 JUMP JUMPDEST SWAP1 POP DUP5 PUSH1 0x0 MSTORE PUSH1 0x5 PUSH1 0x20 MSTORE CALLER SWAP1 PUSH1 0x40 PUSH1 0x0 KECCAK256 SLOAD AND EQ CODESIZE PUSH2 0x107A JUMP JUMPDEST PUSH1 0x40 MLOAD PUSH3 0x461BCD PUSH1 0xE5 SHL DUP2 MSTORE PUSH1 0x20 PUSH1 0x4 DUP3 ADD MSTORE PUSH1 0x11 PUSH1 0x24 DUP3 ADD MSTORE PUSH17 0x233937B69034B9903737BA1037BBB732B9 PUSH1 0x79 SHL PUSH1 0x44 DUP3 ADD MSTORE PUSH1 0x64 SWAP1 REVERT JUMPDEST PUSH1 0x40 MLOAD PUSH3 0x461BCD PUSH1 0xE5 SHL DUP2 MSTORE PUSH1 0x20 PUSH1 0x4 DUP3 ADD MSTORE PUSH1 0x18 PUSH1 0x24 DUP3 ADD MSTORE PUSH32 0x5472616E7366657220746F207A65726F20616464726573730000000000000000 PUSH1 0x44 DUP3 ADD MSTORE PUSH1 0x64 SWAP1 REVERT JUMPDEST ISZERO PUSH2 0x11F8 JUMPI JUMP JUMPDEST PUSH1 0x40 MLOAD PUSH3 0x461BCD PUSH1 0xE5 SHL DUP2 MSTORE PUSH1 0x20 PUSH1 0x4 DUP3 ADD MSTORE PUSH1 0x17 PUSH1 0x24 DUP3 ADD MSTORE PUSH32 0x43616C6C6572206973206E6F7420746865206F776E6572000000000000000000 PUSH1 0x44 DUP3 ADD MSTORE PUSH1 0x64 SWAP1 REVERT JUMPDEST SWAP3 SWAP2 SWAP3 PUSH8 0xFFFFFFFFFFFFFFFF DUP3 GT PUSH2 0x634 JUMPI PUSH1 0x40 MLOAD SWAP2 PUSH2 0x1267 PUSH1 0x1F DUP3 ADD PUSH1 0x1F NOT AND PUSH1 0x20 ADD DUP5 PUSH2 0xE09 JUMP JUMPDEST DUP3 SWAP5 DUP2 DUP5 MSTORE DUP2 DUP4 ADD GT PUSH2 0x180 JUMPI DUP3 DUP2 PUSH1 0x20 SWAP4 DUP5 PUSH1 0x0 SWAP7 ADD CALLDATACOPY ADD ADD MSTORE JUMP INVALID LOG2 PUSH5 0x6970667358 0x22 SLT KECCAK256 0xAC MULMOD 0xB1 PUSH25 0xF3DA8F063519693E1D5F88C43DB1E2D94AF2ECD0A2054C6F2A DUP4 AND PREVRANDAO PUSH5 0x736F6C6343 STOP ADDMOD EQ STOP CALLER "},"methodIdentifiers":{"approve(address,uint256)":"095ea7b3","balanceOf(address)":"70a08231","getApproved(uint256)":"081812fc","getMoment(uint256)":"557a2d20","isApprovedForAll(address,address)":"e985e9c5","mintMoment(address,uint256,uint256,string,string,bytes32)":"9eb1c1d6","moments(uint256)":"9c4ff9c7","name()":"06fdde03","owner()":"8da5cb5b","ownerOf(uint256)":"6352211e","postMinted(uint256)":"2ab3e7ee","safeTransferFrom(address,address,uint256)":"42842e0e","safeTransferFrom(address,address,uint256,bytes)":"b88d4fde","setApprovalForAll(address,bool)":"a22cb465","supportsInterface(bytes4)":"01ffc9a7","symbol()":"95d89b41","totalSupply()":"18160ddd","transferFrom(address,address,uint256)":"23b872dd","transferOwnership(address)":"f2fde38b"}}}}}