{"contracts/PostProofRegistry.sol":{"PostProofRegistry":{"abi":[{"inputs":[],"stateMutability":"nonpayable","type":"constructor"},{"anonymous":false,"inputs":[{"indexed":true,"internalType":"address","name":"previousOwner","type":"address"},{"indexed":true,"internalType":"address","name":"newOwner","type":"address"}],"name":"OwnershipTransferred","type":"event"},{"anonymous":false,"inputs":[{"indexed":true,"internalType":"uint256","name":"appPostId","type":"uint256"},{"indexed":true,"internalType":"uint256","name":"authorUserId","type":"uint256"},{"indexed":true,"internalType":"bytes32","name":"contentHash","type":"bytes32"},{"indexed":false,"internalType":"string","name":"authorUsername","type":"string"},{"indexed":false,"internalType":"bytes32","name":"imageHash","type":"bytes32"},{"indexed":false,"internalType":"string","name":"imageUrl","type":"string"},{"indexed":false,"internalType":"uint256","name":"appCreatedAt","type":"uint256"},{"indexed":false,"internalType":"uint256","name":"attestedAt","type":"uint256"},{"indexed":false,"internalType":"address","name":"attestedBy","type":"address"}],"name":"PostProofRecorded","type":"event"},{"inputs":[{"internalType":"uint256","name":"appPostId","type":"uint256"}],"name":"getPostProof","outputs":[{"components":[{"internalType":"uint256","name":"appPostId","type":"uint256"},{"internalType":"uint256","name":"authorUserId","type":"uint256"},{"internalType":"string","name":"authorUsername","type":"string"},{"internalType":"bytes32","name":"imageHash","type":"bytes32"},{"internalType":"bytes32","name":"contentHash","type":"bytes32"},{"internalType":"string","name":"imageUrl","type":"string"},{"internalType":"uint256","name":"appCreatedAt","type":"uint256"},{"internalType":"uint256","name":"attestedAt","type":"uint256"},{"internalType":"address","name":"attestedBy","type":"address"},{"internalType":"bool","name":"exists","type":"bool"}],"internalType":"struct PostProofRegistry.PostProof","name":"proof","type":"tuple"}],"stateMutability":"view","type":"function"},{"inputs":[],"name":"owner","outputs":[{"internalType":"address","name":"","type":"address"}],"stateMutability":"view","type":"function"},{"inputs":[{"internalType":"uint256","name":"appPostId","type":"uint256"},{"internalType":"uint256","name":"authorUserId","type":"uint256"},{"internalType":"string","name":"authorUsername","type":"string"},{"internalType":"bytes32","name":"imageHash","type":"bytes32"},{"internalType":"bytes32","name":"contentHash","type":"bytes32"},{"internalType":"string","name":"imageUrl","type":"string"},{"internalType":"uint256","name":"appCreatedAt","type":"uint256"}],"name":"recordPostProof","outputs":[],"stateMutability":"nonpayable","type":"function"},{"inputs":[{"internalType":"address","name":"newOwner","type":"address"}],"name":"transferOwnership","outputs":[],"stateMutability":"nonpayable","type":"function"}],"evm":{"bytecode":{"linkReferences":{},"object":"6080806040523461004f57600080546001600160a01b031916339081178255907f8be0079c531659141344cd1fd0a4f28419497f9722a3daafe3b4186f6b6457e08180a3610c3b90816100558239f35b600080fdfe608080604052600436101561001357600080fd5b60003560e01c90816335ac2dde146107d95750806343ef8fe9146101335780638da5cb5b1461010a5763f2fde38b1461004b57600080fd5b34610105576020366003190112610105576004356001600160a01b038181169182900361010557600054908116610083813314610a32565b82156100c05782907f8be0079c531659141344cd1fd0a4f28419497f9722a3daafe3b4186f6b6457e0600080a36001600160a01b03191617600055005b60405162461bcd60e51b815260206004820152601860248201527f4e6577206f776e65722063616e6e6f74206265207a65726f00000000000000006044820152606490fd5b600080fd5b34610105576000366003190112610105576000546040516001600160a01b039091168152602090f35b346101055760e03660031901126101055760443567ffffffffffffffff811161010557610164903690600401610a04565b60a43567ffffffffffffffff811161010557610184903690600401610a04565b61019960018060a01b03600054163314610a32565b6004351561079b5760243515610756578215610711576064918235156106cd57608435156106895781156106455760c4351561060157600435600052600160205260ff60086040600020015460a01c166105bd57604051946101fa86610a7e565b60043586526024356020870152610212368683610abd565b6040870152833560608701526084356080870152610231368484610abd565b60a087015260c43560c08701524260e087015233610100870152600161012087015260043560005260016020526040600020958051875560208101516001880155604081015180519067ffffffffffffffff82116104d757819061029860028b0154610b04565b601f811161056a575b50602090601f83116001146104f8576000926104ed575b50508160011b916000199060031b1c19161760028801555b606081015160038801556080810151600488015560a081015196875167ffffffffffffffff81116104d7576103086005830154610b04565b601f8111610490575b506020601f82116001146104155791816008926103ae9695946103c29b9c60009261040a575b50508160011b916000199060031b1c19161760058201555b60c0830151600682015560e08301516007820155019060018060a01b036101008201511682549161012060ff60a01b910151151560a01b16916affffffffffffffffffffff60a81b16171790556040519660c0885260c0880191610b3e565b923560208601528483036040860152610b3e565b9060c43560608201524260808201523360a0820152608435917f23ae2b148b54e88ccfa82abad5504b855b8d8f255e2e0091a7a6f4c52a72f9e46024359280600435930390a4005b015190508c80610337565b6005830160005260206000209960005b601f19841681106104785750826103c29a9b6103ae97969593600193600896601f1981161061045f575b505050811b01600582015561034f565b015160001960f88460031b161c191690558c808061044f565b828201518c556001909b019a60209283019201610425565b600583016000526020600020601f830160051c8101602084106104d0575b601f830160051c820181106104c4575050610311565b600081556001016104ae565b50806104ae565b634e487b7160e01b600052604160045260246000fd5b0151905089806102b8565b925060028a016000526020600020906000935b601f198416851061054f576001945083601f19811610610536575b505050811b0160028801556102d0565b015160001960f88460031b161c19169055898080610526565b8181015183556020948501946001909301929091019061050b565b90915060028a016000526020600020601f840160051c8101602085106105b6575b90849392915b601f830160051c820181106105a75750506102a1565b60008155859450600101610591565b508061058b565b60405162461bcd60e51b815260206004820152601960248201527f506f73742070726f6f6620616c7265616479206578697374730000000000000060448201528390fd5b60405162461bcd60e51b815260206004820152601d60248201527f4170702074696d657374616d702063616e6e6f7420626520656d70747900000060448201528390fd5b60405162461bcd60e51b815260206004820152601960248201527f496d6167652055524c2063616e6e6f7420626520656d7074790000000000000060448201528390fd5b60405162461bcd60e51b815260206004820152601c60248201527f436f6e74656e7420686173682063616e6e6f7420626520656d7074790000000060448201528390fd5b60405162461bcd60e51b815260206004820152601a60248201527f496d61676520686173682063616e6e6f7420626520656d70747900000000000060448201528390fd5b60405162461bcd60e51b815260206004820152601860248201527f557365726e616d652063616e6e6f7420626520656d70747900000000000000006044820152606490fd5b60405162461bcd60e51b815260206004820152601860248201527f417574686f722069642063616e6e6f74206265207a65726f00000000000000006044820152606490fd5b60405162461bcd60e51b8152602060048201526016602482015275506f73742069642063616e6e6f74206265207a65726f60501b6044820152606490fd5b34610105576020366003190112610105576000610120600435926107fc81610a7e565b82815282602082015260606040820152826060820152826080820152606060a08201528260c08201528260e082015282610100820152015280600052600160205260ff60086040600020015460a01c161561097f576000526001602052604060002060ff60086040519261086f84610a7e565b805484526001810154602085015261088960028201610b5f565b604085015260038101546060850152600481015460808501526108ae60058201610b5f565b60a0850152600681015460c0850152600781015460e0850152015460018060a01b03811661010084015260a01c1615156101208201526040518091602082528051602083015260208101516040830152604081015161012061094b610921610140938460608801526101608701906109c4565b60608501516080870152608085015160a087015260a0850151601f198783030160c08801526109c4565b9260c081015160e086015260e081015161010086015260018060a01b03610100820151168286015201511515908301520390f35b60405162461bcd60e51b815260206004820152601960248201527f506f73742070726f6f6620646f6573206e6f74206578697374000000000000006044820152606490fd5b919082519283825260005b8481106109f0575050826000602080949584010152601f8019910116010190565b6020818301810151848301820152016109cf565b9181601f840112156101055782359167ffffffffffffffff8311610105576020838186019501011161010557565b15610a3957565b60405162461bcd60e51b815260206004820152601760248201527f43616c6c6572206973206e6f7420746865206f776e65720000000000000000006044820152606490fd5b610140810190811067ffffffffffffffff8211176104d757604052565b90601f8019910116810190811067ffffffffffffffff8211176104d757604052565b92919267ffffffffffffffff82116104d75760405191610ae7601f8201601f191660200184610a9b565b829481845281830111610105578281602093846000960137010152565b90600182811c92168015610b34575b6020831014610b1e57565b634e487b7160e01b600052602260045260246000fd5b91607f1691610b13565b908060209392818452848401376000828201840152601f01601f1916010190565b9060405191826000825492610b7384610b04565b908184526001948581169081600014610be25750600114610b9f575b5050610b9d92500383610a9b565b565b9093915060005260209081600020936000915b818310610bca575050610b9d93508201013880610b8f565b85548884018501529485019487945091830191610bb2565b915050610b9d94506020925060ff191682840152151560051b8201013880610b8f56fea26469706673582212208edf4b9e4a2f6de98fa835c86617ec131005fee9ed1b8b1718917f0f32590f9d64736f6c63430008140033","opcodes":"PUSH1 0x80 DUP1 PUSH1 0x40 MSTORE CALLVALUE PUSH2 0x4F JUMPI PUSH1 0x0 DUP1 SLOAD PUSH1 0x1 PUSH1 0x1 PUSH1 0xA0 SHL SUB NOT AND CALLER SWAP1 DUP2 OR DUP3 SSTORE SWAP1 PUSH32 0x8BE0079C531659141344CD1FD0A4F28419497F9722A3DAAFE3B4186F6B6457E0 DUP2 DUP1 LOG3 PUSH2 0xC3B SWAP1 DUP2 PUSH2 0x55 DUP3 CODECOPY RETURN JUMPDEST PUSH1 0x0 DUP1 REVERT INVALID PUSH1 0x80 DUP1 PUSH1 0x40 MSTORE PUSH1 0x4 CALLDATASIZE LT ISZERO PUSH2 0x13 JUMPI PUSH1 0x0 DUP1 REVERT JUMPDEST PUSH1 0x0 CALLDATALOAD PUSH1 0xE0 SHR SWAP1 DUP2 PUSH4 0x35AC2DDE EQ PUSH2 0x7D9 JUMPI POP DUP1 PUSH4 0x43EF8FE9 EQ PUSH2 0x133 JUMPI DUP1 PUSH4 0x8DA5CB5B EQ PUSH2 0x10A JUMPI PUSH4 0xF2FDE38B EQ PUSH2 0x4B JUMPI PUSH1 0x0 DUP1 REVERT JUMPDEST CALLVALUE PUSH2 0x105 JUMPI PUSH1 0x20 CALLDATASIZE PUSH1 0x3 NOT ADD SLT PUSH2 0x105 JUMPI PUSH1 0x4 CALLDATALOAD PUSH1 0x1 PUSH1 0x1 PUSH1 0xA0 SHL SUB DUP2 DUP2 AND SWAP2 DUP3 SWAP1 SUB PUSH2 0x105 JUMPI PUSH1 0x0 SLOAD SWAP1 DUP2 AND PUSH2 0x83 DUP2 CALLER EQ PUSH2 0xA32 JUMP JUMPDEST DUP3 ISZERO PUSH2 0xC0 JUMPI DUP3 SWAP1 PUSH32 0x8BE0079C531659141344CD1FD0A4F28419497F9722A3DAAFE3B4186F6B6457E0 PUSH1 0x0 DUP1 LOG3 PUSH1 0x1 PUSH1 0x1 PUSH1 0xA0 SHL SUB NOT AND OR PUSH1 0x0 SSTORE STOP JUMPDEST PUSH1 0x40 MLOAD PUSH3 0x461BCD PUSH1 0xE5 SHL DUP2 MSTORE PUSH1 0x20 PUSH1 0x4 DUP3 ADD MSTORE PUSH1 0x18 PUSH1 0x24 DUP3 ADD MSTORE PUSH32 0x4E6577206F776E65722063616E6E6F74206265207A65726F0000000000000000 PUSH1 0x44 DUP3 ADD MSTORE PUSH1 0x64 SWAP1 REVERT JUMPDEST PUSH1 0x0 DUP1 REVERT JUMPDEST CALLVALUE PUSH2 0x105 JUMPI PUSH1 0x0 CALLDATASIZE PUSH1 0x3 NOT ADD SLT PUSH2 0x105 JUMPI PUSH1 0x0 SLOAD PUSH1 0x40 MLOAD PUSH1 0x1 PUSH1 0x1 PUSH1 0xA0 SHL SUB SWAP1 SWAP2 AND DUP2 MSTORE PUSH1 0x20 SWAP1 RETURN JUMPDEST CALLVALUE PUSH2 0x105 JUMPI PUSH1 0xE0 CALLDATASIZE PUSH1 0x3 NOT ADD SLT PUSH2 0x105 JUMPI PUSH1 0x44 CALLDATALOAD PUSH8 0xFFFFFFFFFFFFFFFF DUP2 GT PUSH2 0x105 JUMPI PUSH2 0x164 SWAP1 CALLDATASIZE SWAP1 PUSH1 0x4 ADD PUSH2 0xA04 JUMP JUMPDEST PUSH1 0xA4 CALLDATALOAD PUSH8 0xFFFFFFFFFFFFFFFF DUP2 GT PUSH2 0x105 JUMPI PUSH2 0x184 SWAP1 CALLDATASIZE SWAP1 PUSH1 0x4 ADD PUSH2 0xA04 JUMP JUMPDEST PUSH2 0x199 PUSH1 0x1 DUP1 PUSH1 0xA0 SHL SUB PUSH1 0x0 SLOAD AND CALLER EQ PUSH2 0xA32 JUMP JUMPDEST PUSH1 0x4 CALLDATALOAD ISZERO PUSH2 0x79B JUMPI PUSH1 0x24 CALLDATALOAD ISZERO PUSH2 0x756 JUMPI DUP3 ISZERO PUSH2 0x711 JUMPI PUSH1 0x64 SWAP2 DUP3 CALLDATALOAD ISZERO PUSH2 0x6CD JUMPI PUSH1 0x84 CALLDATALOAD ISZERO PUSH2 0x689 JUMPI DUP2 ISZERO PUSH2 0x645 JUMPI PUSH1 0xC4 CALLDATALOAD ISZERO PUSH2 0x601 JUMPI PUSH1 0x4 CALLDATALOAD PUSH1 0x0 MSTORE PUSH1 0x1 PUSH1 0x20 MSTORE PUSH1 0xFF PUSH1 0x8 PUSH1 0x40 PUSH1 0x0 KECCAK256 ADD SLOAD PUSH1 0xA0 SHR AND PUSH2 0x5BD JUMPI PUSH1 0x40 MLOAD SWAP5 PUSH2 0x1FA DUP7 PUSH2 0xA7E JUMP JUMPDEST PUSH1 0x4 CALLDATALOAD DUP7 MSTORE PUSH1 0x24 CALLDATALOAD PUSH1 0x20 DUP8 ADD MSTORE PUSH2 0x212 CALLDATASIZE DUP7 DUP4 PUSH2 0xABD JUMP JUMPDEST PUSH1 0x40 DUP8 ADD MSTORE DUP4 CALLDATALOAD PUSH1 0x60 DUP8 ADD MSTORE PUSH1 0x84 CALLDATALOAD PUSH1 0x80 DUP8 ADD MSTORE PUSH2 0x231 CALLDATASIZE DUP5 DUP5 PUSH2 0xABD JUMP JUMPDEST PUSH1 0xA0 DUP8 ADD MSTORE PUSH1 0xC4 CALLDATALOAD PUSH1 0xC0 DUP8 ADD MSTORE TIMESTAMP PUSH1 0xE0 DUP8 ADD MSTORE CALLER PUSH2 0x100 DUP8 ADD MSTORE PUSH1 0x1 PUSH2 0x120 DUP8 ADD MSTORE PUSH1 0x4 CALLDATALOAD PUSH1 0x0 MSTORE PUSH1 0x1 PUSH1 0x20 MSTORE PUSH1 0x40 PUSH1 0x0 KECCAK256 SWAP6 DUP1 MLOAD DUP8 SSTORE PUSH1 0x20 DUP2 ADD MLOAD PUSH1 0x1 DUP9 ADD SSTORE PUSH1 0x40 DUP2 ADD MLOAD DUP1 MLOAD SWAP1 PUSH8 0xFFFFFFFFFFFFFFFF DUP3 GT PUSH2 0x4D7 JUMPI DUP2 SWAP1 PUSH2 0x298 PUSH1 0x2 DUP12 ADD SLOAD PUSH2 0xB04 JUMP JUMPDEST PUSH1 0x1F DUP2 GT PUSH2 0x56A JUMPI JUMPDEST POP PUSH1 0x20 SWAP1 PUSH1 0x1F DUP4 GT PUSH1 0x1 EQ PUSH2 0x4F8 JUMPI PUSH1 0x0 SWAP3 PUSH2 0x4ED JUMPI JUMPDEST POP POP DUP2 PUSH1 0x1 SHL SWAP2 PUSH1 0x0 NOT SWAP1 PUSH1 0x3 SHL SHR NOT AND OR PUSH1 0x2 DUP9 ADD SSTORE JUMPDEST PUSH1 0x60 DUP2 ADD MLOAD PUSH1 0x3 DUP9 ADD SSTORE PUSH1 0x80 DUP2 ADD MLOAD PUSH1 0x4 DUP9 ADD SSTORE PUSH1 0xA0 DUP2 ADD MLOAD SWAP7 DUP8 MLOAD PUSH8 0xFFFFFFFFFFFFFFFF DUP2 GT PUSH2 0x4D7 JUMPI PUSH2 0x308 PUSH1 0x5 DUP4 ADD SLOAD PUSH2 0xB04 JUMP JUMPDEST PUSH1 0x1F DUP2 GT PUSH2 0x490 JUMPI JUMPDEST POP PUSH1 0x20 PUSH1 0x1F DUP3 GT PUSH1 0x1 EQ PUSH2 0x415 JUMPI SWAP2 DUP2 PUSH1 0x8 SWAP3 PUSH2 0x3AE SWAP7 SWAP6 SWAP5 PUSH2 0x3C2 SWAP12 SWAP13 PUSH1 0x0 SWAP3 PUSH2 0x40A JUMPI JUMPDEST POP POP DUP2 PUSH1 0x1 SHL SWAP2 PUSH1 0x0 NOT SWAP1 PUSH1 0x3 SHL SHR NOT AND OR PUSH1 0x5 DUP3 ADD SSTORE JUMPDEST PUSH1 0xC0 DUP4 ADD MLOAD PUSH1 0x6 DUP3 ADD SSTORE PUSH1 0xE0 DUP4 ADD MLOAD PUSH1 0x7 DUP3 ADD SSTORE ADD SWAP1 PUSH1 0x1 DUP1 PUSH1 0xA0 SHL SUB PUSH2 0x100 DUP3 ADD MLOAD AND DUP3 SLOAD SWAP2 PUSH2 0x120 PUSH1 0xFF PUSH1 0xA0 SHL SWAP2 ADD MLOAD ISZERO ISZERO PUSH1 0xA0 SHL AND SWAP2 PUSH11 0xFFFFFFFFFFFFFFFFFFFFFF PUSH1 0xA8 SHL AND OR OR SWAP1 SSTORE PUSH1 0x40 MLOAD SWAP7 PUSH1 0xC0 DUP9 MSTORE PUSH1 0xC0 DUP9 ADD SWAP2 PUSH2 0xB3E JUMP JUMPDEST SWAP3 CALLDATALOAD PUSH1 0x20 DUP7 ADD MSTORE DUP5 DUP4 SUB PUSH1 0x40 DUP7 ADD MSTORE PUSH2 0xB3E JUMP JUMPDEST SWAP1 PUSH1 0xC4 CALLDATALOAD PUSH1 0x60 DUP3 ADD MSTORE TIMESTAMP PUSH1 0x80 DUP3 ADD MSTORE CALLER PUSH1 0xA0 DUP3 ADD MSTORE PUSH1 0x84 CALLDATALOAD SWAP2 PUSH32 0x23AE2B148B54E88CCFA82ABAD5504B855B8D8F255E2E0091A7A6F4C52A72F9E4 PUSH1 0x24 CALLDATALOAD SWAP3 DUP1 PUSH1 0x4 CALLDATALOAD SWAP4 SUB SWAP1 LOG4 STOP JUMPDEST ADD MLOAD SWAP1 POP DUP13 DUP1 PUSH2 0x337 JUMP JUMPDEST PUSH1 0x5 DUP4 ADD PUSH1 0x0 MSTORE PUSH1 0x20 PUSH1 0x0 KECCAK256 SWAP10 PUSH1 0x0 JUMPDEST PUSH1 0x1F NOT DUP5 AND DUP2 LT PUSH2 0x478 JUMPI POP DUP3 PUSH2 0x3C2 SWAP11 SWAP12 PUSH2 0x3AE SWAP8 SWAP7 SWAP6 SWAP4 PUSH1 0x1 SWAP4 PUSH1 0x8 SWAP7 PUSH1 0x1F NOT DUP2 AND LT PUSH2 0x45F JUMPI JUMPDEST POP POP POP DUP2 SHL ADD PUSH1 0x5 DUP3 ADD SSTORE PUSH2 0x34F JUMP JUMPDEST ADD MLOAD PUSH1 0x0 NOT PUSH1 0xF8 DUP5 PUSH1 0x3 SHL AND SHR NOT AND SWAP1 SSTORE DUP13 DUP1 DUP1 PUSH2 0x44F JUMP JUMPDEST DUP3 DUP3 ADD MLOAD DUP13 SSTORE PUSH1 0x1 SWAP1 SWAP12 ADD SWAP11 PUSH1 0x20 SWAP3 DUP4 ADD SWAP3 ADD PUSH2 0x425 JUMP JUMPDEST PUSH1 0x5 DUP4 ADD PUSH1 0x0 MSTORE PUSH1 0x20 PUSH1 0x0 KECCAK256 PUSH1 0x1F DUP4 ADD PUSH1 0x5 SHR DUP2 ADD PUSH1 0x20 DUP5 LT PUSH2 0x4D0 JUMPI JUMPDEST PUSH1 0x1F DUP4 ADD PUSH1 0x5 SHR DUP3 ADD DUP2 LT PUSH2 0x4C4 JUMPI POP POP PUSH2 0x311 JUMP JUMPDEST PUSH1 0x0 DUP2 SSTORE PUSH1 0x1 ADD PUSH2 0x4AE JUMP JUMPDEST POP DUP1 PUSH2 0x4AE JUMP JUMPDEST PUSH4 0x4E487B71 PUSH1 0xE0 SHL PUSH1 0x0 MSTORE PUSH1 0x41 PUSH1 0x4 MSTORE PUSH1 0x24 PUSH1 0x0 REVERT JUMPDEST ADD MLOAD SWAP1 POP DUP10 DUP1 PUSH2 0x2B8 JUMP JUMPDEST SWAP3 POP PUSH1 0x2 DUP11 ADD PUSH1 0x0 MSTORE PUSH1 0x20 PUSH1 0x0 KECCAK256 SWAP1 PUSH1 0x0 SWAP4 JUMPDEST PUSH1 0x1F NOT DUP5 AND DUP6 LT PUSH2 0x54F JUMPI PUSH1 0x1 SWAP5 POP DUP4 PUSH1 0x1F NOT DUP2 AND LT PUSH2 0x536 JUMPI JUMPDEST POP POP POP DUP2 SHL ADD PUSH1 0x2 DUP9 ADD SSTORE PUSH2 0x2D0 JUMP JUMPDEST ADD MLOAD PUSH1 0x0 NOT PUSH1 0xF8 DUP5 PUSH1 0x3 SHL AND SHR NOT AND SWAP1 SSTORE DUP10 DUP1 DUP1 PUSH2 0x526 JUMP JUMPDEST DUP2 DUP2 ADD MLOAD DUP4 SSTORE PUSH1 0x20 SWAP5 DUP6 ADD SWAP5 PUSH1 0x1 SWAP1 SWAP4 ADD SWAP3 SWAP1 SWAP2 ADD SWAP1 PUSH2 0x50B JUMP JUMPDEST SWAP1 SWAP2 POP PUSH1 0x2 DUP11 ADD PUSH1 0x0 MSTORE PUSH1 0x20 PUSH1 0x0 KECCAK256 PUSH1 0x1F DUP5 ADD PUSH1 0x5 SHR DUP2 ADD PUSH1 0x20 DUP6 LT PUSH2 0x5B6 JUMPI JUMPDEST SWAP1 DUP5 SWAP4 SWAP3 SWAP2 JUMPDEST PUSH1 0x1F DUP4 ADD PUSH1 0x5 SHR DUP3 ADD DUP2 LT PUSH2 0x5A7 JUMPI POP POP PUSH2 0x2A1 JUMP JUMPDEST PUSH1 0x0 DUP2 SSTORE DUP6 SWAP5 POP PUSH1 0x1 ADD PUSH2 0x591 JUMP JUMPDEST POP DUP1 PUSH2 0x58B JUMP JUMPDEST PUSH1 0x40 MLOAD PUSH3 0x461BCD PUSH1 0xE5 SHL DUP2 MSTORE PUSH1 0x20 PUSH1 0x4 DUP3 ADD MSTORE PUSH1 0x19 PUSH1 0x24 DUP3 ADD MSTORE PUSH32 0x506F73742070726F6F6620616C72656164792065786973747300000000000000 PUSH1 0x44 DUP3 ADD MSTORE DUP4 SWAP1 REVERT JUMPDEST PUSH1 0x40 MLOAD PUSH3 0x461BCD PUSH1 0xE5 SHL DUP2 MSTORE PUSH1 0x20 PUSH1 0x4 DUP3 ADD MSTORE PUSH1 0x1D PUSH1 0x24 DUP3 ADD MSTORE PUSH32 0x4170702074696D657374616D702063616E6E6F7420626520656D707479000000 PUSH1 0x44 DUP3 ADD MSTORE DUP4 SWAP1 REVERT JUMPDEST PUSH1 0x40 MLOAD PUSH3 0x461BCD PUSH1 0xE5 SHL DUP2 MSTORE PUSH1 0x20 PUSH1 0x4 DUP3 ADD MSTORE PUSH1 0x19 PUSH1 0x24 DUP3 ADD MSTORE PUSH32 0x496D6167652055524C2063616E6E6F7420626520656D70747900000000000000 PUSH1 0x44 DUP3 ADD MSTORE DUP4 SWAP1 REVERT JUMPDEST PUSH1 0x40 MLOAD PUSH3 0x461BCD PUSH1 0xE5 SHL DUP2 MSTORE PUSH1 0x20 PUSH1 0x4 DUP3 ADD MSTORE PUSH1 0x1C PUSH1 0x24 DUP3 ADD MSTORE PUSH32 0x436F6E74656E7420686173682063616E6E6F7420626520656D70747900000000 PUSH1 0x44 DUP3 ADD MSTORE DUP4 SWAP1 REVERT JUMPDEST PUSH1 0x40 MLOAD PUSH3 0x461BCD PUSH1 0xE5 SHL DUP2 MSTORE PUSH1 0x20 PUSH1 0x4 DUP3 ADD MSTORE PUSH1 0x1A PUSH1 0x24 DUP3 ADD MSTORE PUSH32 0x496D61676520686173682063616E6E6F7420626520656D707479000000000000 PUSH1 0x44 DUP3 ADD MSTORE DUP4 SWAP1 REVERT JUMPDEST PUSH1 0x40 MLOAD PUSH3 0x461BCD PUSH1 0xE5 SHL DUP2 MSTORE PUSH1 0x20 PUSH1 0x4 DUP3 ADD MSTORE PUSH1 0x18 PUSH1 0x24 DUP3 ADD MSTORE PUSH32 0x557365726E616D652063616E6E6F7420626520656D7074790000000000000000 PUSH1 0x44 DUP3 ADD MSTORE PUSH1 0x64 SWAP1 REVERT JUMPDEST PUSH1 0x40 MLOAD PUSH3 0x461BCD PUSH1 0xE5 SHL DUP2 MSTORE PUSH1 0x20 PUSH1 0x4 DUP3 ADD MSTORE PUSH1 0x18 PUSH1 0x24 DUP3 ADD MSTORE PUSH32 0x417574686F722069642063616E6E6F74206265207A65726F0000000000000000 PUSH1 0x44 DUP3 ADD MSTORE PUSH1 0x64 SWAP1 REVERT JUMPDEST PUSH1 0x40 MLOAD PUSH3 0x461BCD PUSH1 0xE5 SHL DUP2 MSTORE PUSH1 0x20 PUSH1 0x4 DUP3 ADD MSTORE PUSH1 0x16 PUSH1 0x24 DUP3 ADD MSTORE PUSH22 0x506F73742069642063616E6E6F74206265207A65726F PUSH1 0x50 SHL PUSH1 0x44 DUP3 ADD MSTORE PUSH1 0x64 SWAP1 REVERT JUMPDEST CALLVALUE PUSH2 0x105 JUMPI PUSH1 0x20 CALLDATASIZE PUSH1 0x3 NOT ADD SLT PUSH2 0x105 JUMPI PUSH1 0x0 PUSH2 0x120 PUSH1 0x4 CALLDATALOAD SWAP3 PUSH2 0x7FC DUP2 PUSH2 0xA7E JUMP JUMPDEST DUP3 DUP2 MSTORE DUP3 PUSH1 0x20 DUP3 ADD MSTORE PUSH1 0x60 PUSH1 0x40 DUP3 ADD MSTORE DUP3 PUSH1 0x60 DUP3 ADD MSTORE DUP3 PUSH1 0x80 DUP3 ADD MSTORE PUSH1 0x60 PUSH1 0xA0 DUP3 ADD MSTORE DUP3 PUSH1 0xC0 DUP3 ADD MSTORE DUP3 PUSH1 0xE0 DUP3 ADD MSTORE DUP3 PUSH2 0x100 DUP3 ADD MSTORE ADD MSTORE DUP1 PUSH1 0x0 MSTORE PUSH1 0x1 PUSH1 0x20 MSTORE PUSH1 0xFF PUSH1 0x8 PUSH1 0x40 PUSH1 0x0 KECCAK256 ADD SLOAD PUSH1 0xA0 SHR AND ISZERO PUSH2 0x97F JUMPI PUSH1 0x0 MSTORE PUSH1 0x1 PUSH1 0x20 MSTORE PUSH1 0x40 PUSH1 0x0 KECCAK256 PUSH1 0xFF PUSH1 0x8 PUSH1 0x40 MLOAD SWAP3 PUSH2 0x86F DUP5 PUSH2 0xA7E JUMP JUMPDEST DUP1 SLOAD DUP5 MSTORE PUSH1 0x1 DUP2 ADD SLOAD PUSH1 0x20 DUP6 ADD MSTORE PUSH2 0x889 PUSH1 0x2 DUP3 ADD PUSH2 0xB5F JUMP JUMPDEST PUSH1 0x40 DUP6 ADD MSTORE PUSH1 0x3 DUP2 ADD SLOAD PUSH1 0x60 DUP6 ADD MSTORE PUSH1 0x4 DUP2 ADD SLOAD PUSH1 0x80 DUP6 ADD MSTORE PUSH2 0x8AE PUSH1 0x5 DUP3 ADD PUSH2 0xB5F JUMP JUMPDEST PUSH1 0xA0 DUP6 ADD MSTORE PUSH1 0x6 DUP2 ADD SLOAD PUSH1 0xC0 DUP6 ADD MSTORE PUSH1 0x7 DUP2 ADD SLOAD PUSH1 0xE0 DUP6 ADD MSTORE ADD SLOAD PUSH1 0x1 DUP1 PUSH1 0xA0 SHL SUB DUP2 AND PUSH2 0x100 DUP5 ADD MSTORE PUSH1 0xA0 SHR AND ISZERO ISZERO PUSH2 0x120 DUP3 ADD MSTORE PUSH1 0x40 MLOAD DUP1 SWAP2 PUSH1 0x20 DUP3 MSTORE DUP1 MLOAD PUSH1 0x20 DUP4 ADD MSTORE PUSH1 0x20 DUP2 ADD MLOAD PUSH1 0x40 DUP4 ADD MSTORE PUSH1 0x40 DUP2 ADD MLOAD PUSH2 0x120 PUSH2 0x94B PUSH2 0x921 PUSH2 0x140 SWAP4 DUP5 PUSH1 0x60 DUP9 ADD MSTORE PUSH2 0x160 DUP8 ADD SWAP1 PUSH2 0x9C4 JUMP JUMPDEST PUSH1 0x60 DUP6 ADD MLOAD PUSH1 0x80 DUP8 ADD MSTORE PUSH1 0x80 DUP6 ADD MLOAD PUSH1 0xA0 DUP8 ADD MSTORE PUSH1 0xA0 DUP6 ADD MLOAD PUSH1 0x1F NOT DUP8 DUP4 SUB ADD PUSH1 0xC0 DUP9 ADD MSTORE PUSH2 0x9C4 JUMP JUMPDEST SWAP3 PUSH1 0xC0 DUP2 ADD MLOAD PUSH1 0xE0 DUP7 ADD MSTORE PUSH1 0xE0 DUP2 ADD MLOAD PUSH2 0x100 DUP7 ADD MSTORE PUSH1 0x1 DUP1 PUSH1 0xA0 SHL SUB PUSH2 0x100 DUP3 ADD MLOAD AND DUP3 DUP7 ADD MSTORE ADD MLOAD ISZERO ISZERO SWAP1 DUP4 ADD MSTORE SUB SWAP1 RETURN JUMPDEST PUSH1 0x40 MLOAD PUSH3 0x461BCD PUSH1 0xE5 SHL DUP2 MSTORE PUSH1 0x20 PUSH1 0x4 DUP3 ADD MSTORE PUSH1 0x19 PUSH1 0x24 DUP3 ADD MSTORE PUSH32 0x506F73742070726F6F6620646F6573206E6F7420657869737400000000000000 PUSH1 0x44 DUP3 ADD MSTORE PUSH1 0x64 SWAP1 REVERT JUMPDEST SWAP2 SWAP1 DUP3 MLOAD SWAP3 DUP4 DUP3 MSTORE PUSH1 0x0 JUMPDEST DUP5 DUP2 LT PUSH2 0x9F0 JUMPI POP POP DUP3 PUSH1 0x0 PUSH1 0x20 DUP1 SWAP5 SWAP6 DUP5 ADD ADD MSTORE PUSH1 0x1F DUP1 NOT SWAP2 ADD AND ADD ADD SWAP1 JUMP JUMPDEST PUSH1 0x20 DUP2 DUP4 ADD DUP2 ADD MLOAD DUP5 DUP4 ADD DUP3 ADD MSTORE ADD PUSH2 0x9CF JUMP JUMPDEST SWAP2 DUP2 PUSH1 0x1F DUP5 ADD SLT ISZERO PUSH2 0x105 JUMPI DUP3 CALLDATALOAD SWAP2 PUSH8 0xFFFFFFFFFFFFFFFF DUP4 GT PUSH2 0x105 JUMPI PUSH1 0x20 DUP4 DUP2 DUP7 ADD SWAP6 ADD ADD GT PUSH2 0x105 JUMPI JUMP JUMPDEST ISZERO PUSH2 0xA39 JUMPI JUMP JUMPDEST PUSH1 0x40 MLOAD PUSH3 0x461BCD PUSH1 0xE5 SHL DUP2 MSTORE PUSH1 0x20 PUSH1 0x4 DUP3 ADD MSTORE PUSH1 0x17 PUSH1 0x24 DUP3 ADD MSTORE PUSH32 0x43616C6C6572206973206E6F7420746865206F776E6572000000000000000000 PUSH1 0x44 DUP3 ADD MSTORE PUSH1 0x64 SWAP1 REVERT JUMPDEST PUSH2 0x140 DUP2 ADD SWAP1 DUP2 LT PUSH8 0xFFFFFFFFFFFFFFFF DUP3 GT OR PUSH2 0x4D7 JUMPI PUSH1 0x40 MSTORE JUMP JUMPDEST SWAP1 PUSH1 0x1F DUP1 NOT SWAP2 ADD AND DUP2 ADD SWAP1 DUP2 LT PUSH8 0xFFFFFFFFFFFFFFFF DUP3 GT OR PUSH2 0x4D7 JUMPI PUSH1 0x40 MSTORE JUMP JUMPDEST SWAP3 SWAP2 SWAP3 PUSH8 0xFFFFFFFFFFFFFFFF DUP3 GT PUSH2 0x4D7 JUMPI PUSH1 0x40 MLOAD SWAP2 PUSH2 0xAE7 PUSH1 0x1F DUP3 ADD PUSH1 0x1F NOT AND PUSH1 0x20 ADD DUP5 PUSH2 0xA9B JUMP JUMPDEST DUP3 SWAP5 DUP2 DUP5 MSTORE DUP2 DUP4 ADD GT PUSH2 0x105 JUMPI DUP3 DUP2 PUSH1 0x20 SWAP4 DUP5 PUSH1 0x0 SWAP7 ADD CALLDATACOPY ADD ADD MSTORE JUMP JUMPDEST SWAP1 PUSH1 0x1 DUP3 DUP2 SHR SWAP3 AND DUP1 ISZERO PUSH2 0xB34 JUMPI JUMPDEST PUSH1 0x20 DUP4 LT EQ PUSH2 0xB1E JUMPI JUMP JUMPDEST PUSH4 0x4E487B71 PUSH1 0xE0 SHL PUSH1 0x0 MSTORE PUSH1 0x22 PUSH1 0x4 MSTORE PUSH1 0x24 PUSH1 0x0 REVERT JUMPDEST SWAP2 PUSH1 0x7F AND SWAP2 PUSH2 0xB13 JUMP JUMPDEST SWAP1 DUP1 PUSH1 0x20 SWAP4 SWAP3 DUP2 DUP5 MSTORE DUP5 DUP5 ADD CALLDATACOPY PUSH1 0x0 DUP3 DUP3 ADD DUP5 ADD MSTORE PUSH1 0x1F ADD PUSH1 0x1F NOT AND ADD ADD SWAP1 JUMP JUMPDEST SWAP1 PUSH1 0x40 MLOAD SWAP2 DUP3 PUSH1 0x0 DUP3 SLOAD SWAP3 PUSH2 0xB73 DUP5 PUSH2 0xB04 JUMP JUMPDEST SWAP1 DUP2 DUP5 MSTORE PUSH1 0x1 SWAP5 DUP6 DUP2 AND SWAP1 DUP2 PUSH1 0x0 EQ PUSH2 0xBE2 JUMPI POP PUSH1 0x1 EQ PUSH2 0xB9F JUMPI JUMPDEST POP POP PUSH2 0xB9D SWAP3 POP SUB DUP4 PUSH2 0xA9B JUMP JUMPDEST JUMP JUMPDEST SWAP1 SWAP4 SWAP2 POP PUSH1 0x0 MSTORE PUSH1 0x20 SWAP1 DUP2 PUSH1 0x0 KECCAK256 SWAP4 PUSH1 0x0 SWAP2 JUMPDEST DUP2 DUP4 LT PUSH2 0xBCA JUMPI POP POP PUSH2 0xB9D SWAP4 POP DUP3 ADD ADD CODESIZE DUP1 PUSH2 0xB8F JUMP JUMPDEST DUP6 SLOAD DUP9 DUP5 ADD DUP6 ADD MSTORE SWAP5 DUP6 ADD SWAP5 DUP8 SWAP5 POP SWAP2 DUP4 ADD SWAP2 PUSH2 0xBB2 JUMP JUMPDEST SWAP2 POP POP PUSH2 0xB9D SWAP5 POP PUSH1 0x20 SWAP3 POP PUSH1 0xFF NOT AND DUP3 DUP5 ADD MSTORE ISZERO ISZERO PUSH1 0x5 SHL DUP3 ADD ADD CODESIZE DUP1 PUSH2 0xB8F JUMP INVALID LOG2 PUSH5 0x6970667358 0x22 SLT KECCAK256 DUP15 0xDF 0x4B SWAP15 0x4A 0x2F PUSH14 0xE98FA835C86617EC131005FEE9ED SHL DUP12 OR XOR SWAP2 PUSH32 0xF32590F9D64736F6C6343000814003300000000000000000000000000000000 "},"methodIdentifiers":{"getPostProof(uint256)":"35ac2dde","owner()":"8da5cb5b","recordPostProof(uint256,uint256,string,bytes32,bytes32,string,uint256)":"43ef8fe9","transferOwnership(address)":"f2fde38b"}}}}}