{"contracts/FriendshipMilestone.sol":{"FriendshipMilestone":{"abi":[{"inputs":[],"stateMutability":"nonpayable","type":"constructor"},{"anonymous":false,"inputs":[{"indexed":true,"internalType":"address","name":"owner","type":"address"},{"indexed":true,"internalType":"address","name":"approved","type":"address"},{"indexed":true,"internalType":"uint256","name":"tokenId","type":"uint256"}],"name":"Approval","type":"event"},{"anonymous":false,"inputs":[{"indexed":true,"internalType":"address","name":"owner","type":"address"},{"indexed":true,"internalType":"address","name":"operator","type":"address"},{"indexed":false,"internalType":"bool","name":"approved","type":"bool"}],"name":"ApprovalForAll","type":"event"},{"anonymous":false,"inputs":[{"indexed":true,"internalType":"uint256","name":"tokenId","type":"uint256"},{"indexed":true,"internalType":"uint256","name":"userIdA","type":"uint256"},{"indexed":true,"internalType":"uint256","name":"userIdB","type":"uint256"},{"indexed":false,"internalType":"uint8","name":"milestoneType","type":"uint8"},{"indexed":false,"internalType":"string","name":"milestoneName","type":"string"},{"indexed":false,"internalType":"uint256","name":"mintedAt","type":"uint256"}],"name":"MilestoneMinted","type":"event"},{"anonymous":false,"inputs":[{"indexed":true,"internalType":"address","name":"from","type":"address"},{"indexed":true,"internalType":"address","name":"to","type":"address"},{"indexed":true,"internalType":"uint256","name":"tokenId","type":"uint256"}],"name":"Transfer","type":"event"},{"inputs":[{"internalType":"address","name":"to","type":"address"},{"internalType":"uint256","name":"tokenId","type":"uint256"}],"name":"approve","outputs":[],"stateMutability":"nonpayable","type":"function"},{"inputs":[{"internalType":"address","name":"account","type":"address"}],"name":"balanceOf","outputs":[{"internalType":"uint256","name":"","type":"uint256"}],"stateMutability":"view","type":"function"},{"inputs":[{"internalType":"uint256","name":"tokenId","type":"uint256"}],"name":"getApproved","outputs":[{"internalType":"address","name":"","type":"address"}],"stateMutability":"view","type":"function"},{"inputs":[{"internalType":"uint256","name":"tokenId","type":"uint256"}],"name":"getMilestone","outputs":[{"components":[{"internalType":"uint256","name":"userIdA","type":"uint256"},{"internalType":"uint256","name":"userIdB","type":"uint256"},{"internalType":"string","name":"usernameA","type":"string"},{"internalType":"string","name":"usernameB","type":"string"},{"internalType":"uint8","name":"milestoneType","type":"uint8"},{"internalType":"string","name":"milestoneName","type":"string"},{"internalType":"uint256","name":"mintedAt","type":"uint256"}],"internalType":"struct FriendshipMilestone.MilestoneData","name":"","type":"tuple"}],"stateMutability":"view","type":"function"},{"inputs":[{"internalType":"address","name":"account","type":"address"},{"internalType":"address","name":"operator","type":"address"}],"name":"isApprovedForAll","outputs":[{"internalType":"bool","name":"","type":"bool"}],"stateMutability":"view","type":"function"},{"inputs":[{"internalType":"uint256","name":"userIdA","type":"uint256"},{"internalType":"uint256","name":"userIdB","type":"uint256"},{"internalType":"uint8","name":"milestoneType","type":"uint8"}],"name":"isClaimed","outputs":[{"internalType":"bool","name":"","type":"bool"}],"stateMutability":"view","type":"function"},{"inputs":[{"internalType":"bytes32","name":"","type":"bytes32"}],"name":"milestoneClaimed","outputs":[{"internalType":"bool","name":"","type":"bool"}],"stateMutability":"view","type":"function"},{"inputs":[{"internalType":"uint256","name":"","type":"uint256"}],"name":"milestones","outputs":[{"internalType":"uint256","name":"userIdA","type":"uint256"},{"internalType":"uint256","name":"userIdB","type":"uint256"},{"internalType":"string","name":"usernameA","type":"string"},{"internalType":"string","name":"usernameB","type":"string"},{"internalType":"uint8","name":"milestoneType","type":"uint8"},{"internalType":"string","name":"milestoneName","type":"string"},{"internalType":"uint256","name":"mintedAt","type":"uint256"}],"stateMutability":"view","type":"function"},{"inputs":[{"internalType":"address","name":"recipient","type":"address"},{"internalType":"uint256","name":"userIdA","type":"uint256"},{"internalType":"uint256","name":"userIdB","type":"uint256"},{"internalType":"string","name":"usernameA","type":"string"},{"internalType":"string","name":"usernameB","type":"string"},{"internalType":"uint8","name":"milestoneType","type":"uint8"},{"internalType":"string","name":"milestoneName","type":"string"}],"name":"mintMilestone","outputs":[{"internalType":"uint256","name":"tokenId","type":"uint256"}],"stateMutability":"nonpayable","type":"function"},{"inputs":[],"name":"name","outputs":[{"internalType":"string","name":"","type":"string"}],"stateMutability":"view","type":"function"},{"inputs":[],"name":"owner","outputs":[{"internalType":"address","name":"","type":"address"}],"stateMutability":"view","type":"function"},{"inputs":[{"internalType":"uint256","name":"tokenId","type":"uint256"}],"name":"ownerOf","outputs":[{"internalType":"address","name":"","type":"address"}],"stateMutability":"view","type":"function"},{"inputs":[{"internalType":"address","name":"from","type":"address"},{"internalType":"address","name":"to","type":"address"},{"internalType":"uint256","name":"tokenId","type":"uint256"}],"name":"safeTransferFrom","outputs":[],"stateMutability":"nonpayable","type":"function"},{"inputs":[{"internalType":"address","name":"from","type":"address"},{"internalType":"address","name":"to","type":"address"},{"internalType":"uint256","name":"tokenId","type":"uint256"},{"internalType":"bytes","name":"","type":"bytes"}],"name":"safeTransferFrom","outputs":[],"stateMutability":"nonpayable","type":"function"},{"inputs":[{"internalType":"address","name":"operator","type":"address"},{"internalType":"bool","name":"approved","type":"bool"}],"name":"setApprovalForAll","outputs":[],"stateMutability":"nonpayable","type":"function"},{"inputs":[{"internalType":"bytes4","name":"interfaceId","type":"bytes4"}],"name":"supportsInterface","outputs":[{"internalType":"bool","name":"","type":"bool"}],"stateMutability":"pure","type":"function"},{"inputs":[],"name":"symbol","outputs":[{"internalType":"string","name":"","type":"string"}],"stateMutability":"view","type":"function"},{"inputs":[],"name":"totalSupply","outputs":[{"internalType":"uint256","name":"","type":"uint256"}],"stateMutability":"view","type":"function"},{"inputs":[{"internalType":"address","name":"from","type":"address"},{"internalType":"address","name":"to","type":"address"},{"internalType":"uint256","name":"tokenId","type":"uint256"}],"name":"transferFrom","outputs":[],"stateMutability":"nonpayable","type":"function"},{"inputs":[{"internalType":"address","name":"newOwner","type":"address"}],"name":"transferOwnership","outputs":[],"stateMutability":"nonpayable","type":"function"}],"evm":{"bytecode":{"linkReferences":{},"object":"608060405234620000f2576000620000188154620000f7565b601f8111620000c5575b5060367f4c6f636b657420467269656e6473686970204d696c6573746f6e650000000000018155600190620000588254620000f7565b90601f821162000096575b6006624c464d60e81b018355600980546001600160a01b0319163317905560028390556040516115f09081620001358239f35b82815282601f60208320930160051c8301925b838110620000b957505062000063565b828155018390620000a9565b818052601f60208320910160051c8101905b818110620000e6575062000022565b828155600101620000d7565b600080fd5b90600182811c9216801562000129575b60208310146200011357565b634e487b7160e01b600052602260045260246000fd5b91607f16916200010756fe608080604052600436101561001357600080fd5b60e0600035811c91826301ffc9a7146110965750816306fdde0314610ff3578163081812fc14610fa5578163095ea7b314610eee57816318160ddd14610ec357816323b872dd14610d4d5781632442e1cb14610d6457816342842e0e14610d4d5781634dca18be14610d1c5781636352211e14610cec578163638d47b814610c6057816370a0823114610bec5781638da5cb5b14610bc357816395d89b4114610ae0578163a22cb46514610a5b578163b88d4fde14610a08578163c7c9256114610296578163e89e4ed6146101e857508063e985e9c5146101925763f2fde38b146100fd57600080fd5b3461018d57602036600319011261018d57610116611247565b600954906001600160a01b03906101303383851614611527565b16908115610148576001600160a01b03191617600955005b60405162461bcd60e51b815260206004820152601860248201527f4e6577206f776e65722063616e6e6f74206265207a65726f00000000000000006044820152606490fd5b600080fd5b3461018d57604036600319011261018d576101ab611247565b6101b361125d565b9060018060a01b03809116600052600660205260406000209116600052602052602060ff604060002054166040519015158152f35b3461018d57602036600319011261018d57600435600052600760205260406000209081549061028c60018401549361022260028201611161565b9061027961023260038301611161565b61026b60ff60048501541694600661024c60058701611161565b950154976040519a8b9a8b5260208b01528060408b0152890190611207565b908782036060890152611207565b91608086015284820360a0860152611207565b9060c08301520390f35b3461018d5736600319011261018d576102ad611247565b60643567ffffffffffffffff811161018d576102cd9036906004016112a8565b9160843567ffffffffffffffff811161018d576102ee9036906004016112a8565b9260ff60a4351660a4350361018d5760c43567ffffffffffffffff811161018d5761031d9036906004016112a8565b92909560018060a01b039261033784600954163314611527565b838616156109c3576024351515806109b8575b156109735760443560243510156109625760443561039a6103a86024355b60408051602081019283529081019490945260a43560f81b6001600160f81b0319166060850152929182906061820190565b03601f19810183528261113f565b5190209283600052600860205260ff6040600020541661091d57600254976000198914610907576001890160025588600052600360205260406000208689166001600160601b0360a01b825416179055858816600052600460205260406000209283549060018201821161090757610450946001610444930190556040519561043087611123565b602435875260443560208801523691611573565b60408501523691611573565b606082015260ff60a43516608082015261046b368589611573565b60a08201524260c08201528560005260076020526040600020908051825560208101516001830155604081015180519067ffffffffffffffff82116107515781906104b960028601546110e9565b601f81116108b4575b50602090601f831160011461084257600092610837575b50508160011b916000199060031b1c19161760028301555b606081015180519067ffffffffffffffff821161075157819061051760038601546110e9565b601f81116107e4575b50602090601f831160011461077257600092610767575b50508160011b916000199060031b1c19161760038301555b60ff60808201511660ff1960048401541617600483015560a081015180519067ffffffffffffffff82116107515761058a60058501546110e9565b601f811161070a575b509286959260209a95928a958c90601f83116001146106915791806006949260c094600092610686575b50508160011b916000199060031b1c19161760058501555b0151910155600052600888526040600020600160ff19825416179055604051951660007fddf252ad1be2c89b69c2b068fc378daa952ba7f163c4a11628f55a4df523b3ef8180a460ff60a4351684526060868501528160608501526080840137600060808284010152426040830152827f537702284ecc21650a874a15567734f5d429443f398be96fccf6a73a0ebbe9676044359360808160243595601f80199101168101030190a4604051908152f35b015190508f806105bd565b90600585016000528d6000209160005b601f19851681106106ed5750926006949260019260c09583601f198116106106d4575b505050811b0160058501556105d5565b015160001960f88460031b161c191690558f80806106c4565b8282015184558c9b508e9950600190930192918f01918f016106a1565b600585016000526020600020601f840160051c81016020851061074a575b601f830160051c8201811061073e575050610593565b60008155600101610728565b5080610728565b634e487b7160e01b600052604160045260246000fd5b015190508a80610537565b9250600385016000526020600020906000935b601f19841685106107c9576001945083601f198116106107b0575b505050811b01600383015561054f565b015160001960f88460031b161c191690558a80806107a0565b81810151835560209485019460019093019290910190610785565b909150600385016000526020600020601f840160051c810160208510610830575b90849392915b601f830160051c82018110610821575050610520565b6000815585945060010161080b565b5080610805565b015190508a806104d9565b9250600285016000526020600020906000935b601f1984168510610899576001945083601f19811610610880575b505050811b0160028301556104f1565b015160001960f88460031b161c191690558a8080610870565b81810151835560209485019460019093019290910190610855565b909150600285016000526020600020601f840160051c810160208510610900575b90849392915b601f830160051c820181106108f15750506104c2565b600081558594506001016108db565b50806108d5565b634e487b7160e01b600052601160045260246000fd5b60405162461bcd60e51b815260206004820152601960248201527f4d696c6573746f6e6520616c726561647920636c61696d6564000000000000006044820152606490fd5b60243561039a6103a8604435610368565b60405162461bcd60e51b815260206004820152601760248201527f55736572206964732063616e6e6f74206265207a65726f0000000000000000006044820152606490fd5b50604435151561034a565b60405162461bcd60e51b815260206004820152601860248201527f526563697069656e742063616e6e6f74206265207a65726f00000000000000006044820152606490fd5b3461018d57608036600319011261018d57610a21611247565b610a2961125d565b906064359167ffffffffffffffff831161018d57610a4e610a599336906004016112a8565b50506044359161137c565b005b3461018d57604036600319011261018d57610a74611247565b60243580151580910361018d5733600052600660205260406000209160018060a01b03169182600052602052604060002060ff1981541660ff83161790556040519081527f17307eab39ab6107e8899845ad3d59bd9653f200f220920489ca2b5937696c3160203392a3005b3461018d57600036600319011261018d5760405160006001805490610b04826110e9565b80855291818116908115610b9c5750600114610b43575b610b3f84610b2b8186038261113f565b604051918291602083526020830190611207565b0390f35b600081815292507fb10e2d527612073b26eecdfd717e6a320cf44b4afac2b0732d9fcbe2b7fa0cf65b828410610b84575050508101602001610b2b82610b1b565b80546020858701810191909152909301928101610b6c565b60ff191660208087019190915292151560051b85019092019250610b2b9150839050610b1b565b3461018d57600036600319011261018d576009546040516001600160a01b039091168152602090f35b3461018d57602036600319011261018d576001600160a01b03610c0d611247565b168015610c2c5760005260046020526020604060002054604051908152f35b60405162461bcd60e51b815260206004820152600c60248201526b5a65726f206164647265737360a01b6044820152606490fd5b3461018d57606036600319011261018d5760243560443560043560ff8216820361018d5782811015610ce357610cc390925b60408051602081019586529081019190915260f89290921b6001600160f81b0319166060830152816061810161039a565b5190206000526008602052602060ff604060002054166040519015158152f35b610cc390610c92565b3461018d57602036600319011261018d576020610d0a600435611319565b6040516001600160a01b039091168152f35b3461018d57602036600319011261018d576004356000526008602052602060ff604060002054166040519015158152f35b3461018d57610a59610d5e36611273565b9161137c565b3461018d576020908160031936011261018d5760405190600435610d8783611123565b6000835283830160009052606092836040820152838082015260808101600090528360a082015260c001600090528060005260038452600160a01b60019003604060002054161515610dd8906112d6565b6000526007835260406000209060405192610df284611123565b82548452600183015485850190815292610e0e60028201611161565b6040860190815290610e2260038201611161565b9280870193845284600483015460ff16936080890194855260058401610e4790611161565b9360a08a01948552600601549760c08a019889526040519a8b9a818c5251908b01525160408a015251918801526101008701610e8291611207565b9251601f199384888203016080890152610e9b91611207565b915160ff1660a087015251918582030160c0860152610eb991611207565b9151908301520390f35b3461018d57600036600319011261018d57600254600019810190811161090757602090604051908152f35b3461018d57604036600319011261018d57610f07611247565b602435906001600160a01b0380610f1d84611319565b16908133148015610f7c575b610f329061133f565b8360005260056020526040600020921691826001600160601b0360a01b8254161790557f8c5be1e5ebec7d5bd14f71427d1e84f3dd0314c0f7b2291e5b200ac8c7c3b925600080a4005b50816000526006602052604060002033600052602052610f3260ff604060002054169050610f29565b3461018d57602036600319011261018d576020600435806000526003825260018060a01b0390610fdd826040600020541615156112d6565b6000526005825260406000205416604051908152f35b3461018d57600036600319011261018d5760405160008054611014816110e9565b80845290600190818116908115610b9c575060011461103d57610b3f84610b2b8186038261113f565b600080805292507f290decd9548b62a8d60345a988386fc84ba6bc95484008f6362f93160ef3e5635b82841061107e575050508101602001610b2b82610b1b565b80546020858701810191909152909301928101611066565b3461018d57602036600319011261018d576004359063ffffffff60e01b821680920361018d576020916380ac58cd60e01b81149081156110d8575b5015158152f35b6301ffc9a760e01b149050836110d1565b90600182811c92168015611119575b602083101461110357565b634e487b7160e01b600052602260045260246000fd5b91607f16916110f8565b60e0810190811067ffffffffffffffff82111761075157604052565b90601f8019910116810190811067ffffffffffffffff82111761075157604052565b9060405191826000825492611175846110e9565b9081845260019485811690816000146111e457506001146111a1575b505061119f9250038361113f565b565b9093915060005260209081600020936000915b8183106111cc57505061119f93508201013880611191565b855488840185015294850194879450918301916111b4565b91505061119f94506020925060ff191682840152151560051b8201013880611191565b919082519283825260005b848110611233575050826000602080949584010152601f8019910116010190565b602081830181015184830182015201611212565b600435906001600160a01b038216820361018d57565b602435906001600160a01b038216820361018d57565b606090600319011261018d576001600160a01b0390600435828116810361018d5791602435908116810361018d579060443590565b9181601f8401121561018d5782359167ffffffffffffffff831161018d576020838186019501011161018d57565b156112dd57565b60405162461bcd60e51b8152602060048201526014602482015273151bdad95b88191bd95cc81b9bdd08195e1a5cdd60621b6044820152606490fd5b6000908152600360205260409020546001600160a01b031661133c8115156112d6565b90565b1561134657565b60405162461bcd60e51b815260206004820152600e60248201526d139bdd08185d5d1a1bdc9a5e995960921b6044820152606490fd5b6001600160a01b03918216919082156114e257818061139a86611319565b169116918183036114a95781331490811561148e575b508015611468575b6113c2915061133f565b60008381526005602052604081206001600160601b0360a01b90818154169055828252600460205260408220805490600019820191821161145457558382526004602052604082208054906001820180921161145457558482526003602052604082208054909116841790557fddf252ad1be2c89b69c2b068fc378daa952ba7f163c4a11628f55a4df523b3ef9080a4565b634e487b7160e01b84526011600452602484fd5b5060005260066020526040600020336000526020526113c260ff604060002054166113b8565b905084600052600560205233906040600020541614386113b0565b60405162461bcd60e51b8152602060048201526011602482015270233937b69034b9903737ba1037bbb732b960791b6044820152606490fd5b60405162461bcd60e51b815260206004820152601860248201527f5472616e7366657220746f207a65726f206164647265737300000000000000006044820152606490fd5b1561152e57565b60405162461bcd60e51b815260206004820152601760248201527f43616c6c6572206973206e6f7420746865206f776e65720000000000000000006044820152606490fd5b92919267ffffffffffffffff8211610751576040519161159d601f8201601f19166020018461113f565b82948184528183011161018d57828160209384600096013701015256fea26469706673582212209442829c32b0a2f597dbb9b46eb48f4afdd7222c79a716674e8124ad46f3015564736f6c63430008140033","opcodes":"PUSH1 0x80 PUSH1 0x40 MSTORE CALLVALUE PUSH3 0xF2 JUMPI PUSH1 0x0 PUSH3 0x18 DUP2 SLOAD PUSH3 0xF7 JUMP JUMPDEST PUSH1 0x1F DUP2 GT PUSH3 0xC5 JUMPI JUMPDEST POP PUSH1 0x36 PUSH32 0x4C6F636B657420467269656E6473686970204D696C6573746F6E650000000000 ADD DUP2 SSTORE PUSH1 0x1 SWAP1 PUSH3 0x58 DUP3 SLOAD PUSH3 0xF7 JUMP JUMPDEST SWAP1 PUSH1 0x1F DUP3 GT PUSH3 0x96 JUMPI JUMPDEST PUSH1 0x6 PUSH3 0x4C464D PUSH1 0xE8 SHL ADD DUP4 SSTORE PUSH1 0x9 DUP1 SLOAD PUSH1 0x1 PUSH1 0x1 PUSH1 0xA0 SHL SUB NOT AND CALLER OR SWAP1 SSTORE PUSH1 0x2 DUP4 SWAP1 SSTORE PUSH1 0x40 MLOAD PUSH2 0x15F0 SWAP1 DUP2 PUSH3 0x135 DUP3 CODECOPY RETURN JUMPDEST DUP3 DUP2 MSTORE DUP3 PUSH1 0x1F PUSH1 0x20 DUP4 KECCAK256 SWAP4 ADD PUSH1 0x5 SHR DUP4 ADD SWAP3 JUMPDEST DUP4 DUP2 LT PUSH3 0xB9 JUMPI POP POP PUSH3 0x63 JUMP JUMPDEST DUP3 DUP2 SSTORE ADD DUP4 SWAP1 PUSH3 0xA9 JUMP JUMPDEST DUP2 DUP1 MSTORE PUSH1 0x1F PUSH1 0x20 DUP4 KECCAK256 SWAP2 ADD PUSH1 0x5 SHR DUP2 ADD SWAP1 JUMPDEST DUP2 DUP2 LT PUSH3 0xE6 JUMPI POP PUSH3 0x22 JUMP JUMPDEST DUP3 DUP2 SSTORE PUSH1 0x1 ADD PUSH3 0xD7 JUMP JUMPDEST PUSH1 0x0 DUP1 REVERT JUMPDEST SWAP1 PUSH1 0x1 DUP3 DUP2 SHR SWAP3 AND DUP1 ISZERO PUSH3 0x129 JUMPI JUMPDEST PUSH1 0x20 DUP4 LT EQ PUSH3 0x113 JUMPI JUMP JUMPDEST PUSH4 0x4E487B71 PUSH1 0xE0 SHL PUSH1 0x0 MSTORE PUSH1 0x22 PUSH1 0x4 MSTORE PUSH1 0x24 PUSH1 0x0 REVERT JUMPDEST SWAP2 PUSH1 0x7F AND SWAP2 PUSH3 0x107 JUMP INVALID PUSH1 0x80 DUP1 PUSH1 0x40 MSTORE PUSH1 0x4 CALLDATASIZE LT ISZERO PUSH2 0x13 JUMPI PUSH1 0x0 DUP1 REVERT JUMPDEST PUSH1 0xE0 PUSH1 0x0 CALLDATALOAD DUP2 SHR SWAP2 DUP3 PUSH4 0x1FFC9A7 EQ PUSH2 0x1096 JUMPI POP DUP2 PUSH4 0x6FDDE03 EQ PUSH2 0xFF3 JUMPI DUP2 PUSH4 0x81812FC EQ PUSH2 0xFA5 JUMPI DUP2 PUSH4 0x95EA7B3 EQ PUSH2 0xEEE JUMPI DUP2 PUSH4 0x18160DDD EQ PUSH2 0xEC3 JUMPI DUP2 PUSH4 0x23B872DD EQ PUSH2 0xD4D JUMPI DUP2 PUSH4 0x2442E1CB EQ PUSH2 0xD64 JUMPI DUP2 PUSH4 0x42842E0E EQ PUSH2 0xD4D JUMPI DUP2 PUSH4 0x4DCA18BE EQ PUSH2 0xD1C JUMPI DUP2 PUSH4 0x6352211E EQ PUSH2 0xCEC JUMPI DUP2 PUSH4 0x638D47B8 EQ PUSH2 0xC60 JUMPI DUP2 PUSH4 0x70A08231 EQ PUSH2 0xBEC JUMPI DUP2 PUSH4 0x8DA5CB5B EQ PUSH2 0xBC3 JUMPI DUP2 PUSH4 0x95D89B41 EQ PUSH2 0xAE0 JUMPI DUP2 PUSH4 0xA22CB465 EQ PUSH2 0xA5B JUMPI DUP2 PUSH4 0xB88D4FDE EQ PUSH2 0xA08 JUMPI DUP2 PUSH4 0xC7C92561 EQ PUSH2 0x296 JUMPI DUP2 PUSH4 0xE89E4ED6 EQ PUSH2 0x1E8 JUMPI POP DUP1 PUSH4 0xE985E9C5 EQ PUSH2 0x192 JUMPI PUSH4 0xF2FDE38B EQ PUSH2 0xFD JUMPI PUSH1 0x0 DUP1 REVERT JUMPDEST CALLVALUE PUSH2 0x18D JUMPI PUSH1 0x20 CALLDATASIZE PUSH1 0x3 NOT ADD SLT PUSH2 0x18D JUMPI PUSH2 0x116 PUSH2 0x1247 JUMP JUMPDEST PUSH1 0x9 SLOAD SWAP1 PUSH1 0x1 PUSH1 0x1 PUSH1 0xA0 SHL SUB SWAP1 PUSH2 0x130 CALLER DUP4 DUP6 AND EQ PUSH2 0x1527 JUMP JUMPDEST AND SWAP1 DUP2 ISZERO PUSH2 0x148 JUMPI PUSH1 0x1 PUSH1 0x1 PUSH1 0xA0 SHL SUB NOT AND OR PUSH1 0x9 SSTORE STOP JUMPDEST PUSH1 0x40 MLOAD PUSH3 0x461BCD PUSH1 0xE5 SHL DUP2 MSTORE PUSH1 0x20 PUSH1 0x4 DUP3 ADD MSTORE PUSH1 0x18 PUSH1 0x24 DUP3 ADD MSTORE PUSH32 0x4E6577206F776E65722063616E6E6F74206265207A65726F0000000000000000 PUSH1 0x44 DUP3 ADD MSTORE PUSH1 0x64 SWAP1 REVERT JUMPDEST PUSH1 0x0 DUP1 REVERT JUMPDEST CALLVALUE PUSH2 0x18D JUMPI PUSH1 0x40 CALLDATASIZE PUSH1 0x3 NOT ADD SLT PUSH2 0x18D JUMPI PUSH2 0x1AB PUSH2 0x1247 JUMP JUMPDEST PUSH2 0x1B3 PUSH2 0x125D JUMP JUMPDEST SWAP1 PUSH1 0x1 DUP1 PUSH1 0xA0 SHL SUB DUP1 SWAP2 AND PUSH1 0x0 MSTORE PUSH1 0x6 PUSH1 0x20 MSTORE PUSH1 0x40 PUSH1 0x0 KECCAK256 SWAP2 AND PUSH1 0x0 MSTORE PUSH1 0x20 MSTORE PUSH1 0x20 PUSH1 0xFF PUSH1 0x40 PUSH1 0x0 KECCAK256 SLOAD AND PUSH1 0x40 MLOAD SWAP1 ISZERO ISZERO DUP2 MSTORE RETURN JUMPDEST CALLVALUE PUSH2 0x18D JUMPI PUSH1 0x20 CALLDATASIZE PUSH1 0x3 NOT ADD SLT PUSH2 0x18D JUMPI PUSH1 0x4 CALLDATALOAD PUSH1 0x0 MSTORE PUSH1 0x7 PUSH1 0x20 MSTORE PUSH1 0x40 PUSH1 0x0 KECCAK256 SWAP1 DUP2 SLOAD SWAP1 PUSH2 0x28C PUSH1 0x1 DUP5 ADD SLOAD SWAP4 PUSH2 0x222 PUSH1 0x2 DUP3 ADD PUSH2 0x1161 JUMP JUMPDEST SWAP1 PUSH2 0x279 PUSH2 0x232 PUSH1 0x3 DUP4 ADD PUSH2 0x1161 JUMP JUMPDEST PUSH2 0x26B PUSH1 0xFF PUSH1 0x4 DUP6 ADD SLOAD AND SWAP5 PUSH1 0x6 PUSH2 0x24C PUSH1 0x5 DUP8 ADD PUSH2 0x1161 JUMP JUMPDEST SWAP6 ADD SLOAD SWAP8 PUSH1 0x40 MLOAD SWAP11 DUP12 SWAP11 DUP12 MSTORE PUSH1 0x20 DUP12 ADD MSTORE DUP1 PUSH1 0x40 DUP12 ADD MSTORE DUP10 ADD SWAP1 PUSH2 0x1207 JUMP JUMPDEST SWAP1 DUP8 DUP3 SUB PUSH1 0x60 DUP10 ADD MSTORE PUSH2 0x1207 JUMP JUMPDEST SWAP2 PUSH1 0x80 DUP7 ADD MSTORE DUP5 DUP3 SUB PUSH1 0xA0 DUP7 ADD MSTORE PUSH2 0x1207 JUMP JUMPDEST SWAP1 PUSH1 0xC0 DUP4 ADD MSTORE SUB SWAP1 RETURN JUMPDEST CALLVALUE PUSH2 0x18D JUMPI CALLDATASIZE PUSH1 0x3 NOT ADD SLT PUSH2 0x18D JUMPI PUSH2 0x2AD PUSH2 0x1247 JUMP JUMPDEST PUSH1 0x64 CALLDATALOAD PUSH8 0xFFFFFFFFFFFFFFFF DUP2 GT PUSH2 0x18D JUMPI PUSH2 0x2CD SWAP1 CALLDATASIZE SWAP1 PUSH1 0x4 ADD PUSH2 0x12A8 JUMP JUMPDEST SWAP2 PUSH1 0x84 CALLDATALOAD PUSH8 0xFFFFFFFFFFFFFFFF DUP2 GT PUSH2 0x18D JUMPI PUSH2 0x2EE SWAP1 CALLDATASIZE SWAP1 PUSH1 0x4 ADD PUSH2 0x12A8 JUMP JUMPDEST SWAP3 PUSH1 0xFF PUSH1 0xA4 CALLDATALOAD AND PUSH1 0xA4 CALLDATALOAD SUB PUSH2 0x18D JUMPI PUSH1 0xC4 CALLDATALOAD PUSH8 0xFFFFFFFFFFFFFFFF DUP2 GT PUSH2 0x18D JUMPI PUSH2 0x31D SWAP1 CALLDATASIZE SWAP1 PUSH1 0x4 ADD PUSH2 0x12A8 JUMP JUMPDEST SWAP3 SWAP1 SWAP6 PUSH1 0x1 DUP1 PUSH1 0xA0 SHL SUB SWAP3 PUSH2 0x337 DUP5 PUSH1 0x9 SLOAD AND CALLER EQ PUSH2 0x1527 JUMP JUMPDEST DUP4 DUP7 AND ISZERO PUSH2 0x9C3 JUMPI PUSH1 0x24 CALLDATALOAD ISZERO ISZERO DUP1 PUSH2 0x9B8 JUMPI JUMPDEST ISZERO PUSH2 0x973 JUMPI PUSH1 0x44 CALLDATALOAD PUSH1 0x24 CALLDATALOAD LT ISZERO PUSH2 0x962 JUMPI PUSH1 0x44 CALLDATALOAD PUSH2 0x39A PUSH2 0x3A8 PUSH1 0x24 CALLDATALOAD JUMPDEST PUSH1 0x40 DUP1 MLOAD PUSH1 0x20 DUP2 ADD SWAP3 DUP4 MSTORE SWAP1 DUP2 ADD SWAP5 SWAP1 SWAP5 MSTORE PUSH1 0xA4 CALLDATALOAD PUSH1 0xF8 SHL PUSH1 0x1 PUSH1 0x1 PUSH1 0xF8 SHL SUB NOT AND PUSH1 0x60 DUP6 ADD MSTORE SWAP3 SWAP2 DUP3 SWAP1 PUSH1 0x61 DUP3 ADD SWAP1 JUMP JUMPDEST SUB PUSH1 0x1F NOT DUP2 ADD DUP4 MSTORE DUP3 PUSH2 0x113F JUMP JUMPDEST MLOAD SWAP1 KECCAK256 SWAP3 DUP4 PUSH1 0x0 MSTORE PUSH1 0x8 PUSH1 0x20 MSTORE PUSH1 0xFF PUSH1 0x40 PUSH1 0x0 KECCAK256 SLOAD AND PUSH2 0x91D JUMPI PUSH1 0x2 SLOAD SWAP8 PUSH1 0x0 NOT DUP10 EQ PUSH2 0x907 JUMPI PUSH1 0x1 DUP10 ADD PUSH1 0x2 SSTORE DUP9 PUSH1 0x0 MSTORE PUSH1 0x3 PUSH1 0x20 MSTORE PUSH1 0x40 PUSH1 0x0 KECCAK256 DUP7 DUP10 AND PUSH1 0x1 PUSH1 0x1 PUSH1 0x60 SHL SUB PUSH1 0xA0 SHL DUP3 SLOAD AND OR SWAP1 SSTORE DUP6 DUP9 AND PUSH1 0x0 MSTORE PUSH1 0x4 PUSH1 0x20 MSTORE PUSH1 0x40 PUSH1 0x0 KECCAK256 SWAP3 DUP4 SLOAD SWAP1 PUSH1 0x1 DUP3 ADD DUP3 GT PUSH2 0x907 JUMPI PUSH2 0x450 SWAP5 PUSH1 0x1 PUSH2 0x444 SWAP4 ADD SWAP1 SSTORE PUSH1 0x40 MLOAD SWAP6 PUSH2 0x430 DUP8 PUSH2 0x1123 JUMP JUMPDEST PUSH1 0x24 CALLDATALOAD DUP8 MSTORE PUSH1 0x44 CALLDATALOAD PUSH1 0x20 DUP9 ADD MSTORE CALLDATASIZE SWAP2 PUSH2 0x1573 JUMP JUMPDEST PUSH1 0x40 DUP6 ADD MSTORE CALLDATASIZE SWAP2 PUSH2 0x1573 JUMP JUMPDEST PUSH1 0x60 DUP3 ADD MSTORE PUSH1 0xFF PUSH1 0xA4 CALLDATALOAD AND PUSH1 0x80 DUP3 ADD MSTORE PUSH2 0x46B CALLDATASIZE DUP6 DUP10 PUSH2 0x1573 JUMP JUMPDEST PUSH1 0xA0 DUP3 ADD MSTORE TIMESTAMP PUSH1 0xC0 DUP3 ADD MSTORE DUP6 PUSH1 0x0 MSTORE PUSH1 0x7 PUSH1 0x20 MSTORE PUSH1 0x40 PUSH1 0x0 KECCAK256 SWAP1 DUP1 MLOAD DUP3 SSTORE PUSH1 0x20 DUP2 ADD MLOAD PUSH1 0x1 DUP4 ADD SSTORE PUSH1 0x40 DUP2 ADD MLOAD DUP1 MLOAD SWAP1 PUSH8 0xFFFFFFFFFFFFFFFF DUP3 GT PUSH2 0x751 JUMPI DUP2 SWAP1 PUSH2 0x4B9 PUSH1 0x2 DUP7 ADD SLOAD PUSH2 0x10E9 JUMP JUMPDEST PUSH1 0x1F DUP2 GT PUSH2 0x8B4 JUMPI JUMPDEST POP PUSH1 0x20 SWAP1 PUSH1 0x1F DUP4 GT PUSH1 0x1 EQ PUSH2 0x842 JUMPI PUSH1 0x0 SWAP3 PUSH2 0x837 JUMPI JUMPDEST POP POP DUP2 PUSH1 0x1 SHL SWAP2 PUSH1 0x0 NOT SWAP1 PUSH1 0x3 SHL SHR NOT AND OR PUSH1 0x2 DUP4 ADD SSTORE JUMPDEST PUSH1 0x60 DUP2 ADD MLOAD DUP1 MLOAD SWAP1 PUSH8 0xFFFFFFFFFFFFFFFF DUP3 GT PUSH2 0x751 JUMPI DUP2 SWAP1 PUSH2 0x517 PUSH1 0x3 DUP7 ADD SLOAD PUSH2 0x10E9 JUMP JUMPDEST PUSH1 0x1F DUP2 GT PUSH2 0x7E4 JUMPI JUMPDEST POP PUSH1 0x20 SWAP1 PUSH1 0x1F DUP4 GT PUSH1 0x1 EQ PUSH2 0x772 JUMPI PUSH1 0x0 SWAP3 PUSH2 0x767 JUMPI JUMPDEST POP POP DUP2 PUSH1 0x1 SHL SWAP2 PUSH1 0x0 NOT SWAP1 PUSH1 0x3 SHL SHR NOT AND OR PUSH1 0x3 DUP4 ADD SSTORE JUMPDEST PUSH1 0xFF PUSH1 0x80 DUP3 ADD MLOAD AND PUSH1 0xFF NOT PUSH1 0x4 DUP5 ADD SLOAD AND OR PUSH1 0x4 DUP4 ADD SSTORE PUSH1 0xA0 DUP2 ADD MLOAD DUP1 MLOAD SWAP1 PUSH8 0xFFFFFFFFFFFFFFFF DUP3 GT PUSH2 0x751 JUMPI PUSH2 0x58A PUSH1 0x5 DUP6 ADD SLOAD PUSH2 0x10E9 JUMP JUMPDEST PUSH1 0x1F DUP2 GT PUSH2 0x70A JUMPI JUMPDEST POP SWAP3 DUP7 SWAP6 SWAP3 PUSH1 0x20 SWAP11 SWAP6 SWAP3 DUP11 SWAP6 DUP13 SWAP1 PUSH1 0x1F DUP4 GT PUSH1 0x1 EQ PUSH2 0x691 JUMPI SWAP2 DUP1 PUSH1 0x6 SWAP5 SWAP3 PUSH1 0xC0 SWAP5 PUSH1 0x0 SWAP3 PUSH2 0x686 JUMPI JUMPDEST POP POP DUP2 PUSH1 0x1 SHL SWAP2 PUSH1 0x0 NOT SWAP1 PUSH1 0x3 SHL SHR NOT AND OR PUSH1 0x5 DUP6 ADD SSTORE JUMPDEST ADD MLOAD SWAP2 ADD SSTORE PUSH1 0x0 MSTORE PUSH1 0x8 DUP9 MSTORE PUSH1 0x40 PUSH1 0x0 KECCAK256 PUSH1 0x1 PUSH1 0xFF NOT DUP3 SLOAD AND OR SWAP1 SSTORE PUSH1 0x40 MLOAD SWAP6 AND PUSH1 0x0 PUSH32 0xDDF252AD1BE2C89B69C2B068FC378DAA952BA7F163C4A11628F55A4DF523B3EF DUP2 DUP1 LOG4 PUSH1 0xFF PUSH1 0xA4 CALLDATALOAD AND DUP5 MSTORE PUSH1 0x60 DUP7 DUP6 ADD MSTORE DUP2 PUSH1 0x60 DUP6 ADD MSTORE PUSH1 0x80 DUP5 ADD CALLDATACOPY PUSH1 0x0 PUSH1 0x80 DUP3 DUP5 ADD ADD MSTORE TIMESTAMP PUSH1 0x40 DUP4 ADD MSTORE DUP3 PUSH32 0x537702284ECC21650A874A15567734F5D429443F398BE96FCCF6A73A0EBBE967 PUSH1 0x44 CALLDATALOAD SWAP4 PUSH1 0x80 DUP2 PUSH1 0x24 CALLDATALOAD SWAP6 PUSH1 0x1F DUP1 NOT SWAP2 ADD AND DUP2 ADD SUB ADD SWAP1 LOG4 PUSH1 0x40 MLOAD SWAP1 DUP2 MSTORE RETURN JUMPDEST ADD MLOAD SWAP1 POP DUP16 DUP1 PUSH2 0x5BD JUMP JUMPDEST SWAP1 PUSH1 0x5 DUP6 ADD PUSH1 0x0 MSTORE DUP14 PUSH1 0x0 KECCAK256 SWAP2 PUSH1 0x0 JUMPDEST PUSH1 0x1F NOT DUP6 AND DUP2 LT PUSH2 0x6ED JUMPI POP SWAP3 PUSH1 0x6 SWAP5 SWAP3 PUSH1 0x1 SWAP3 PUSH1 0xC0 SWAP6 DUP4 PUSH1 0x1F NOT DUP2 AND LT PUSH2 0x6D4 JUMPI JUMPDEST POP POP POP DUP2 SHL ADD PUSH1 0x5 DUP6 ADD SSTORE PUSH2 0x5D5 JUMP JUMPDEST ADD MLOAD PUSH1 0x0 NOT PUSH1 0xF8 DUP5 PUSH1 0x3 SHL AND SHR NOT AND SWAP1 SSTORE DUP16 DUP1 DUP1 PUSH2 0x6C4 JUMP JUMPDEST DUP3 DUP3 ADD MLOAD DUP5 SSTORE DUP13 SWAP12 POP DUP15 SWAP10 POP PUSH1 0x1 SWAP1 SWAP4 ADD SWAP3 SWAP2 DUP16 ADD SWAP2 DUP16 ADD PUSH2 0x6A1 JUMP JUMPDEST PUSH1 0x5 DUP6 ADD PUSH1 0x0 MSTORE PUSH1 0x20 PUSH1 0x0 KECCAK256 PUSH1 0x1F DUP5 ADD PUSH1 0x5 SHR DUP2 ADD PUSH1 0x20 DUP6 LT PUSH2 0x74A JUMPI JUMPDEST PUSH1 0x1F DUP4 ADD PUSH1 0x5 SHR DUP3 ADD DUP2 LT PUSH2 0x73E JUMPI POP POP PUSH2 0x593 JUMP JUMPDEST PUSH1 0x0 DUP2 SSTORE PUSH1 0x1 ADD PUSH2 0x728 JUMP JUMPDEST POP DUP1 PUSH2 0x728 JUMP JUMPDEST PUSH4 0x4E487B71 PUSH1 0xE0 SHL PUSH1 0x0 MSTORE PUSH1 0x41 PUSH1 0x4 MSTORE PUSH1 0x24 PUSH1 0x0 REVERT JUMPDEST ADD MLOAD SWAP1 POP DUP11 DUP1 PUSH2 0x537 JUMP JUMPDEST SWAP3 POP PUSH1 0x3 DUP6 ADD PUSH1 0x0 MSTORE PUSH1 0x20 PUSH1 0x0 KECCAK256 SWAP1 PUSH1 0x0 SWAP4 JUMPDEST PUSH1 0x1F NOT DUP5 AND DUP6 LT PUSH2 0x7C9 JUMPI PUSH1 0x1 SWAP5 POP DUP4 PUSH1 0x1F NOT DUP2 AND LT PUSH2 0x7B0 JUMPI JUMPDEST POP POP POP DUP2 SHL ADD PUSH1 0x3 DUP4 ADD SSTORE PUSH2 0x54F JUMP JUMPDEST ADD MLOAD PUSH1 0x0 NOT PUSH1 0xF8 DUP5 PUSH1 0x3 SHL AND SHR NOT AND SWAP1 SSTORE DUP11 DUP1 DUP1 PUSH2 0x7A0 JUMP JUMPDEST DUP2 DUP2 ADD MLOAD DUP4 SSTORE PUSH1 0x20 SWAP5 DUP6 ADD SWAP5 PUSH1 0x1 SWAP1 SWAP4 ADD SWAP3 SWAP1 SWAP2 ADD SWAP1 PUSH2 0x785 JUMP JUMPDEST SWAP1 SWAP2 POP PUSH1 0x3 DUP6 ADD PUSH1 0x0 MSTORE PUSH1 0x20 PUSH1 0x0 KECCAK256 PUSH1 0x1F DUP5 ADD PUSH1 0x5 SHR DUP2 ADD PUSH1 0x20 DUP6 LT PUSH2 0x830 JUMPI JUMPDEST SWAP1 DUP5 SWAP4 SWAP3 SWAP2 JUMPDEST PUSH1 0x1F DUP4 ADD PUSH1 0x5 SHR DUP3 ADD DUP2 LT PUSH2 0x821 JUMPI POP POP PUSH2 0x520 JUMP JUMPDEST PUSH1 0x0 DUP2 SSTORE DUP6 SWAP5 POP PUSH1 0x1 ADD PUSH2 0x80B JUMP JUMPDEST POP DUP1 PUSH2 0x805 JUMP JUMPDEST ADD MLOAD SWAP1 POP DUP11 DUP1 PUSH2 0x4D9 JUMP JUMPDEST SWAP3 POP PUSH1 0x2 DUP6 ADD PUSH1 0x0 MSTORE PUSH1 0x20 PUSH1 0x0 KECCAK256 SWAP1 PUSH1 0x0 SWAP4 JUMPDEST PUSH1 0x1F NOT DUP5 AND DUP6 LT PUSH2 0x899 JUMPI PUSH1 0x1 SWAP5 POP DUP4 PUSH1 0x1F NOT DUP2 AND LT PUSH2 0x880 JUMPI JUMPDEST POP POP POP DUP2 SHL ADD PUSH1 0x2 DUP4 ADD SSTORE PUSH2 0x4F1 JUMP JUMPDEST ADD MLOAD PUSH1 0x0 NOT PUSH1 0xF8 DUP5 PUSH1 0x3 SHL AND SHR NOT AND SWAP1 SSTORE DUP11 DUP1 DUP1 PUSH2 0x870 JUMP JUMPDEST DUP2 DUP2 ADD MLOAD DUP4 SSTORE PUSH1 0x20 SWAP5 DUP6 ADD SWAP5 PUSH1 0x1 SWAP1 SWAP4 ADD SWAP3 SWAP1 SWAP2 ADD SWAP1 PUSH2 0x855 JUMP JUMPDEST SWAP1 SWAP2 POP PUSH1 0x2 DUP6 ADD PUSH1 0x0 MSTORE PUSH1 0x20 PUSH1 0x0 KECCAK256 PUSH1 0x1F DUP5 ADD PUSH1 0x5 SHR DUP2 ADD PUSH1 0x20 DUP6 LT PUSH2 0x900 JUMPI JUMPDEST SWAP1 DUP5 SWAP4 SWAP3 SWAP2 JUMPDEST PUSH1 0x1F DUP4 ADD PUSH1 0x5 SHR DUP3 ADD DUP2 LT PUSH2 0x8F1 JUMPI POP POP PUSH2 0x4C2 JUMP JUMPDEST PUSH1 0x0 DUP2 SSTORE DUP6 SWAP5 POP PUSH1 0x1 ADD PUSH2 0x8DB JUMP JUMPDEST POP DUP1 PUSH2 0x8D5 JUMP JUMPDEST PUSH4 0x4E487B71 PUSH1 0xE0 SHL PUSH1 0x0 MSTORE PUSH1 0x11 PUSH1 0x4 MSTORE PUSH1 0x24 PUSH1 0x0 REVERT JUMPDEST PUSH1 0x40 MLOAD PUSH3 0x461BCD PUSH1 0xE5 SHL DUP2 MSTORE PUSH1 0x20 PUSH1 0x4 DUP3 ADD MSTORE PUSH1 0x19 PUSH1 0x24 DUP3 ADD MSTORE PUSH32 0x4D696C6573746F6E6520616C726561647920636C61696D656400000000000000 PUSH1 0x44 DUP3 ADD MSTORE PUSH1 0x64 SWAP1 REVERT JUMPDEST PUSH1 0x24 CALLDATALOAD PUSH2 0x39A PUSH2 0x3A8 PUSH1 0x44 CALLDATALOAD PUSH2 0x368 JUMP JUMPDEST PUSH1 0x40 MLOAD PUSH3 0x461BCD PUSH1 0xE5 SHL DUP2 MSTORE PUSH1 0x20 PUSH1 0x4 DUP3 ADD MSTORE PUSH1 0x17 PUSH1 0x24 DUP3 ADD MSTORE PUSH32 0x55736572206964732063616E6E6F74206265207A65726F000000000000000000 PUSH1 0x44 DUP3 ADD MSTORE PUSH1 0x64 SWAP1 REVERT JUMPDEST POP PUSH1 0x44 CALLDATALOAD ISZERO ISZERO PUSH2 0x34A JUMP JUMPDEST PUSH1 0x40 MLOAD PUSH3 0x461BCD PUSH1 0xE5 SHL DUP2 MSTORE PUSH1 0x20 PUSH1 0x4 DUP3 ADD MSTORE PUSH1 0x18 PUSH1 0x24 DUP3 ADD MSTORE PUSH32 0x526563697069656E742063616E6E6F74206265207A65726F0000000000000000 PUSH1 0x44 DUP3 ADD MSTORE PUSH1 0x64 SWAP1 REVERT JUMPDEST CALLVALUE PUSH2 0x18D JUMPI PUSH1 0x80 CALLDATASIZE PUSH1 0x3 NOT ADD SLT PUSH2 0x18D JUMPI PUSH2 0xA21 PUSH2 0x1247 JUMP JUMPDEST PUSH2 0xA29 PUSH2 0x125D JUMP JUMPDEST SWAP1 PUSH1 0x64 CALLDATALOAD SWAP2 PUSH8 0xFFFFFFFFFFFFFFFF DUP4 GT PUSH2 0x18D JUMPI PUSH2 0xA4E PUSH2 0xA59 SWAP4 CALLDATASIZE SWAP1 PUSH1 0x4 ADD PUSH2 0x12A8 JUMP JUMPDEST POP POP PUSH1 0x44 CALLDATALOAD SWAP2 PUSH2 0x137C JUMP JUMPDEST STOP JUMPDEST CALLVALUE PUSH2 0x18D JUMPI PUSH1 0x40 CALLDATASIZE PUSH1 0x3 NOT ADD SLT PUSH2 0x18D JUMPI PUSH2 0xA74 PUSH2 0x1247 JUMP JUMPDEST PUSH1 0x24 CALLDATALOAD DUP1 ISZERO ISZERO DUP1 SWAP2 SUB PUSH2 0x18D JUMPI CALLER PUSH1 0x0 MSTORE PUSH1 0x6 PUSH1 0x20 MSTORE PUSH1 0x40 PUSH1 0x0 KECCAK256 SWAP2 PUSH1 0x1 DUP1 PUSH1 0xA0 SHL SUB AND SWAP2 DUP3 PUSH1 0x0 MSTORE PUSH1 0x20 MSTORE PUSH1 0x40 PUSH1 0x0 KECCAK256 PUSH1 0xFF NOT DUP2 SLOAD AND PUSH1 0xFF DUP4 AND OR SWAP1 SSTORE PUSH1 0x40 MLOAD SWAP1 DUP2 MSTORE PUSH32 0x17307EAB39AB6107E8899845AD3D59BD9653F200F220920489CA2B5937696C31 PUSH1 0x20 CALLER SWAP3 LOG3 STOP JUMPDEST CALLVALUE PUSH2 0x18D JUMPI PUSH1 0x0 CALLDATASIZE PUSH1 0x3 NOT ADD SLT PUSH2 0x18D JUMPI PUSH1 0x40 MLOAD PUSH1 0x0 PUSH1 0x1 DUP1 SLOAD SWAP1 PUSH2 0xB04 DUP3 PUSH2 0x10E9 JUMP JUMPDEST DUP1 DUP6 MSTORE SWAP2 DUP2 DUP2 AND SWAP1 DUP2 ISZERO PUSH2 0xB9C JUMPI POP PUSH1 0x1 EQ PUSH2 0xB43 JUMPI JUMPDEST PUSH2 0xB3F DUP5 PUSH2 0xB2B DUP2 DUP7 SUB DUP3 PUSH2 0x113F JUMP JUMPDEST PUSH1 0x40 MLOAD SWAP2 DUP3 SWAP2 PUSH1 0x20 DUP4 MSTORE PUSH1 0x20 DUP4 ADD SWAP1 PUSH2 0x1207 JUMP JUMPDEST SUB SWAP1 RETURN JUMPDEST PUSH1 0x0 DUP2 DUP2 MSTORE SWAP3 POP PUSH32 0xB10E2D527612073B26EECDFD717E6A320CF44B4AFAC2B0732D9FCBE2B7FA0CF6 JUMPDEST DUP3 DUP5 LT PUSH2 0xB84 JUMPI POP POP POP DUP2 ADD PUSH1 0x20 ADD PUSH2 0xB2B DUP3 PUSH2 0xB1B JUMP JUMPDEST DUP1 SLOAD PUSH1 0x20 DUP6 DUP8 ADD DUP2 ADD SWAP2 SWAP1 SWAP2 MSTORE SWAP1 SWAP4 ADD SWAP3 DUP2 ADD PUSH2 0xB6C JUMP JUMPDEST PUSH1 0xFF NOT AND PUSH1 0x20 DUP1 DUP8 ADD SWAP2 SWAP1 SWAP2 MSTORE SWAP3 ISZERO ISZERO PUSH1 0x5 SHL DUP6 ADD SWAP1 SWAP3 ADD SWAP3 POP PUSH2 0xB2B SWAP2 POP DUP4 SWAP1 POP PUSH2 0xB1B JUMP JUMPDEST CALLVALUE PUSH2 0x18D JUMPI PUSH1 0x0 CALLDATASIZE PUSH1 0x3 NOT ADD SLT PUSH2 0x18D JUMPI PUSH1 0x9 SLOAD PUSH1 0x40 MLOAD PUSH1 0x1 PUSH1 0x1 PUSH1 0xA0 SHL SUB SWAP1 SWAP2 AND DUP2 MSTORE PUSH1 0x20 SWAP1 RETURN JUMPDEST CALLVALUE PUSH2 0x18D JUMPI PUSH1 0x20 CALLDATASIZE PUSH1 0x3 NOT ADD SLT PUSH2 0x18D JUMPI PUSH1 0x1 PUSH1 0x1 PUSH1 0xA0 SHL SUB PUSH2 0xC0D PUSH2 0x1247 JUMP JUMPDEST AND DUP1 ISZERO PUSH2 0xC2C JUMPI PUSH1 0x0 MSTORE PUSH1 0x4 PUSH1 0x20 MSTORE PUSH1 0x20 PUSH1 0x40 PUSH1 0x0 KECCAK256 SLOAD PUSH1 0x40 MLOAD SWAP1 DUP2 MSTORE RETURN JUMPDEST PUSH1 0x40 MLOAD PUSH3 0x461BCD PUSH1 0xE5 SHL DUP2 MSTORE PUSH1 0x20 PUSH1 0x4 DUP3 ADD MSTORE PUSH1 0xC PUSH1 0x24 DUP3 ADD MSTORE PUSH12 0x5A65726F2061646472657373 PUSH1 0xA0 SHL PUSH1 0x44 DUP3 ADD MSTORE PUSH1 0x64 SWAP1 REVERT JUMPDEST CALLVALUE PUSH2 0x18D JUMPI PUSH1 0x60 CALLDATASIZE PUSH1 0x3 NOT ADD SLT PUSH2 0x18D JUMPI PUSH1 0x24 CALLDATALOAD PUSH1 0x44 CALLDATALOAD PUSH1 0x4 CALLDATALOAD PUSH1 0xFF DUP3 AND DUP3 SUB PUSH2 0x18D JUMPI DUP3 DUP2 LT ISZERO PUSH2 0xCE3 JUMPI PUSH2 0xCC3 SWAP1 SWAP3 JUMPDEST PUSH1 0x40 DUP1 MLOAD PUSH1 0x20 DUP2 ADD SWAP6 DUP7 MSTORE SWAP1 DUP2 ADD SWAP2 SWAP1 SWAP2 MSTORE PUSH1 0xF8 SWAP3 SWAP1 SWAP3 SHL PUSH1 0x1 PUSH1 0x1 PUSH1 0xF8 SHL SUB NOT AND PUSH1 0x60 DUP4 ADD MSTORE DUP2 PUSH1 0x61 DUP2 ADD PUSH2 0x39A JUMP JUMPDEST MLOAD SWAP1 KECCAK256 PUSH1 0x0 MSTORE PUSH1 0x8 PUSH1 0x20 MSTORE PUSH1 0x20 PUSH1 0xFF PUSH1 0x40 PUSH1 0x0 KECCAK256 SLOAD AND PUSH1 0x40 MLOAD SWAP1 ISZERO ISZERO DUP2 MSTORE RETURN JUMPDEST PUSH2 0xCC3 SWAP1 PUSH2 0xC92 JUMP JUMPDEST CALLVALUE PUSH2 0x18D JUMPI PUSH1 0x20 CALLDATASIZE PUSH1 0x3 NOT ADD SLT PUSH2 0x18D JUMPI PUSH1 0x20 PUSH2 0xD0A PUSH1 0x4 CALLDATALOAD PUSH2 0x1319 JUMP JUMPDEST PUSH1 0x40 MLOAD PUSH1 0x1 PUSH1 0x1 PUSH1 0xA0 SHL SUB SWAP1 SWAP2 AND DUP2 MSTORE RETURN JUMPDEST CALLVALUE PUSH2 0x18D JUMPI PUSH1 0x20 CALLDATASIZE PUSH1 0x3 NOT ADD SLT PUSH2 0x18D JUMPI PUSH1 0x4 CALLDATALOAD PUSH1 0x0 MSTORE PUSH1 0x8 PUSH1 0x20 MSTORE PUSH1 0x20 PUSH1 0xFF PUSH1 0x40 PUSH1 0x0 KECCAK256 SLOAD AND PUSH1 0x40 MLOAD SWAP1 ISZERO ISZERO DUP2 MSTORE RETURN JUMPDEST CALLVALUE PUSH2 0x18D JUMPI PUSH2 0xA59 PUSH2 0xD5E CALLDATASIZE PUSH2 0x1273 JUMP JUMPDEST SWAP2 PUSH2 0x137C JUMP JUMPDEST CALLVALUE PUSH2 0x18D JUMPI PUSH1 0x20 SWAP1 DUP2 PUSH1 0x3 NOT CALLDATASIZE ADD SLT PUSH2 0x18D JUMPI PUSH1 0x40 MLOAD SWAP1 PUSH1 0x4 CALLDATALOAD PUSH2 0xD87 DUP4 PUSH2 0x1123 JUMP JUMPDEST PUSH1 0x0 DUP4 MSTORE DUP4 DUP4 ADD PUSH1 0x0 SWAP1 MSTORE PUSH1 0x60 SWAP3 DUP4 PUSH1 0x40 DUP3 ADD MSTORE DUP4 DUP1 DUP3 ADD MSTORE PUSH1 0x80 DUP2 ADD PUSH1 0x0 SWAP1 MSTORE DUP4 PUSH1 0xA0 DUP3 ADD MSTORE PUSH1 0xC0 ADD PUSH1 0x0 SWAP1 MSTORE DUP1 PUSH1 0x0 MSTORE PUSH1 0x3 DUP5 MSTORE PUSH1 0x1 PUSH1 0xA0 SHL PUSH1 0x1 SWAP1 SUB PUSH1 0x40 PUSH1 0x0 KECCAK256 SLOAD AND ISZERO ISZERO PUSH2 0xDD8 SWAP1 PUSH2 0x12D6 JUMP JUMPDEST PUSH1 0x0 MSTORE PUSH1 0x7 DUP4 MSTORE PUSH1 0x40 PUSH1 0x0 KECCAK256 SWAP1 PUSH1 0x40 MLOAD SWAP3 PUSH2 0xDF2 DUP5 PUSH2 0x1123 JUMP JUMPDEST DUP3 SLOAD DUP5 MSTORE PUSH1 0x1 DUP4 ADD SLOAD DUP6 DUP6 ADD SWAP1 DUP2 MSTORE SWAP3 PUSH2 0xE0E PUSH1 0x2 DUP3 ADD PUSH2 0x1161 JUMP JUMPDEST PUSH1 0x40 DUP7 ADD SWAP1 DUP2 MSTORE SWAP1 PUSH2 0xE22 PUSH1 0x3 DUP3 ADD PUSH2 0x1161 JUMP JUMPDEST SWAP3 DUP1 DUP8 ADD SWAP4 DUP5 MSTORE DUP5 PUSH1 0x4 DUP4 ADD SLOAD PUSH1 0xFF AND SWAP4 PUSH1 0x80 DUP10 ADD SWAP5 DUP6 MSTORE PUSH1 0x5 DUP5 ADD PUSH2 0xE47 SWAP1 PUSH2 0x1161 JUMP JUMPDEST SWAP4 PUSH1 0xA0 DUP11 ADD SWAP5 DUP6 MSTORE PUSH1 0x6 ADD SLOAD SWAP8 PUSH1 0xC0 DUP11 ADD SWAP9 DUP10 MSTORE PUSH1 0x40 MLOAD SWAP11 DUP12 SWAP11 DUP2 DUP13 MSTORE MLOAD SWAP1 DUP12 ADD MSTORE MLOAD PUSH1 0x40 DUP11 ADD MSTORE MLOAD SWAP2 DUP9 ADD MSTORE PUSH2 0x100 DUP8 ADD PUSH2 0xE82 SWAP2 PUSH2 0x1207 JUMP JUMPDEST SWAP3 MLOAD PUSH1 0x1F NOT SWAP4 DUP5 DUP9 DUP3 SUB ADD PUSH1 0x80 DUP10 ADD MSTORE PUSH2 0xE9B SWAP2 PUSH2 0x1207 JUMP JUMPDEST SWAP2 MLOAD PUSH1 0xFF AND PUSH1 0xA0 DUP8 ADD MSTORE MLOAD SWAP2 DUP6 DUP3 SUB ADD PUSH1 0xC0 DUP7 ADD MSTORE PUSH2 0xEB9 SWAP2 PUSH2 0x1207 JUMP JUMPDEST SWAP2 MLOAD SWAP1 DUP4 ADD MSTORE SUB SWAP1 RETURN JUMPDEST CALLVALUE PUSH2 0x18D JUMPI PUSH1 0x0 CALLDATASIZE PUSH1 0x3 NOT ADD SLT PUSH2 0x18D JUMPI PUSH1 0x2 SLOAD PUSH1 0x0 NOT DUP2 ADD SWAP1 DUP2 GT PUSH2 0x907 JUMPI PUSH1 0x20 SWAP1 PUSH1 0x40 MLOAD SWAP1 DUP2 MSTORE RETURN JUMPDEST CALLVALUE PUSH2 0x18D JUMPI PUSH1 0x40 CALLDATASIZE PUSH1 0x3 NOT ADD SLT PUSH2 0x18D JUMPI PUSH2 0xF07 PUSH2 0x1247 JUMP JUMPDEST PUSH1 0x24 CALLDATALOAD SWAP1 PUSH1 0x1 PUSH1 0x1 PUSH1 0xA0 SHL SUB DUP1 PUSH2 0xF1D DUP5 PUSH2 0x1319 JUMP JUMPDEST AND SWAP1 DUP2 CALLER EQ DUP1 ISZERO PUSH2 0xF7C JUMPI JUMPDEST PUSH2 0xF32 SWAP1 PUSH2 0x133F JUMP JUMPDEST DUP4 PUSH1 0x0 MSTORE PUSH1 0x5 PUSH1 0x20 MSTORE PUSH1 0x40 PUSH1 0x0 KECCAK256 SWAP3 AND SWAP2 DUP3 PUSH1 0x1 PUSH1 0x1 PUSH1 0x60 SHL SUB PUSH1 0xA0 SHL DUP3 SLOAD AND OR SWAP1 SSTORE PUSH32 0x8C5BE1E5EBEC7D5BD14F71427D1E84F3DD0314C0F7B2291E5B200AC8C7C3B925 PUSH1 0x0 DUP1 LOG4 STOP JUMPDEST POP DUP2 PUSH1 0x0 MSTORE PUSH1 0x6 PUSH1 0x20 MSTORE PUSH1 0x40 PUSH1 0x0 KECCAK256 CALLER PUSH1 0x0 MSTORE PUSH1 0x20 MSTORE PUSH2 0xF32 PUSH1 0xFF PUSH1 0x40 PUSH1 0x0 KECCAK256 SLOAD AND SWAP1 POP PUSH2 0xF29 JUMP JUMPDEST CALLVALUE PUSH2 0x18D JUMPI PUSH1 0x20 CALLDATASIZE PUSH1 0x3 NOT ADD SLT PUSH2 0x18D JUMPI PUSH1 0x20 PUSH1 0x4 CALLDATALOAD DUP1 PUSH1 0x0 MSTORE PUSH1 0x3 DUP3 MSTORE PUSH1 0x1 DUP1 PUSH1 0xA0 SHL SUB SWAP1 PUSH2 0xFDD DUP3 PUSH1 0x40 PUSH1 0x0 KECCAK256 SLOAD AND ISZERO ISZERO PUSH2 0x12D6 JUMP JUMPDEST PUSH1 0x0 MSTORE PUSH1 0x5 DUP3 MSTORE PUSH1 0x40 PUSH1 0x0 KECCAK256 SLOAD AND PUSH1 0x40 MLOAD SWAP1 DUP2 MSTORE RETURN JUMPDEST CALLVALUE PUSH2 0x18D JUMPI PUSH1 0x0 CALLDATASIZE PUSH1 0x3 NOT ADD SLT PUSH2 0x18D JUMPI PUSH1 0x40 MLOAD PUSH1 0x0 DUP1 SLOAD PUSH2 0x1014 DUP2 PUSH2 0x10E9 JUMP JUMPDEST DUP1 DUP5 MSTORE SWAP1 PUSH1 0x1 SWAP1 DUP2 DUP2 AND SWAP1 DUP2 ISZERO PUSH2 0xB9C JUMPI POP PUSH1 0x1 EQ PUSH2 0x103D JUMPI PUSH2 0xB3F DUP5 PUSH2 0xB2B DUP2 DUP7 SUB DUP3 PUSH2 0x113F JUMP JUMPDEST PUSH1 0x0 DUP1 DUP1 MSTORE SWAP3 POP PUSH32 0x290DECD9548B62A8D60345A988386FC84BA6BC95484008F6362F93160EF3E563 JUMPDEST DUP3 DUP5 LT PUSH2 0x107E JUMPI POP POP POP DUP2 ADD PUSH1 0x20 ADD PUSH2 0xB2B DUP3 PUSH2 0xB1B JUMP JUMPDEST DUP1 SLOAD PUSH1 0x20 DUP6 DUP8 ADD DUP2 ADD SWAP2 SWAP1 SWAP2 MSTORE SWAP1 SWAP4 ADD SWAP3 DUP2 ADD PUSH2 0x1066 JUMP JUMPDEST CALLVALUE PUSH2 0x18D JUMPI PUSH1 0x20 CALLDATASIZE PUSH1 0x3 NOT ADD SLT PUSH2 0x18D JUMPI PUSH1 0x4 CALLDATALOAD SWAP1 PUSH4 0xFFFFFFFF PUSH1 0xE0 SHL DUP3 AND DUP1 SWAP3 SUB PUSH2 0x18D JUMPI PUSH1 0x20 SWAP2 PUSH4 0x80AC58CD PUSH1 0xE0 SHL DUP2 EQ SWAP1 DUP2 ISZERO PUSH2 0x10D8 JUMPI JUMPDEST POP ISZERO ISZERO DUP2 MSTORE RETURN JUMPDEST PUSH4 0x1FFC9A7 PUSH1 0xE0 SHL EQ SWAP1 POP DUP4 PUSH2 0x10D1 JUMP JUMPDEST SWAP1 PUSH1 0x1 DUP3 DUP2 SHR SWAP3 AND DUP1 ISZERO PUSH2 0x1119 JUMPI JUMPDEST PUSH1 0x20 DUP4 LT EQ PUSH2 0x1103 JUMPI JUMP JUMPDEST PUSH4 0x4E487B71 PUSH1 0xE0 SHL PUSH1 0x0 MSTORE PUSH1 0x22 PUSH1 0x4 MSTORE PUSH1 0x24 PUSH1 0x0 REVERT JUMPDEST SWAP2 PUSH1 0x7F AND SWAP2 PUSH2 0x10F8 JUMP JUMPDEST PUSH1 0xE0 DUP2 ADD SWAP1 DUP2 LT PUSH8 0xFFFFFFFFFFFFFFFF DUP3 GT OR PUSH2 0x751 JUMPI PUSH1 0x40 MSTORE JUMP JUMPDEST SWAP1 PUSH1 0x1F DUP1 NOT SWAP2 ADD AND DUP2 ADD SWAP1 DUP2 LT PUSH8 0xFFFFFFFFFFFFFFFF DUP3 GT OR PUSH2 0x751 JUMPI PUSH1 0x40 MSTORE JUMP JUMPDEST SWAP1 PUSH1 0x40 MLOAD SWAP2 DUP3 PUSH1 0x0 DUP3 SLOAD SWAP3 PUSH2 0x1175 DUP5 PUSH2 0x10E9 JUMP JUMPDEST SWAP1 DUP2 DUP5 MSTORE PUSH1 0x1 SWAP5 DUP6 DUP2 AND SWAP1 DUP2 PUSH1 0x0 EQ PUSH2 0x11E4 JUMPI POP PUSH1 0x1 EQ PUSH2 0x11A1 JUMPI JUMPDEST POP POP PUSH2 0x119F SWAP3 POP SUB DUP4 PUSH2 0x113F JUMP JUMPDEST JUMP JUMPDEST SWAP1 SWAP4 SWAP2 POP PUSH1 0x0 MSTORE PUSH1 0x20 SWAP1 DUP2 PUSH1 0x0 KECCAK256 SWAP4 PUSH1 0x0 SWAP2 JUMPDEST DUP2 DUP4 LT PUSH2 0x11CC JUMPI POP POP PUSH2 0x119F SWAP4 POP DUP3 ADD ADD CODESIZE DUP1 PUSH2 0x1191 JUMP JUMPDEST DUP6 SLOAD DUP9 DUP5 ADD DUP6 ADD MSTORE SWAP5 DUP6 ADD SWAP5 DUP8 SWAP5 POP SWAP2 DUP4 ADD SWAP2 PUSH2 0x11B4 JUMP JUMPDEST SWAP2 POP POP PUSH2 0x119F SWAP5 POP PUSH1 0x20 SWAP3 POP PUSH1 0xFF NOT AND DUP3 DUP5 ADD MSTORE ISZERO ISZERO PUSH1 0x5 SHL DUP3 ADD ADD CODESIZE DUP1 PUSH2 0x1191 JUMP JUMPDEST SWAP2 SWAP1 DUP3 MLOAD SWAP3 DUP4 DUP3 MSTORE PUSH1 0x0 JUMPDEST DUP5 DUP2 LT PUSH2 0x1233 JUMPI POP POP DUP3 PUSH1 0x0 PUSH1 0x20 DUP1 SWAP5 SWAP6 DUP5 ADD ADD MSTORE PUSH1 0x1F DUP1 NOT SWAP2 ADD AND ADD ADD SWAP1 JUMP JUMPDEST PUSH1 0x20 DUP2 DUP4 ADD DUP2 ADD MLOAD DUP5 DUP4 ADD DUP3 ADD MSTORE ADD PUSH2 0x1212 JUMP JUMPDEST PUSH1 0x4 CALLDATALOAD SWAP1 PUSH1 0x1 PUSH1 0x1 PUSH1 0xA0 SHL SUB DUP3 AND DUP3 SUB PUSH2 0x18D JUMPI JUMP JUMPDEST PUSH1 0x24 CALLDATALOAD SWAP1 PUSH1 0x1 PUSH1 0x1 PUSH1 0xA0 SHL SUB DUP3 AND DUP3 SUB PUSH2 0x18D JUMPI JUMP JUMPDEST PUSH1 0x60 SWAP1 PUSH1 0x3 NOT ADD SLT PUSH2 0x18D JUMPI PUSH1 0x1 PUSH1 0x1 PUSH1 0xA0 SHL SUB SWAP1 PUSH1 0x4 CALLDATALOAD DUP3 DUP2 AND DUP2 SUB PUSH2 0x18D JUMPI SWAP2 PUSH1 0x24 CALLDATALOAD SWAP1 DUP2 AND DUP2 SUB PUSH2 0x18D JUMPI SWAP1 PUSH1 0x44 CALLDATALOAD SWAP1 JUMP JUMPDEST SWAP2 DUP2 PUSH1 0x1F DUP5 ADD SLT ISZERO PUSH2 0x18D JUMPI DUP3 CALLDATALOAD SWAP2 PUSH8 0xFFFFFFFFFFFFFFFF DUP4 GT PUSH2 0x18D JUMPI PUSH1 0x20 DUP4 DUP2 DUP7 ADD SWAP6 ADD ADD GT PUSH2 0x18D JUMPI JUMP JUMPDEST ISZERO PUSH2 0x12DD JUMPI JUMP JUMPDEST PUSH1 0x40 MLOAD PUSH3 0x461BCD PUSH1 0xE5 SHL DUP2 MSTORE PUSH1 0x20 PUSH1 0x4 DUP3 ADD MSTORE PUSH1 0x14 PUSH1 0x24 DUP3 ADD MSTORE PUSH20 0x151BDAD95B88191BD95CC81B9BDD08195E1A5CDD PUSH1 0x62 SHL PUSH1 0x44 DUP3 ADD MSTORE PUSH1 0x64 SWAP1 REVERT JUMPDEST PUSH1 0x0 SWAP1 DUP2 MSTORE PUSH1 0x3 PUSH1 0x20 MSTORE PUSH1 0x40 SWAP1 KECCAK256 SLOAD PUSH1 0x1 PUSH1 0x1 PUSH1 0xA0 SHL SUB AND PUSH2 0x133C DUP2 ISZERO ISZERO PUSH2 0x12D6 JUMP JUMPDEST SWAP1 JUMP JUMPDEST ISZERO PUSH2 0x1346 JUMPI JUMP JUMPDEST PUSH1 0x40 MLOAD PUSH3 0x461BCD PUSH1 0xE5 SHL DUP2 MSTORE PUSH1 0x20 PUSH1 0x4 DUP3 ADD MSTORE PUSH1 0xE PUSH1 0x24 DUP3 ADD MSTORE PUSH14 0x139BDD08185D5D1A1BDC9A5E9959 PUSH1 0x92 SHL PUSH1 0x44 DUP3 ADD MSTORE PUSH1 0x64 SWAP1 REVERT JUMPDEST PUSH1 0x1 PUSH1 0x1 PUSH1 0xA0 SHL SUB SWAP2 DUP3 AND SWAP2 SWAP1 DUP3 ISZERO PUSH2 0x14E2 JUMPI DUP2 DUP1 PUSH2 0x139A DUP7 PUSH2 0x1319 JUMP JUMPDEST AND SWAP2 AND SWAP2 DUP2 DUP4 SUB PUSH2 0x14A9 JUMPI DUP2 CALLER EQ SWAP1 DUP2 ISZERO PUSH2 0x148E JUMPI JUMPDEST POP DUP1 ISZERO PUSH2 0x1468 JUMPI JUMPDEST PUSH2 0x13C2 SWAP2 POP PUSH2 0x133F JUMP JUMPDEST PUSH1 0x0 DUP4 DUP2 MSTORE PUSH1 0x5 PUSH1 0x20 MSTORE PUSH1 0x40 DUP2 KECCAK256 PUSH1 0x1 PUSH1 0x1 PUSH1 0x60 SHL SUB PUSH1 0xA0 SHL SWAP1 DUP2 DUP2 SLOAD AND SWAP1 SSTORE DUP3 DUP3 MSTORE PUSH1 0x4 PUSH1 0x20 MSTORE PUSH1 0x40 DUP3 KECCAK256 DUP1 SLOAD SWAP1 PUSH1 0x0 NOT DUP3 ADD SWAP2 DUP3 GT PUSH2 0x1454 JUMPI SSTORE DUP4 DUP3 MSTORE PUSH1 0x4 PUSH1 0x20 MSTORE PUSH1 0x40 DUP3 KECCAK256 DUP1 SLOAD SWAP1 PUSH1 0x1 DUP3 ADD DUP1 SWAP3 GT PUSH2 0x1454 JUMPI SSTORE DUP5 DUP3 MSTORE PUSH1 0x3 PUSH1 0x20 MSTORE PUSH1 0x40 DUP3 KECCAK256 DUP1 SLOAD SWAP1 SWAP2 AND DUP5 OR SWAP1 SSTORE PUSH32 0xDDF252AD1BE2C89B69C2B068FC378DAA952BA7F163C4A11628F55A4DF523B3EF SWAP1 DUP1 LOG4 JUMP JUMPDEST PUSH4 0x4E487B71 PUSH1 0xE0 SHL DUP5 MSTORE PUSH1 0x11 PUSH1 0x4 MSTORE PUSH1 0x24 DUP5 REVERT JUMPDEST POP PUSH1 0x0 MSTORE PUSH1 0x6 PUSH1 0x20 MSTORE PUSH1 0x40 PUSH1 0x0 KECCAK256 CALLER PUSH1 0x0 MSTORE PUSH1 0x20 MSTORE PUSH2 0x13C2 PUSH1 0xFF PUSH1 0x40 PUSH1 0x0 KECCAK256 SLOAD AND PUSH2 0x13B8 JUMP JUMPDEST SWAP1 POP DUP5 PUSH1 0x0 MSTORE PUSH1 0x5 PUSH1 0x20 MSTORE CALLER SWAP1 PUSH1 0x40 PUSH1 0x0 KECCAK256 SLOAD AND EQ CODESIZE PUSH2 0x13B0 JUMP JUMPDEST PUSH1 0x40 MLOAD PUSH3 0x461BCD PUSH1 0xE5 SHL DUP2 MSTORE PUSH1 0x20 PUSH1 0x4 DUP3 ADD MSTORE PUSH1 0x11 PUSH1 0x24 DUP3 ADD MSTORE PUSH17 0x233937B69034B9903737BA1037BBB732B9 PUSH1 0x79 SHL PUSH1 0x44 DUP3 ADD MSTORE PUSH1 0x64 SWAP1 REVERT JUMPDEST PUSH1 0x40 MLOAD PUSH3 0x461BCD PUSH1 0xE5 SHL DUP2 MSTORE PUSH1 0x20 PUSH1 0x4 DUP3 ADD MSTORE PUSH1 0x18 PUSH1 0x24 DUP3 ADD MSTORE PUSH32 0x5472616E7366657220746F207A65726F20616464726573730000000000000000 PUSH1 0x44 DUP3 ADD MSTORE PUSH1 0x64 SWAP1 REVERT JUMPDEST ISZERO PUSH2 0x152E JUMPI JUMP JUMPDEST PUSH1 0x40 MLOAD PUSH3 0x461BCD PUSH1 0xE5 SHL DUP2 MSTORE PUSH1 0x20 PUSH1 0x4 DUP3 ADD MSTORE PUSH1 0x17 PUSH1 0x24 DUP3 ADD MSTORE PUSH32 0x43616C6C6572206973206E6F7420746865206F776E6572000000000000000000 PUSH1 0x44 DUP3 ADD MSTORE PUSH1 0x64 SWAP1 REVERT JUMPDEST SWAP3 SWAP2 SWAP3 PUSH8 0xFFFFFFFFFFFFFFFF DUP3 GT PUSH2 0x751 JUMPI PUSH1 0x40 MLOAD SWAP2 PUSH2 0x159D PUSH1 0x1F DUP3 ADD PUSH1 0x1F NOT AND PUSH1 0x20 ADD DUP5 PUSH2 0x113F JUMP JUMPDEST DUP3 SWAP5 DUP2 DUP5 MSTORE DUP2 DUP4 ADD GT PUSH2 0x18D JUMPI DUP3 DUP2 PUSH1 0x20 SWAP4 DUP5 PUSH1 0x0 SWAP7 ADD CALLDATACOPY ADD ADD MSTORE JUMP INVALID LOG2 PUSH5 0x6970667358 0x22 SLT KECCAK256 SWAP5 TIMESTAMP DUP3 SWAP13 ORIGIN 0xB0 LOG2 CREATE2 SWAP8 0xDB 0xB9 0xB4 PUSH15 0xB48F4AFDD7222C79A716674E8124AD CHAINID RETURN ADD SSTORE PUSH5 0x736F6C6343 STOP ADDMOD EQ STOP CALLER "},"methodIdentifiers":{"approve(address,uint256)":"095ea7b3","balanceOf(address)":"70a08231","getApproved(uint256)":"081812fc","getMilestone(uint256)":"2442e1cb","isApprovedForAll(address,address)":"e985e9c5","isClaimed(uint256,uint256,uint8)":"638d47b8","milestoneClaimed(bytes32)":"4dca18be","milestones(uint256)":"e89e4ed6","mintMilestone(address,uint256,uint256,string,string,uint8,string)":"c7c92561","name()":"06fdde03","owner()":"8da5cb5b","ownerOf(uint256)":"6352211e","safeTransferFrom(address,address,uint256)":"42842e0e","safeTransferFrom(address,address,uint256,bytes)":"b88d4fde","setApprovalForAll(address,bool)":"a22cb465","supportsInterface(bytes4)":"01ffc9a7","symbol()":"95d89b41","totalSupply()":"18160ddd","transferFrom(address,address,uint256)":"23b872dd","transferOwnership(address)":"f2fde38b"}}}}}