{
  "_format": "hh-sol-artifact-1",
  "contractName": "PostProofRegistry",
  "sourceName": "contracts/PostProofRegistry.sol",
  "abi": [
    {
      "inputs": [],
      "stateMutability": "nonpayable",
      "type": "constructor"
    },
    {
      "anonymous": false,
      "inputs": [
        {
          "indexed": true,
          "internalType": "address",
          "name": "previousOwner",
          "type": "address"
        },
        {
          "indexed": true,
          "internalType": "address",
          "name": "newOwner",
          "type": "address"
        }
      ],
      "name": "OwnershipTransferred",
      "type": "event"
    },
    {
      "anonymous": false,
      "inputs": [
        {
          "indexed": true,
          "internalType": "uint256",
          "name": "appPostId",
          "type": "uint256"
        },
        {
          "indexed": true,
          "internalType": "uint256",
          "name": "authorUserId",
          "type": "uint256"
        },
        {
          "indexed": true,
          "internalType": "bytes32",
          "name": "contentHash",
          "type": "bytes32"
        },
        {
          "indexed": false,
          "internalType": "string",
          "name": "authorUsername",
          "type": "string"
        },
        {
          "indexed": false,
          "internalType": "bytes32",
          "name": "imageHash",
          "type": "bytes32"
        },
        {
          "indexed": false,
          "internalType": "string",
          "name": "imageUrl",
          "type": "string"
        },
        {
          "indexed": false,
          "internalType": "uint256",
          "name": "appCreatedAt",
          "type": "uint256"
        },
        {
          "indexed": false,
          "internalType": "uint256",
          "name": "attestedAt",
          "type": "uint256"
        },
        {
          "indexed": false,
          "internalType": "address",
          "name": "attestedBy",
          "type": "address"
        }
      ],
      "name": "PostProofRecorded",
      "type": "event"
    },
    {
      "inputs": [
        {
          "internalType": "uint256",
          "name": "appPostId",
          "type": "uint256"
        }
      ],
      "name": "getPostProof",
      "outputs": [
        {
          "components": [
            {
              "internalType": "uint256",
              "name": "appPostId",
              "type": "uint256"
            },
            {
              "internalType": "uint256",
              "name": "authorUserId",
              "type": "uint256"
            },
            {
              "internalType": "string",
              "name": "authorUsername",
              "type": "string"
            },
            {
              "internalType": "bytes32",
              "name": "imageHash",
              "type": "bytes32"
            },
            {
              "internalType": "bytes32",
              "name": "contentHash",
              "type": "bytes32"
            },
            {
              "internalType": "string",
              "name": "imageUrl",
              "type": "string"
            },
            {
              "internalType": "uint256",
              "name": "appCreatedAt",
              "type": "uint256"
            },
            {
              "internalType": "uint256",
              "name": "attestedAt",
              "type": "uint256"
            },
            {
              "internalType": "address",
              "name": "attestedBy",
              "type": "address"
            },
            {
              "internalType": "bool",
              "name": "exists",
              "type": "bool"
            }
          ],
          "internalType": "struct PostProofRegistry.PostProof",
          "name": "proof",
          "type": "tuple"
        }
      ],
      "stateMutability": "view",
      "type": "function"
    },
    {
      "inputs": [],
      "name": "owner",
      "outputs": [
        {
          "internalType": "address",
          "name": "",
          "type": "address"
        }
      ],
      "stateMutability": "view",
      "type": "function"
    },
    {
      "inputs": [
        {
          "internalType": "uint256",
          "name": "appPostId",
          "type": "uint256"
        },
        {
          "internalType": "uint256",
          "name": "authorUserId",
          "type": "uint256"
        },
        {
          "internalType": "string",
          "name": "authorUsername",
          "type": "string"
        },
        {
          "internalType": "bytes32",
          "name": "imageHash",
          "type": "bytes32"
        },
        {
          "internalType": "bytes32",
          "name": "contentHash",
          "type": "bytes32"
        },
        {
          "internalType": "string",
          "name": "imageUrl",
          "type": "string"
        },
        {
          "internalType": "uint256",
          "name": "appCreatedAt",
          "type": "uint256"
        }
      ],
      "name": "recordPostProof",
      "outputs": [],
      "stateMutability": "nonpayable",
      "type": "function"
    },
    {
      "inputs": [
        {
          "internalType": "address",
          "name": "newOwner",
          "type": "address"
        }
      ],
      "name": "transferOwnership",
      "outputs": [],
      "stateMutability": "nonpayable",
      "type": "function"
    }
  ],
  "bytecode": "0x6080806040523461004f57600080546001600160a01b031916339081178255907f8be0079c531659141344cd1fd0a4f28419497f9722a3daafe3b4186f6b6457e08180a3610c3b90816100558239f35b600080fdfe608080604052600436101561001357600080fd5b60003560e01c90816335ac2dde146107d95750806343ef8fe9146101335780638da5cb5b1461010a5763f2fde38b1461004b57600080fd5b34610105576020366003190112610105576004356001600160a01b038181169182900361010557600054908116610083813314610a32565b82156100c05782907f8be0079c531659141344cd1fd0a4f28419497f9722a3daafe3b4186f6b6457e0600080a36001600160a01b03191617600055005b60405162461bcd60e51b815260206004820152601860248201527f4e6577206f776e65722063616e6e6f74206265207a65726f00000000000000006044820152606490fd5b600080fd5b34610105576000366003190112610105576000546040516001600160a01b039091168152602090f35b346101055760e03660031901126101055760443567ffffffffffffffff811161010557610164903690600401610a04565b60a43567ffffffffffffffff811161010557610184903690600401610a04565b61019960018060a01b03600054163314610a32565b6004351561079b5760243515610756578215610711576064918235156106cd57608435156106895781156106455760c4351561060157600435600052600160205260ff60086040600020015460a01c166105bd57604051946101fa86610a7e565b60043586526024356020870152610212368683610abd565b6040870152833560608701526084356080870152610231368484610abd565b60a087015260c43560c08701524260e087015233610100870152600161012087015260043560005260016020526040600020958051875560208101516001880155604081015180519067ffffffffffffffff82116104d757819061029860028b0154610b04565b601f811161056a575b50602090601f83116001146104f8576000926104ed575b50508160011b916000199060031b1c19161760028801555b606081015160038801556080810151600488015560a081015196875167ffffffffffffffff81116104d7576103086005830154610b04565b601f8111610490575b506020601f82116001146104155791816008926103ae9695946103c29b9c60009261040a575b50508160011b916000199060031b1c19161760058201555b60c0830151600682015560e08301516007820155019060018060a01b036101008201511682549161012060ff60a01b910151151560a01b16916affffffffffffffffffffff60a81b16171790556040519660c0885260c0880191610b3e565b923560208601528483036040860152610b3e565b9060c43560608201524260808201523360a0820152608435917f23ae2b148b54e88ccfa82abad5504b855b8d8f255e2e0091a7a6f4c52a72f9e46024359280600435930390a4005b015190508c80610337565b6005830160005260206000209960005b601f19841681106104785750826103c29a9b6103ae97969593600193600896601f1981161061045f575b505050811b01600582015561034f565b015160001960f88460031b161c191690558c808061044f565b828201518c556001909b019a60209283019201610425565b600583016000526020600020601f830160051c8101602084106104d0575b601f830160051c820181106104c4575050610311565b600081556001016104ae565b50806104ae565b634e487b7160e01b600052604160045260246000fd5b0151905089806102b8565b925060028a016000526020600020906000935b601f198416851061054f576001945083601f19811610610536575b505050811b0160028801556102d0565b015160001960f88460031b161c19169055898080610526565b8181015183556020948501946001909301929091019061050b565b90915060028a016000526020600020601f840160051c8101602085106105b6575b90849392915b601f830160051c820181106105a75750506102a1565b60008155859450600101610591565b508061058b565b60405162461bcd60e51b815260206004820152601960248201527f506f73742070726f6f6620616c7265616479206578697374730000000000000060448201528390fd5b60405162461bcd60e51b815260206004820152601d60248201527f4170702074696d657374616d702063616e6e6f7420626520656d70747900000060448201528390fd5b60405162461bcd60e51b815260206004820152601960248201527f496d6167652055524c2063616e6e6f7420626520656d7074790000000000000060448201528390fd5b60405162461bcd60e51b815260206004820152601c60248201527f436f6e74656e7420686173682063616e6e6f7420626520656d7074790000000060448201528390fd5b60405162461bcd60e51b815260206004820152601a60248201527f496d61676520686173682063616e6e6f7420626520656d70747900000000000060448201528390fd5b60405162461bcd60e51b815260206004820152601860248201527f557365726e616d652063616e6e6f7420626520656d70747900000000000000006044820152606490fd5b60405162461bcd60e51b815260206004820152601860248201527f417574686f722069642063616e6e6f74206265207a65726f00000000000000006044820152606490fd5b60405162461bcd60e51b8152602060048201526016602482015275506f73742069642063616e6e6f74206265207a65726f60501b6044820152606490fd5b34610105576020366003190112610105576000610120600435926107fc81610a7e565b82815282602082015260606040820152826060820152826080820152606060a08201528260c08201528260e082015282610100820152015280600052600160205260ff60086040600020015460a01c161561097f576000526001602052604060002060ff60086040519261086f84610a7e565b805484526001810154602085015261088960028201610b5f565b604085015260038101546060850152600481015460808501526108ae60058201610b5f565b60a0850152600681015460c0850152600781015460e0850152015460018060a01b03811661010084015260a01c1615156101208201526040518091602082528051602083015260208101516040830152604081015161012061094b610921610140938460608801526101608701906109c4565b60608501516080870152608085015160a087015260a0850151601f198783030160c08801526109c4565b9260c081015160e086015260e081015161010086015260018060a01b03610100820151168286015201511515908301520390f35b60405162461bcd60e51b815260206004820152601960248201527f506f73742070726f6f6620646f6573206e6f74206578697374000000000000006044820152606490fd5b919082519283825260005b8481106109f0575050826000602080949584010152601f8019910116010190565b6020818301810151848301820152016109cf565b9181601f840112156101055782359167ffffffffffffffff8311610105576020838186019501011161010557565b15610a3957565b60405162461bcd60e51b815260206004820152601760248201527f43616c6c6572206973206e6f7420746865206f776e65720000000000000000006044820152606490fd5b610140810190811067ffffffffffffffff8211176104d757604052565b90601f8019910116810190811067ffffffffffffffff8211176104d757604052565b92919267ffffffffffffffff82116104d75760405191610ae7601f8201601f191660200184610a9b565b829481845281830111610105578281602093846000960137010152565b90600182811c92168015610b34575b6020831014610b1e57565b634e487b7160e01b600052602260045260246000fd5b91607f1691610b13565b908060209392818452848401376000828201840152601f01601f1916010190565b9060405191826000825492610b7384610b04565b908184526001948581169081600014610be25750600114610b9f575b5050610b9d92500383610a9b565b565b9093915060005260209081600020936000915b818310610bca575050610b9d93508201013880610b8f565b85548884018501529485019487945091830191610bb2565b915050610b9d94506020925060ff191682840152151560051b8201013880610b8f56fea26469706673582212208edf4b9e4a2f6de98fa835c86617ec131005fee9ed1b8b1718917f0f32590f9d64736f6c63430008140033",
  "linkReferences": {},
  "deployedLinkReferences": {}
}