{
  "_format": "hh-sol-artifact-1",
  "contractName": "FriendshipMilestone",
  "sourceName": "contracts/FriendshipMilestone.sol",
  "abi": [
    {
      "inputs": [],
      "stateMutability": "nonpayable",
      "type": "constructor"
    },
    {
      "anonymous": false,
      "inputs": [
        {
          "indexed": true,
          "internalType": "address",
          "name": "owner",
          "type": "address"
        },
        {
          "indexed": true,
          "internalType": "address",
          "name": "approved",
          "type": "address"
        },
        {
          "indexed": true,
          "internalType": "uint256",
          "name": "tokenId",
          "type": "uint256"
        }
      ],
      "name": "Approval",
      "type": "event"
    },
    {
      "anonymous": false,
      "inputs": [
        {
          "indexed": true,
          "internalType": "address",
          "name": "owner",
          "type": "address"
        },
        {
          "indexed": true,
          "internalType": "address",
          "name": "operator",
          "type": "address"
        },
        {
          "indexed": false,
          "internalType": "bool",
          "name": "approved",
          "type": "bool"
        }
      ],
      "name": "ApprovalForAll",
      "type": "event"
    },
    {
      "anonymous": false,
      "inputs": [
        {
          "indexed": true,
          "internalType": "uint256",
          "name": "tokenId",
          "type": "uint256"
        },
        {
          "indexed": true,
          "internalType": "uint256",
          "name": "userIdA",
          "type": "uint256"
        },
        {
          "indexed": true,
          "internalType": "uint256",
          "name": "userIdB",
          "type": "uint256"
        },
        {
          "indexed": false,
          "internalType": "uint8",
          "name": "milestoneType",
          "type": "uint8"
        },
        {
          "indexed": false,
          "internalType": "string",
          "name": "milestoneName",
          "type": "string"
        },
        {
          "indexed": false,
          "internalType": "uint256",
          "name": "mintedAt",
          "type": "uint256"
        }
      ],
      "name": "MilestoneMinted",
      "type": "event"
    },
    {
      "anonymous": false,
      "inputs": [
        {
          "indexed": true,
          "internalType": "address",
          "name": "from",
          "type": "address"
        },
        {
          "indexed": true,
          "internalType": "address",
          "name": "to",
          "type": "address"
        },
        {
          "indexed": true,
          "internalType": "uint256",
          "name": "tokenId",
          "type": "uint256"
        }
      ],
      "name": "Transfer",
      "type": "event"
    },
    {
      "inputs": [
        {
          "internalType": "address",
          "name": "to",
          "type": "address"
        },
        {
          "internalType": "uint256",
          "name": "tokenId",
          "type": "uint256"
        }
      ],
      "name": "approve",
      "outputs": [],
      "stateMutability": "nonpayable",
      "type": "function"
    },
    {
      "inputs": [
        {
          "internalType": "address",
          "name": "account",
          "type": "address"
        }
      ],
      "name": "balanceOf",
      "outputs": [
        {
          "internalType": "uint256",
          "name": "",
          "type": "uint256"
        }
      ],
      "stateMutability": "view",
      "type": "function"
    },
    {
      "inputs": [
        {
          "internalType": "uint256",
          "name": "tokenId",
          "type": "uint256"
        }
      ],
      "name": "getApproved",
      "outputs": [
        {
          "internalType": "address",
          "name": "",
          "type": "address"
        }
      ],
      "stateMutability": "view",
      "type": "function"
    },
    {
      "inputs": [
        {
          "internalType": "uint256",
          "name": "tokenId",
          "type": "uint256"
        }
      ],
      "name": "getMilestone",
      "outputs": [
        {
          "components": [
            {
              "internalType": "uint256",
              "name": "userIdA",
              "type": "uint256"
            },
            {
              "internalType": "uint256",
              "name": "userIdB",
              "type": "uint256"
            },
            {
              "internalType": "string",
              "name": "usernameA",
              "type": "string"
            },
            {
              "internalType": "string",
              "name": "usernameB",
              "type": "string"
            },
            {
              "internalType": "uint8",
              "name": "milestoneType",
              "type": "uint8"
            },
            {
              "internalType": "string",
              "name": "milestoneName",
              "type": "string"
            },
            {
              "internalType": "uint256",
              "name": "mintedAt",
              "type": "uint256"
            }
          ],
          "internalType": "struct FriendshipMilestone.MilestoneData",
          "name": "",
          "type": "tuple"
        }
      ],
      "stateMutability": "view",
      "type": "function"
    },
    {
      "inputs": [
        {
          "internalType": "address",
          "name": "account",
          "type": "address"
        },
        {
          "internalType": "address",
          "name": "operator",
          "type": "address"
        }
      ],
      "name": "isApprovedForAll",
      "outputs": [
        {
          "internalType": "bool",
          "name": "",
          "type": "bool"
        }
      ],
      "stateMutability": "view",
      "type": "function"
    },
    {
      "inputs": [
        {
          "internalType": "uint256",
          "name": "userIdA",
          "type": "uint256"
        },
        {
          "internalType": "uint256",
          "name": "userIdB",
          "type": "uint256"
        },
        {
          "internalType": "uint8",
          "name": "milestoneType",
          "type": "uint8"
        }
      ],
      "name": "isClaimed",
      "outputs": [
        {
          "internalType": "bool",
          "name": "",
          "type": "bool"
        }
      ],
      "stateMutability": "view",
      "type": "function"
    },
    {
      "inputs": [
        {
          "internalType": "bytes32",
          "name": "",
          "type": "bytes32"
        }
      ],
      "name": "milestoneClaimed",
      "outputs": [
        {
          "internalType": "bool",
          "name": "",
          "type": "bool"
        }
      ],
      "stateMutability": "view",
      "type": "function"
    },
    {
      "inputs": [
        {
          "internalType": "uint256",
          "name": "",
          "type": "uint256"
        }
      ],
      "name": "milestones",
      "outputs": [
        {
          "internalType": "uint256",
          "name": "userIdA",
          "type": "uint256"
        },
        {
          "internalType": "uint256",
          "name": "userIdB",
          "type": "uint256"
        },
        {
          "internalType": "string",
          "name": "usernameA",
          "type": "string"
        },
        {
          "internalType": "string",
          "name": "usernameB",
          "type": "string"
        },
        {
          "internalType": "uint8",
          "name": "milestoneType",
          "type": "uint8"
        },
        {
          "internalType": "string",
          "name": "milestoneName",
          "type": "string"
        },
        {
          "internalType": "uint256",
          "name": "mintedAt",
          "type": "uint256"
        }
      ],
      "stateMutability": "view",
      "type": "function"
    },
    {
      "inputs": [
        {
          "internalType": "address",
          "name": "recipient",
          "type": "address"
        },
        {
          "internalType": "uint256",
          "name": "userIdA",
          "type": "uint256"
        },
        {
          "internalType": "uint256",
          "name": "userIdB",
          "type": "uint256"
        },
        {
          "internalType": "string",
          "name": "usernameA",
          "type": "string"
        },
        {
          "internalType": "string",
          "name": "usernameB",
          "type": "string"
        },
        {
          "internalType": "uint8",
          "name": "milestoneType",
          "type": "uint8"
        },
        {
          "internalType": "string",
          "name": "milestoneName",
          "type": "string"
        }
      ],
      "name": "mintMilestone",
      "outputs": [
        {
          "internalType": "uint256",
          "name": "tokenId",
          "type": "uint256"
        }
      ],
      "stateMutability": "nonpayable",
      "type": "function"
    },
    {
      "inputs": [],
      "name": "name",
      "outputs": [
        {
          "internalType": "string",
          "name": "",
          "type": "string"
        }
      ],
      "stateMutability": "view",
      "type": "function"
    },
    {
      "inputs": [],
      "name": "owner",
      "outputs": [
        {
          "internalType": "address",
          "name": "",
          "type": "address"
        }
      ],
      "stateMutability": "view",
      "type": "function"
    },
    {
      "inputs": [
        {
          "internalType": "uint256",
          "name": "tokenId",
          "type": "uint256"
        }
      ],
      "name": "ownerOf",
      "outputs": [
        {
          "internalType": "address",
          "name": "",
          "type": "address"
        }
      ],
      "stateMutability": "view",
      "type": "function"
    },
    {
      "inputs": [
        {
          "internalType": "address",
          "name": "from",
          "type": "address"
        },
        {
          "internalType": "address",
          "name": "to",
          "type": "address"
        },
        {
          "internalType": "uint256",
          "name": "tokenId",
          "type": "uint256"
        }
      ],
      "name": "safeTransferFrom",
      "outputs": [],
      "stateMutability": "nonpayable",
      "type": "function"
    },
    {
      "inputs": [
        {
          "internalType": "address",
          "name": "from",
          "type": "address"
        },
        {
          "internalType": "address",
          "name": "to",
          "type": "address"
        },
        {
          "internalType": "uint256",
          "name": "tokenId",
          "type": "uint256"
        },
        {
          "internalType": "bytes",
          "name": "",
          "type": "bytes"
        }
      ],
      "name": "safeTransferFrom",
      "outputs": [],
      "stateMutability": "nonpayable",
      "type": "function"
    },
    {
      "inputs": [
        {
          "internalType": "address",
          "name": "operator",
          "type": "address"
        },
        {
          "internalType": "bool",
          "name": "approved",
          "type": "bool"
        }
      ],
      "name": "setApprovalForAll",
      "outputs": [],
      "stateMutability": "nonpayable",
      "type": "function"
    },
    {
      "inputs": [
        {
          "internalType": "bytes4",
          "name": "interfaceId",
          "type": "bytes4"
        }
      ],
      "name": "supportsInterface",
      "outputs": [
        {
          "internalType": "bool",
          "name": "",
          "type": "bool"
        }
      ],
      "stateMutability": "pure",
      "type": "function"
    },
    {
      "inputs": [],
      "name": "symbol",
      "outputs": [
        {
          "internalType": "string",
          "name": "",
          "type": "string"
        }
      ],
      "stateMutability": "view",
      "type": "function"
    },
    {
      "inputs": [],
      "name": "totalSupply",
      "outputs": [
        {
          "internalType": "uint256",
          "name": "",
          "type": "uint256"
        }
      ],
      "stateMutability": "view",
      "type": "function"
    },
    {
      "inputs": [
        {
          "internalType": "address",
          "name": "from",
          "type": "address"
        },
        {
          "internalType": "address",
          "name": "to",
          "type": "address"
        },
        {
          "internalType": "uint256",
          "name": "tokenId",
          "type": "uint256"
        }
      ],
      "name": "transferFrom",
      "outputs": [],
      "stateMutability": "nonpayable",
      "type": "function"
    },
    {
      "inputs": [
        {
          "internalType": "address",
          "name": "newOwner",
          "type": "address"
        }
      ],
      "name": "transferOwnership",
      "outputs": [],
      "stateMutability": "nonpayable",
      "type": "function"
    }
  ],
  "bytecode": "0x608060405234620000f2576000620000188154620000f7565b601f8111620000c5575b5060367f4c6f636b657420467269656e6473686970204d696c6573746f6e650000000000018155600190620000588254620000f7565b90601f821162000096575b6006624c464d60e81b018355600980546001600160a01b0319163317905560028390556040516115f09081620001358239f35b82815282601f60208320930160051c8301925b838110620000b957505062000063565b828155018390620000a9565b818052601f60208320910160051c8101905b818110620000e6575062000022565b828155600101620000d7565b600080fd5b90600182811c9216801562000129575b60208310146200011357565b634e487b7160e01b600052602260045260246000fd5b91607f16916200010756fe608080604052600436101561001357600080fd5b60e0600035811c91826301ffc9a7146110965750816306fdde0314610ff3578163081812fc14610fa5578163095ea7b314610eee57816318160ddd14610ec357816323b872dd14610d4d5781632442e1cb14610d6457816342842e0e14610d4d5781634dca18be14610d1c5781636352211e14610cec578163638d47b814610c6057816370a0823114610bec5781638da5cb5b14610bc357816395d89b4114610ae0578163a22cb46514610a5b578163b88d4fde14610a08578163c7c9256114610296578163e89e4ed6146101e857508063e985e9c5146101925763f2fde38b146100fd57600080fd5b3461018d57602036600319011261018d57610116611247565b600954906001600160a01b03906101303383851614611527565b16908115610148576001600160a01b03191617600955005b60405162461bcd60e51b815260206004820152601860248201527f4e6577206f776e65722063616e6e6f74206265207a65726f00000000000000006044820152606490fd5b600080fd5b3461018d57604036600319011261018d576101ab611247565b6101b361125d565b9060018060a01b03809116600052600660205260406000209116600052602052602060ff604060002054166040519015158152f35b3461018d57602036600319011261018d57600435600052600760205260406000209081549061028c60018401549361022260028201611161565b9061027961023260038301611161565b61026b60ff60048501541694600661024c60058701611161565b950154976040519a8b9a8b5260208b01528060408b0152890190611207565b908782036060890152611207565b91608086015284820360a0860152611207565b9060c08301520390f35b3461018d5736600319011261018d576102ad611247565b60643567ffffffffffffffff811161018d576102cd9036906004016112a8565b9160843567ffffffffffffffff811161018d576102ee9036906004016112a8565b9260ff60a4351660a4350361018d5760c43567ffffffffffffffff811161018d5761031d9036906004016112a8565b92909560018060a01b039261033784600954163314611527565b838616156109c3576024351515806109b8575b156109735760443560243510156109625760443561039a6103a86024355b60408051602081019283529081019490945260a43560f81b6001600160f81b0319166060850152929182906061820190565b03601f19810183528261113f565b5190209283600052600860205260ff6040600020541661091d57600254976000198914610907576001890160025588600052600360205260406000208689166001600160601b0360a01b825416179055858816600052600460205260406000209283549060018201821161090757610450946001610444930190556040519561043087611123565b602435875260443560208801523691611573565b60408501523691611573565b606082015260ff60a43516608082015261046b368589611573565b60a08201524260c08201528560005260076020526040600020908051825560208101516001830155604081015180519067ffffffffffffffff82116107515781906104b960028601546110e9565b601f81116108b4575b50602090601f831160011461084257600092610837575b50508160011b916000199060031b1c19161760028301555b606081015180519067ffffffffffffffff821161075157819061051760038601546110e9565b601f81116107e4575b50602090601f831160011461077257600092610767575b50508160011b916000199060031b1c19161760038301555b60ff60808201511660ff1960048401541617600483015560a081015180519067ffffffffffffffff82116107515761058a60058501546110e9565b601f811161070a575b509286959260209a95928a958c90601f83116001146106915791806006949260c094600092610686575b50508160011b916000199060031b1c19161760058501555b0151910155600052600888526040600020600160ff19825416179055604051951660007fddf252ad1be2c89b69c2b068fc378daa952ba7f163c4a11628f55a4df523b3ef8180a460ff60a4351684526060868501528160608501526080840137600060808284010152426040830152827f537702284ecc21650a874a15567734f5d429443f398be96fccf6a73a0ebbe9676044359360808160243595601f80199101168101030190a4604051908152f35b015190508f806105bd565b90600585016000528d6000209160005b601f19851681106106ed5750926006949260019260c09583601f198116106106d4575b505050811b0160058501556105d5565b015160001960f88460031b161c191690558f80806106c4565b8282015184558c9b508e9950600190930192918f01918f016106a1565b600585016000526020600020601f840160051c81016020851061074a575b601f830160051c8201811061073e575050610593565b60008155600101610728565b5080610728565b634e487b7160e01b600052604160045260246000fd5b015190508a80610537565b9250600385016000526020600020906000935b601f19841685106107c9576001945083601f198116106107b0575b505050811b01600383015561054f565b015160001960f88460031b161c191690558a80806107a0565b81810151835560209485019460019093019290910190610785565b909150600385016000526020600020601f840160051c810160208510610830575b90849392915b601f830160051c82018110610821575050610520565b6000815585945060010161080b565b5080610805565b015190508a806104d9565b9250600285016000526020600020906000935b601f1984168510610899576001945083601f19811610610880575b505050811b0160028301556104f1565b015160001960f88460031b161c191690558a8080610870565b81810151835560209485019460019093019290910190610855565b909150600285016000526020600020601f840160051c810160208510610900575b90849392915b601f830160051c820181106108f15750506104c2565b600081558594506001016108db565b50806108d5565b634e487b7160e01b600052601160045260246000fd5b60405162461bcd60e51b815260206004820152601960248201527f4d696c6573746f6e6520616c726561647920636c61696d6564000000000000006044820152606490fd5b60243561039a6103a8604435610368565b60405162461bcd60e51b815260206004820152601760248201527f55736572206964732063616e6e6f74206265207a65726f0000000000000000006044820152606490fd5b50604435151561034a565b60405162461bcd60e51b815260206004820152601860248201527f526563697069656e742063616e6e6f74206265207a65726f00000000000000006044820152606490fd5b3461018d57608036600319011261018d57610a21611247565b610a2961125d565b906064359167ffffffffffffffff831161018d57610a4e610a599336906004016112a8565b50506044359161137c565b005b3461018d57604036600319011261018d57610a74611247565b60243580151580910361018d5733600052600660205260406000209160018060a01b03169182600052602052604060002060ff1981541660ff83161790556040519081527f17307eab39ab6107e8899845ad3d59bd9653f200f220920489ca2b5937696c3160203392a3005b3461018d57600036600319011261018d5760405160006001805490610b04826110e9565b80855291818116908115610b9c5750600114610b43575b610b3f84610b2b8186038261113f565b604051918291602083526020830190611207565b0390f35b600081815292507fb10e2d527612073b26eecdfd717e6a320cf44b4afac2b0732d9fcbe2b7fa0cf65b828410610b84575050508101602001610b2b82610b1b565b80546020858701810191909152909301928101610b6c565b60ff191660208087019190915292151560051b85019092019250610b2b9150839050610b1b565b3461018d57600036600319011261018d576009546040516001600160a01b039091168152602090f35b3461018d57602036600319011261018d576001600160a01b03610c0d611247565b168015610c2c5760005260046020526020604060002054604051908152f35b60405162461bcd60e51b815260206004820152600c60248201526b5a65726f206164647265737360a01b6044820152606490fd5b3461018d57606036600319011261018d5760243560443560043560ff8216820361018d5782811015610ce357610cc390925b60408051602081019586529081019190915260f89290921b6001600160f81b0319166060830152816061810161039a565b5190206000526008602052602060ff604060002054166040519015158152f35b610cc390610c92565b3461018d57602036600319011261018d576020610d0a600435611319565b6040516001600160a01b039091168152f35b3461018d57602036600319011261018d576004356000526008602052602060ff604060002054166040519015158152f35b3461018d57610a59610d5e36611273565b9161137c565b3461018d576020908160031936011261018d5760405190600435610d8783611123565b6000835283830160009052606092836040820152838082015260808101600090528360a082015260c001600090528060005260038452600160a01b60019003604060002054161515610dd8906112d6565b6000526007835260406000209060405192610df284611123565b82548452600183015485850190815292610e0e60028201611161565b6040860190815290610e2260038201611161565b9280870193845284600483015460ff16936080890194855260058401610e4790611161565b9360a08a01948552600601549760c08a019889526040519a8b9a818c5251908b01525160408a015251918801526101008701610e8291611207565b9251601f199384888203016080890152610e9b91611207565b915160ff1660a087015251918582030160c0860152610eb991611207565b9151908301520390f35b3461018d57600036600319011261018d57600254600019810190811161090757602090604051908152f35b3461018d57604036600319011261018d57610f07611247565b602435906001600160a01b0380610f1d84611319565b16908133148015610f7c575b610f329061133f565b8360005260056020526040600020921691826001600160601b0360a01b8254161790557f8c5be1e5ebec7d5bd14f71427d1e84f3dd0314c0f7b2291e5b200ac8c7c3b925600080a4005b50816000526006602052604060002033600052602052610f3260ff604060002054169050610f29565b3461018d57602036600319011261018d576020600435806000526003825260018060a01b0390610fdd826040600020541615156112d6565b6000526005825260406000205416604051908152f35b3461018d57600036600319011261018d5760405160008054611014816110e9565b80845290600190818116908115610b9c575060011461103d57610b3f84610b2b8186038261113f565b600080805292507f290decd9548b62a8d60345a988386fc84ba6bc95484008f6362f93160ef3e5635b82841061107e575050508101602001610b2b82610b1b565b80546020858701810191909152909301928101611066565b3461018d57602036600319011261018d576004359063ffffffff60e01b821680920361018d576020916380ac58cd60e01b81149081156110d8575b5015158152f35b6301ffc9a760e01b149050836110d1565b90600182811c92168015611119575b602083101461110357565b634e487b7160e01b600052602260045260246000fd5b91607f16916110f8565b60e0810190811067ffffffffffffffff82111761075157604052565b90601f8019910116810190811067ffffffffffffffff82111761075157604052565b9060405191826000825492611175846110e9565b9081845260019485811690816000146111e457506001146111a1575b505061119f9250038361113f565b565b9093915060005260209081600020936000915b8183106111cc57505061119f93508201013880611191565b855488840185015294850194879450918301916111b4565b91505061119f94506020925060ff191682840152151560051b8201013880611191565b919082519283825260005b848110611233575050826000602080949584010152601f8019910116010190565b602081830181015184830182015201611212565b600435906001600160a01b038216820361018d57565b602435906001600160a01b038216820361018d57565b606090600319011261018d576001600160a01b0390600435828116810361018d5791602435908116810361018d579060443590565b9181601f8401121561018d5782359167ffffffffffffffff831161018d576020838186019501011161018d57565b156112dd57565b60405162461bcd60e51b8152602060048201526014602482015273151bdad95b88191bd95cc81b9bdd08195e1a5cdd60621b6044820152606490fd5b6000908152600360205260409020546001600160a01b031661133c8115156112d6565b90565b1561134657565b60405162461bcd60e51b815260206004820152600e60248201526d139bdd08185d5d1a1bdc9a5e995960921b6044820152606490fd5b6001600160a01b03918216919082156114e257818061139a86611319565b169116918183036114a95781331490811561148e575b508015611468575b6113c2915061133f565b60008381526005602052604081206001600160601b0360a01b90818154169055828252600460205260408220805490600019820191821161145457558382526004602052604082208054906001820180921161145457558482526003602052604082208054909116841790557fddf252ad1be2c89b69c2b068fc378daa952ba7f163c4a11628f55a4df523b3ef9080a4565b634e487b7160e01b84526011600452602484fd5b5060005260066020526040600020336000526020526113c260ff604060002054166113b8565b905084600052600560205233906040600020541614386113b0565b60405162461bcd60e51b8152602060048201526011602482015270233937b69034b9903737ba1037bbb732b960791b6044820152606490fd5b60405162461bcd60e51b815260206004820152601860248201527f5472616e7366657220746f207a65726f206164647265737300000000000000006044820152606490fd5b1561152e57565b60405162461bcd60e51b815260206004820152601760248201527f43616c6c6572206973206e6f7420746865206f776e65720000000000000000006044820152606490fd5b92919267ffffffffffffffff8211610751576040519161159d601f8201601f19166020018461113f565b82948184528183011161018d57828160209384600096013701015256fea26469706673582212209442829c32b0a2f597dbb9b46eb48f4afdd7222c79a716674e8124ad46f3015564736f6c63430008140033",
  "linkReferences": {},
  "deployedLinkReferences": {}
}