{
  "_format": "hh-sol-artifact-1",
  "contractName": "CollectibleMoment",
  "sourceName": "contracts/CollectibleMoment.sol",
  "abi": [
    {
      "inputs": [],
      "stateMutability": "nonpayable",
      "type": "constructor"
    },
    {
      "anonymous": false,
      "inputs": [
        {
          "indexed": true,
          "internalType": "address",
          "name": "owner",
          "type": "address"
        },
        {
          "indexed": true,
          "internalType": "address",
          "name": "approved",
          "type": "address"
        },
        {
          "indexed": true,
          "internalType": "uint256",
          "name": "tokenId",
          "type": "uint256"
        }
      ],
      "name": "Approval",
      "type": "event"
    },
    {
      "anonymous": false,
      "inputs": [
        {
          "indexed": true,
          "internalType": "address",
          "name": "owner",
          "type": "address"
        },
        {
          "indexed": true,
          "internalType": "address",
          "name": "operator",
          "type": "address"
        },
        {
          "indexed": false,
          "internalType": "bool",
          "name": "approved",
          "type": "bool"
        }
      ],
      "name": "ApprovalForAll",
      "type": "event"
    },
    {
      "anonymous": false,
      "inputs": [
        {
          "indexed": true,
          "internalType": "uint256",
          "name": "tokenId",
          "type": "uint256"
        },
        {
          "indexed": true,
          "internalType": "uint256",
          "name": "appPostId",
          "type": "uint256"
        },
        {
          "indexed": true,
          "internalType": "uint256",
          "name": "authorUserId",
          "type": "uint256"
        },
        {
          "indexed": false,
          "internalType": "address",
          "name": "recipient",
          "type": "address"
        },
        {
          "indexed": false,
          "internalType": "bytes32",
          "name": "contentHash",
          "type": "bytes32"
        },
        {
          "indexed": false,
          "internalType": "uint256",
          "name": "mintedAt",
          "type": "uint256"
        }
      ],
      "name": "MomentMinted",
      "type": "event"
    },
    {
      "anonymous": false,
      "inputs": [
        {
          "indexed": true,
          "internalType": "address",
          "name": "from",
          "type": "address"
        },
        {
          "indexed": true,
          "internalType": "address",
          "name": "to",
          "type": "address"
        },
        {
          "indexed": true,
          "internalType": "uint256",
          "name": "tokenId",
          "type": "uint256"
        }
      ],
      "name": "Transfer",
      "type": "event"
    },
    {
      "inputs": [
        {
          "internalType": "address",
          "name": "to",
          "type": "address"
        },
        {
          "internalType": "uint256",
          "name": "tokenId",
          "type": "uint256"
        }
      ],
      "name": "approve",
      "outputs": [],
      "stateMutability": "nonpayable",
      "type": "function"
    },
    {
      "inputs": [
        {
          "internalType": "address",
          "name": "account",
          "type": "address"
        }
      ],
      "name": "balanceOf",
      "outputs": [
        {
          "internalType": "uint256",
          "name": "",
          "type": "uint256"
        }
      ],
      "stateMutability": "view",
      "type": "function"
    },
    {
      "inputs": [
        {
          "internalType": "uint256",
          "name": "tokenId",
          "type": "uint256"
        }
      ],
      "name": "getApproved",
      "outputs": [
        {
          "internalType": "address",
          "name": "",
          "type": "address"
        }
      ],
      "stateMutability": "view",
      "type": "function"
    },
    {
      "inputs": [
        {
          "internalType": "uint256",
          "name": "tokenId",
          "type": "uint256"
        }
      ],
      "name": "getMoment",
      "outputs": [
        {
          "components": [
            {
              "internalType": "uint256",
              "name": "appPostId",
              "type": "uint256"
            },
            {
              "internalType": "uint256",
              "name": "authorUserId",
              "type": "uint256"
            },
            {
              "internalType": "string",
              "name": "imageUrl",
              "type": "string"
            },
            {
              "internalType": "string",
              "name": "caption",
              "type": "string"
            },
            {
              "internalType": "bytes32",
              "name": "contentHash",
              "type": "bytes32"
            },
            {
              "internalType": "uint256",
              "name": "mintedAt",
              "type": "uint256"
            }
          ],
          "internalType": "struct CollectibleMoment.MomentData",
          "name": "data",
          "type": "tuple"
        }
      ],
      "stateMutability": "view",
      "type": "function"
    },
    {
      "inputs": [
        {
          "internalType": "address",
          "name": "account",
          "type": "address"
        },
        {
          "internalType": "address",
          "name": "operator",
          "type": "address"
        }
      ],
      "name": "isApprovedForAll",
      "outputs": [
        {
          "internalType": "bool",
          "name": "",
          "type": "bool"
        }
      ],
      "stateMutability": "view",
      "type": "function"
    },
    {
      "inputs": [
        {
          "internalType": "address",
          "name": "recipient",
          "type": "address"
        },
        {
          "internalType": "uint256",
          "name": "appPostId",
          "type": "uint256"
        },
        {
          "internalType": "uint256",
          "name": "authorUserId",
          "type": "uint256"
        },
        {
          "internalType": "string",
          "name": "imageUrl",
          "type": "string"
        },
        {
          "internalType": "string",
          "name": "caption",
          "type": "string"
        },
        {
          "internalType": "bytes32",
          "name": "contentHash",
          "type": "bytes32"
        }
      ],
      "name": "mintMoment",
      "outputs": [
        {
          "internalType": "uint256",
          "name": "tokenId",
          "type": "uint256"
        }
      ],
      "stateMutability": "nonpayable",
      "type": "function"
    },
    {
      "inputs": [
        {
          "internalType": "uint256",
          "name": "",
          "type": "uint256"
        }
      ],
      "name": "moments",
      "outputs": [
        {
          "internalType": "uint256",
          "name": "appPostId",
          "type": "uint256"
        },
        {
          "internalType": "uint256",
          "name": "authorUserId",
          "type": "uint256"
        },
        {
          "internalType": "string",
          "name": "imageUrl",
          "type": "string"
        },
        {
          "internalType": "string",
          "name": "caption",
          "type": "string"
        },
        {
          "internalType": "bytes32",
          "name": "contentHash",
          "type": "bytes32"
        },
        {
          "internalType": "uint256",
          "name": "mintedAt",
          "type": "uint256"
        }
      ],
      "stateMutability": "view",
      "type": "function"
    },
    {
      "inputs": [],
      "name": "name",
      "outputs": [
        {
          "internalType": "string",
          "name": "",
          "type": "string"
        }
      ],
      "stateMutability": "view",
      "type": "function"
    },
    {
      "inputs": [],
      "name": "owner",
      "outputs": [
        {
          "internalType": "address",
          "name": "",
          "type": "address"
        }
      ],
      "stateMutability": "view",
      "type": "function"
    },
    {
      "inputs": [
        {
          "internalType": "uint256",
          "name": "tokenId",
          "type": "uint256"
        }
      ],
      "name": "ownerOf",
      "outputs": [
        {
          "internalType": "address",
          "name": "",
          "type": "address"
        }
      ],
      "stateMutability": "view",
      "type": "function"
    },
    {
      "inputs": [
        {
          "internalType": "uint256",
          "name": "",
          "type": "uint256"
        }
      ],
      "name": "postMinted",
      "outputs": [
        {
          "internalType": "bool",
          "name": "",
          "type": "bool"
        }
      ],
      "stateMutability": "view",
      "type": "function"
    },
    {
      "inputs": [
        {
          "internalType": "address",
          "name": "from",
          "type": "address"
        },
        {
          "internalType": "address",
          "name": "to",
          "type": "address"
        },
        {
          "internalType": "uint256",
          "name": "tokenId",
          "type": "uint256"
        }
      ],
      "name": "safeTransferFrom",
      "outputs": [],
      "stateMutability": "nonpayable",
      "type": "function"
    },
    {
      "inputs": [
        {
          "internalType": "address",
          "name": "from",
          "type": "address"
        },
        {
          "internalType": "address",
          "name": "to",
          "type": "address"
        },
        {
          "internalType": "uint256",
          "name": "tokenId",
          "type": "uint256"
        },
        {
          "internalType": "bytes",
          "name": "",
          "type": "bytes"
        }
      ],
      "name": "safeTransferFrom",
      "outputs": [],
      "stateMutability": "nonpayable",
      "type": "function"
    },
    {
      "inputs": [
        {
          "internalType": "address",
          "name": "operator",
          "type": "address"
        },
        {
          "internalType": "bool",
          "name": "approved",
          "type": "bool"
        }
      ],
      "name": "setApprovalForAll",
      "outputs": [],
      "stateMutability": "nonpayable",
      "type": "function"
    },
    {
      "inputs": [
        {
          "internalType": "bytes4",
          "name": "interfaceId",
          "type": "bytes4"
        }
      ],
      "name": "supportsInterface",
      "outputs": [
        {
          "internalType": "bool",
          "name": "",
          "type": "bool"
        }
      ],
      "stateMutability": "pure",
      "type": "function"
    },
    {
      "inputs": [],
      "name": "symbol",
      "outputs": [
        {
          "internalType": "string",
          "name": "",
          "type": "string"
        }
      ],
      "stateMutability": "view",
      "type": "function"
    },
    {
      "inputs": [],
      "name": "totalSupply",
      "outputs": [
        {
          "internalType": "uint256",
          "name": "",
          "type": "uint256"
        }
      ],
      "stateMutability": "view",
      "type": "function"
    },
    {
      "inputs": [
        {
          "internalType": "address",
          "name": "from",
          "type": "address"
        },
        {
          "internalType": "address",
          "name": "to",
          "type": "address"
        },
        {
          "internalType": "uint256",
          "name": "tokenId",
          "type": "uint256"
        }
      ],
      "name": "transferFrom",
      "outputs": [],
      "stateMutability": "nonpayable",
      "type": "function"
    },
    {
      "inputs": [
        {
          "internalType": "address",
          "name": "newOwner",
          "type": "address"
        }
      ],
      "name": "transferOwnership",
      "outputs": [],
      "stateMutability": "nonpayable",
      "type": "function"
    }
  ],
  "bytecode": "0x608060405234620000f2576000620000188154620000f7565b601f8111620000c5575b5060327f4c6f636b657420436f6c6c65637469626c65204d6f6d656e7400000000000000018155600190620000588254620000f7565b90601f821162000096575b6006624c434d60e81b018355600980546001600160a01b0319163317905560028390556040516112ba9081620001358239f35b82815282601f60208320930160051c8301925b838110620000b957505062000063565b828155018390620000a9565b818052601f60208320910160051c8101905b818110620000e6575062000022565b828155600101620000d7565b600080fd5b90600182811c9216801562000129575b60208310146200011357565b634e487b7160e01b600052602260045260246000fd5b91607f16916200010756fe608080604052600436101561001357600080fd5b60003560e01c90816301ffc9a714610d605750806306fdde0314610cbd578063081812fc14610c6f578063095ea7b314610bb857806318160ddd14610b8d57806323b872dd14610b455780632ab3e7ee14610b5c57806342842e0e14610b45578063557a2d2014610a2b5780636352211e146109fb57806370a08231146109875780638da5cb5b1461095e57806395d89b411461087b5780639c4ff9c7146107ee5780639eb1c1d6146102b3578063a22cb4651461022e578063b88d4fde146101db578063e985e9c5146101855763f2fde38b146100f057600080fd5b3461018057602036600319011261018057610109610f11565b600954906001600160a01b039061012333838516146111f1565b1690811561013b576001600160a01b03191617600955005b60405162461bcd60e51b815260206004820152601860248201527f4e6577206f776e65722063616e6e6f74206265207a65726f00000000000000006044820152606490fd5b600080fd5b346101805760403660031901126101805761019e610f11565b6101a6610f27565b9060018060a01b03809116600052600660205260406000209116600052602052602060ff604060002054166040519015158152f35b34610180576080366003190112610180576101f4610f11565b6101fc610f27565b906064359167ffffffffffffffff83116101805761022161022c933690600401610f72565b505060443591611046565b005b3461018057604036600319011261018057610247610f11565b6024358015158091036101805733600052600660205260406000209160018060a01b03169182600052602052604060002060ff1981541660ff83161790556040519081527f17307eab39ab6107e8899845ad3d59bd9653f200f220920489ca2b5937696c3160203392a3005b346101805760c0366003190112610180576102cc610f11565b60643567ffffffffffffffff8111610180576102ec903690600401610f72565b9160843567ffffffffffffffff81116101805761030d903690600401610f72565b60095491936001600160a01b039261032890841633146111f1565b828416156107a9576024351561076b57602435600052600860205260ff604060002054166107305760025494600019861461071a576001860160025585600052600360205260406000208486166001600160601b0360a01b825416179055838516600052600460205260406000209182549060018201821161071a576103e19360016103d293019055604051986103be8a610ded565b6024358a5260443560208b0152369161123d565b9260408801938452369161123d565b606086015260a43560808601524260a086015283600052600760205260406000209085518255602086015160018301555180519067ffffffffffffffff82116106345781906104336002850154610db3565b601f81116106c7575b50602090601f83116001146106555760009261064a575b50508160011b916000199060031b1c19161760028201555b606085015194855167ffffffffffffffff81116106345761048f6003840154610db3565b96601f88116105ed575b602097508790601f831160011461057a5791806005949260a09460009261056f575b50508160011b916000199060031b1c19161760038501555b608081015160048501550151910155602435600052600884526040600020600160ff19825416179055604051918382821660007fddf252ad1be2c89b69c2b068fc378daa952ba7f163c4a11628f55a4df523b3ef8180a416815260a4358382015242604082015260443590827fbadc2ee0e723f8ede275d7503e3b04036db20a397423e1b392488ebb76272351606060243593a4604051908152f35b015190508a806104bb565b9060038501600052886000209160005b601f19851681106105d65750926005949260019260a09583601f198116106105bd575b505050811b0160038501556104d3565b015160001960f88460031b161c191690558a80806105ad565b91928a60018192868501518155019401920161058a565b600384016000526020600020601f830160051c81016020841061062d575b601f8a0160051c82018110610621575050610499565b6000815560010161060b565b508061060b565b634e487b7160e01b600052604160045260246000fd5b015190508780610453565b9250600284016000526020600020906000935b601f19841685106106ac576001945083601f19811610610693575b505050811b01600282015561046b565b015160001960f88460031b161c19169055878080610683565b81810151835560209485019460019093019290910190610668565b909150600284016000526020600020601f840160051c810160208510610713575b90849392915b601f830160051c8201811061070457505061043c565b600081558594506001016106ee565b50806106e8565b634e487b7160e01b600052601160045260246000fd5b60405162461bcd60e51b8152602060048201526013602482015272141bdcdd08185b1c9958591e481b5a5b9d1959606a1b6044820152606490fd5b60405162461bcd60e51b8152602060048201526016602482015275506f73742069642063616e6e6f74206265207a65726f60501b6044820152606490fd5b60405162461bcd60e51b815260206004820152601860248201527f526563697069656e742063616e6e6f74206265207a65726f00000000000000006044820152606490fd5b346101805760203660031901126101805760043560005260076020526040600020805460018201549161082360028201610e2b565b61086c61083260038401610e2b565b61085e60056004860154950154936040519788978852602088015260c0604088015260c0870190610ed1565b908582036060870152610ed1565b91608084015260a08301520390f35b34610180576000366003190112610180576040516000600180549061089f82610db3565b8085529181811690811561093757506001146108de575b6108da846108c681860382610e09565b604051918291602083526020830190610ed1565b0390f35b600081815292507fb10e2d527612073b26eecdfd717e6a320cf44b4afac2b0732d9fcbe2b7fa0cf65b82841061091f5750505081016020016108c6826108b6565b80546020858701810191909152909301928101610907565b60ff191660208087019190915292151560051b850190920192506108c691508390506108b6565b34610180576000366003190112610180576009546040516001600160a01b039091168152602090f35b34610180576020366003190112610180576001600160a01b036109a8610f11565b1680156109c75760005260046020526020604060002054604051908152f35b60405162461bcd60e51b815260206004820152600c60248201526b5a65726f206164647265737360a01b6044820152606490fd5b34610180576020366003190112610180576020610a19600435610fe3565b6040516001600160a01b039091168152f35b346101805760208060031936011261018057600435600060a0604051610a5081610ded565b82815282858201526060604082015260608082015282608082015201528060005260038252610a8d60018060a01b03604060002054161515610fa0565b60005260078152604060002060405190610aa682610ded565b805482526001810154838301908152610b34610ac460028401610e2b565b60408501908152610b21610ada60038601610e2b565b916060870192835260056004870154966080890197885201549460a08801958652604051988998818a5251908901525160408801525160c0606088015260e0870190610ed1565b9051858203601f19016080870152610ed1565b915160a08401525160c08301520390f35b346101805761022c610b5636610f3d565b91611046565b34610180576020366003190112610180576004356000526008602052602060ff604060002054166040519015158152f35b3461018057600036600319011261018057600254600019810190811161071a57602090604051908152f35b3461018057604036600319011261018057610bd1610f11565b602435906001600160a01b0380610be784610fe3565b16908133148015610c46575b610bfc90611009565b8360005260056020526040600020921691826001600160601b0360a01b8254161790557f8c5be1e5ebec7d5bd14f71427d1e84f3dd0314c0f7b2291e5b200ac8c7c3b925600080a4005b50816000526006602052604060002033600052602052610bfc60ff604060002054169050610bf3565b34610180576020366003190112610180576020600435806000526003825260018060a01b0390610ca782604060002054161515610fa0565b6000526005825260406000205416604051908152f35b346101805760003660031901126101805760405160008054610cde81610db3565b808452906001908181169081156109375750600114610d07576108da846108c681860382610e09565b600080805292507f290decd9548b62a8d60345a988386fc84ba6bc95484008f6362f93160ef3e5635b828410610d485750505081016020016108c6826108b6565b80546020858701810191909152909301928101610d30565b34610180576020366003190112610180576004359063ffffffff60e01b8216809203610180576020916380ac58cd60e01b8114908115610da2575b5015158152f35b6301ffc9a760e01b14905083610d9b565b90600182811c92168015610de3575b6020831014610dcd57565b634e487b7160e01b600052602260045260246000fd5b91607f1691610dc2565b60c0810190811067ffffffffffffffff82111761063457604052565b90601f8019910116810190811067ffffffffffffffff82111761063457604052565b9060405191826000825492610e3f84610db3565b908184526001948581169081600014610eae5750600114610e6b575b5050610e6992500383610e09565b565b9093915060005260209081600020936000915b818310610e96575050610e6993508201013880610e5b565b85548884018501529485019487945091830191610e7e565b915050610e6994506020925060ff191682840152151560051b8201013880610e5b565b919082519283825260005b848110610efd575050826000602080949584010152601f8019910116010190565b602081830181015184830182015201610edc565b600435906001600160a01b038216820361018057565b602435906001600160a01b038216820361018057565b6060906003190112610180576001600160a01b0390600435828116810361018057916024359081168103610180579060443590565b9181601f840112156101805782359167ffffffffffffffff8311610180576020838186019501011161018057565b15610fa757565b60405162461bcd60e51b8152602060048201526014602482015273151bdad95b88191bd95cc81b9bdd08195e1a5cdd60621b6044820152606490fd5b6000908152600360205260409020546001600160a01b0316611006811515610fa0565b90565b1561101057565b60405162461bcd60e51b815260206004820152600e60248201526d139bdd08185d5d1a1bdc9a5e995960921b6044820152606490fd5b6001600160a01b03918216919082156111ac57818061106486610fe3565b1691169181830361117357813314908115611158575b508015611132575b61108c9150611009565b60008381526005602052604081206001600160601b0360a01b90818154169055828252600460205260408220805490600019820191821161111e57558382526004602052604082208054906001820180921161111e57558482526003602052604082208054909116841790557fddf252ad1be2c89b69c2b068fc378daa952ba7f163c4a11628f55a4df523b3ef9080a4565b634e487b7160e01b84526011600452602484fd5b50600052600660205260406000203360005260205261108c60ff60406000205416611082565b9050846000526005602052339060406000205416143861107a565b60405162461bcd60e51b8152602060048201526011602482015270233937b69034b9903737ba1037bbb732b960791b6044820152606490fd5b60405162461bcd60e51b815260206004820152601860248201527f5472616e7366657220746f207a65726f206164647265737300000000000000006044820152606490fd5b156111f857565b60405162461bcd60e51b815260206004820152601760248201527f43616c6c6572206973206e6f7420746865206f776e65720000000000000000006044820152606490fd5b92919267ffffffffffffffff82116106345760405191611267601f8201601f191660200184610e09565b82948184528183011161018057828160209384600096013701015256fea2646970667358221220ac09b178f3da8f063519693e1d5f88c43db1e2d94af2ecd0a2054c6f2a83164464736f6c63430008140033",
  "linkReferences": {},
  "deployedLinkReferences": {}
}