{
  "_format": "hh-sol-artifact-1",
  "contractName": "LocketSocial",
  "sourceName": "contracts/LocketSocial.sol",
  "abi": [
    {
      "anonymous": false,
      "inputs": [
        {
          "indexed": true,
          "internalType": "address",
          "name": "follower",
          "type": "address"
        },
        {
          "indexed": true,
          "internalType": "address",
          "name": "followed",
          "type": "address"
        }
      ],
      "name": "Followed",
      "type": "event"
    },
    {
      "anonymous": false,
      "inputs": [
        {
          "indexed": true,
          "internalType": "address",
          "name": "author",
          "type": "address"
        },
        {
          "indexed": false,
          "internalType": "string",
          "name": "cid",
          "type": "string"
        },
        {
          "indexed": false,
          "internalType": "uint256",
          "name": "timestamp",
          "type": "uint256"
        }
      ],
      "name": "PhotoPublished",
      "type": "event"
    },
    {
      "anonymous": false,
      "inputs": [
        {
          "indexed": true,
          "internalType": "address",
          "name": "wallet",
          "type": "address"
        },
        {
          "indexed": false,
          "internalType": "string",
          "name": "username",
          "type": "string"
        }
      ],
      "name": "ProfileRegistered",
      "type": "event"
    },
    {
      "inputs": [
        {
          "internalType": "address",
          "name": "target",
          "type": "address"
        }
      ],
      "name": "followUser",
      "outputs": [],
      "stateMutability": "nonpayable",
      "type": "function"
    },
    {
      "inputs": [
        {
          "internalType": "address",
          "name": "viewer",
          "type": "address"
        }
      ],
      "name": "getFeed",
      "outputs": [
        {
          "components": [
            {
              "internalType": "string",
              "name": "cid",
              "type": "string"
            },
            {
              "internalType": "string",
              "name": "caption",
              "type": "string"
            },
            {
              "internalType": "uint256",
              "name": "timestamp",
              "type": "uint256"
            },
            {
              "internalType": "address",
              "name": "author",
              "type": "address"
            }
          ],
          "internalType": "struct LocketSocial.Photo[]",
          "name": "feed",
          "type": "tuple[]"
        }
      ],
      "stateMutability": "view",
      "type": "function"
    },
    {
      "inputs": [
        {
          "internalType": "address",
          "name": "user",
          "type": "address"
        }
      ],
      "name": "getFollowing",
      "outputs": [
        {
          "internalType": "address[]",
          "name": "followedAccounts",
          "type": "address[]"
        }
      ],
      "stateMutability": "view",
      "type": "function"
    },
    {
      "inputs": [
        {
          "internalType": "address",
          "name": "user",
          "type": "address"
        }
      ],
      "name": "getProfile",
      "outputs": [
        {
          "components": [
            {
              "internalType": "address",
              "name": "wallet",
              "type": "address"
            },
            {
              "internalType": "string",
              "name": "username",
              "type": "string"
            },
            {
              "internalType": "string",
              "name": "avatarCID",
              "type": "string"
            },
            {
              "internalType": "bool",
              "name": "exists",
              "type": "bool"
            }
          ],
          "internalType": "struct LocketSocial.UserProfile",
          "name": "profile",
          "type": "tuple"
        }
      ],
      "stateMutability": "view",
      "type": "function"
    },
    {
      "inputs": [
        {
          "internalType": "address",
          "name": "user",
          "type": "address"
        }
      ],
      "name": "getUserPhotos",
      "outputs": [
        {
          "components": [
            {
              "internalType": "string",
              "name": "cid",
              "type": "string"
            },
            {
              "internalType": "string",
              "name": "caption",
              "type": "string"
            },
            {
              "internalType": "uint256",
              "name": "timestamp",
              "type": "uint256"
            },
            {
              "internalType": "address",
              "name": "author",
              "type": "address"
            }
          ],
          "internalType": "struct LocketSocial.Photo[]",
          "name": "photos",
          "type": "tuple[]"
        }
      ],
      "stateMutability": "view",
      "type": "function"
    },
    {
      "inputs": [
        {
          "internalType": "address",
          "name": "",
          "type": "address"
        }
      ],
      "name": "profiles",
      "outputs": [
        {
          "internalType": "address",
          "name": "wallet",
          "type": "address"
        },
        {
          "internalType": "string",
          "name": "username",
          "type": "string"
        },
        {
          "internalType": "string",
          "name": "avatarCID",
          "type": "string"
        },
        {
          "internalType": "bool",
          "name": "exists",
          "type": "bool"
        }
      ],
      "stateMutability": "view",
      "type": "function"
    },
    {
      "inputs": [
        {
          "internalType": "string",
          "name": "cid",
          "type": "string"
        },
        {
          "internalType": "string",
          "name": "caption",
          "type": "string"
        }
      ],
      "name": "publishPhoto",
      "outputs": [],
      "stateMutability": "nonpayable",
      "type": "function"
    },
    {
      "inputs": [
        {
          "internalType": "string",
          "name": "username",
          "type": "string"
        },
        {
          "internalType": "string",
          "name": "avatarCID",
          "type": "string"
        }
      ],
      "name": "registerProfile",
      "outputs": [],
      "stateMutability": "nonpayable",
      "type": "function"
    }
  ],
  "bytecode": "0x60808060405234610016576113a0908161001c8239f35b600080fdfe608080604052600436101561001357600080fd5b60003560e01c9081630f53a47014610f085750806316b8e73114610c065780631b4886a3146108295780637dede890146107975780637df3483f1461039d578063a70806f7146101c9578063bbe15627146101365763d8236dff1461007757600080fd5b3461013157602080600319360112610131576001600160a01b03600435818116908190036101315782906000526001808252604060002092604051808486549182815201908196600052856000209060005b81811061011c57505050816100df91038261119a565b6040519380850191818652518092526040850195926000905b8382106101055786880387f35b8451811688529682019693820193908501906100f8565b825486168452928701929186019186016100c9565b600080fd5b34610131576020366003190112610131576001600160a01b036004358181169081900361013157600052600060205260406000209081541661017a600183016111bc565b916101bd60ff600361018e600285016111bc565b93015416916101af6040519586958652608060208701526080860190610fee565b908482036040860152610fee565b90151560608301520390f35b3461013157602080600319360112610131576004356001600160a01b038116919082900361013157338214610360573360005260038152604060002082600052815260ff6040600020541661032857816000526000815260ff60036040600020015416156102ec5733600052600181526040600020805490600160401b8210156102d657600182018082558210156102c0576000528160002001826001600160601b0360a01b825416179055336000526003815260406000209082600052526040600020600160ff19825416179055337f6178e95c138f06036cdc07a49ed6a3d23008969fa143baeceb037ebae22e8d14600080a3005b634e487b7160e01b600052603260045260246000fd5b634e487b7160e01b600052604160045260246000fd5b6064906040519062461bcd60e51b82526004820152601560248201527454617267657420686173206e6f2070726f66696c6560581b6044820152fd5b6064906040519062461bcd60e51b825260048201526011602482015270416c726561647920666f6c6c6f77696e6760781b6044820152fd5b6064906040519062461bcd60e51b82526004820152601660248201527521b0b73737ba103337b63637bb903cb7bab939b2b63360511b6044820152fd5b34610131576103ab366110f9565b9092919233600052600060205260ff600360406000200154161561076157831561072657336000526002602052610402604060002091604051936103ee8561117e565b6103f9368888611262565b85523691611262565b60208301524260408301523360608301528054600160401b8110156102d657610430916001820181556112ca565b61071057815180519067ffffffffffffffff82116102d65781906104548454611144565b601f81116106c0575b50602090601f831160011461065457600092610649575b50508160011b916000199060031b1c19161781555b602082015180519067ffffffffffffffff82116102d6576104ad6001840154611144565b601f81116105fe575b50602090601f831160011461056657928261054c95936003937fee00476d9873f80e65259f52c839c112f2dba3e32ed0a5fd6a682ed9504aa695989660009261055b575b505060001982851b1c1916600191821b17908201555b604083015160028201550190606060018060a01b03910151166001600160601b0360a01b825416179055604051936040855260408501916112a9565b914260208201528033930390a2005b0151905089806104fa565b906001840160005260206000209160005b601f19851681106105e65750836003937fee00476d9873f80e65259f52c839c112f2dba3e32ed0a5fd6a682ed9504aa69598969360019361054c9997601f198116106105ce575b505050811b016001820155610510565b015160001983871b60f8161c191690558980806105be565b91926020600181928685015181550194019201610577565b600184016000526020600020601f840160051c8101916020851061063f575b601f0160051c01905b81811061063357506104b6565b60008155600101610626565b909150819061061d565b015190508680610474565b9250836000526020600020906000935b601f19841685106106a5576001945083601f1981161061068c575b505050811b018155610489565b015160001960f88460031b161c1916905586808061067f565b81810151835560209485019460019093019290910190610664565b909150836000526020600020601f840160051c810160208510610709575b90849392915b601f830160051c820181106106fa57505061045d565b600081558594506001016106e4565b50806106de565b634e487b7160e01b600052600060045260246000fd5b60405162461bcd60e51b81526020600482015260136024820152724349442063616e6e6f7420626520656d70747960681b6044820152606490fd5b60405162461bcd60e51b815260206004820152600e60248201526d139bdd081c9959da5cdd195c995960921b6044820152606490fd5b3461013157602080600319360112610131576004356001600160a01b038116908190036101315760005260028152604060002080546107d581611309565b916107e3604051938461119a565b8183526000908152838120938084015b83831061080c5760405180610808878261102e565b0390f35b60048260019261081b89611321565b8152019601920191946107f3565b3461013157610837366110f9565b92919233600052600060205260ff60036040600020015416610bc8578315610b8357610886604051926108698461117e565b338452610877368787611262565b92602085019384523691611262565b60408301526001606083015233600052600060205260406000209060018060a01b038351166001600160601b0360a01b83541617825551805167ffffffffffffffff918282116102d65781906108df6001860154611144565b601f8111610b30575b50602090601f8311600114610abe57600092610ab3575b50508160011b916000199060031b1c19161760018301555b604083015180519182116102d6576109326002840154611144565b601f8111610a68575b50602090601f83116001146109d0577fe16a05fc8f54df0cc4862ec9ed0851c325c6679d0b6fe97b6441d61231b5a49e9593836109c096946060946003946000926109c5575b50508160011b9160001990851b1c19161760028201555b01910151151560ff8019835416911617905560405191829160208352339560208401916112a9565b0390a2005b015190508a80610981565b90601f198316916002850160005260206000209260005b818110610a505750846060946003947fe16a05fc8f54df0cc4862ec9ed0851c325c6679d0b6fe97b6441d61231b5a49e9a98946109c09a9860019510610a38575b505050811b016002820155610998565b015160001983871b60f8161c191690558a8080610a28565b929360206001819287860151815501950193016109e7565b600284016000526020600020601f840160051c81019160208510610aa9575b601f0160051c01905b818110610a9d575061093b565b60008155600101610a90565b9091508190610a87565b0151905087806108ff565b9250600185016000526020600020906000935b601f1984168510610b15576001945083601f19811610610afc575b505050811b016001830155610917565b015160001960f88460031b161c19169055878080610aec565b81810151835560209485019460019093019290910190610ad1565b909150600185016000526020600020601f840160051c810160208510610b7c575b90849392915b601f830160051c82018110610b6d5750506108e8565b60008155859450600101610b57565b5080610b51565b60405162461bcd60e51b815260206004820152601860248201527f557365726e616d652063616e6e6f7420626520656d70747900000000000000006044820152606490fd5b60405162461bcd60e51b815260206004820152601660248201527550726f66696c6520616c72656164792065786973747360501b6044820152606490fd5b3461013157602080600319360112610131576004356001600160a01b03818116918290036101315781600052600191828452604060002090604051808387829554938481520190600052876000209260005b888a838310610ef15750505050610c719250038361119a565b60005260028085526040600020948554938493866000905b610eae575b50610c9886611309565b95610ca6604051978861119a565b808752610cb5601f1991611309565b018360005b828110610e7f575050506000946000905b808210610e485750508697506000975b610dbc575b5050505090918093505b818110610cff5760405180610808858261102e565b83610d0a82856112f5565b5182915b610d38575b81610d2d91610d26610d339594886112f5565b52856112f5565b506112e6565b610cea565b81151580610d95575b15610d90576000198201828111610d7a57610d738793610d6183896112f5565b51610d6c828a6112f5565b52876112f5565b5091610d0e565b634e487b7160e01b600052601160045260246000fd5b610d13565b506000198201828111610d7a57610dae604091876112f5565b510151604082015111610d41565b8051881015610e435781610dd089836112f5565b5116600052838352604060002080546000915b818310610e0457505050610dfb8798979596976112e6565b97969594610cdb565b909196610e36610e3c91610e21610e1b8b866112ca565b50611321565b610e2b828d6112f5565b52610d2d818c6112f5565b976112e6565b9190610de3565b610ce0565b9095610e73610e7991610e5e610e1b8a8e6112ca565b610e68828c6112f5565b52610d2d818b6112f5565b966112e6565b90610ccb565b604051610e8b8161117e565b60006060808352808584015281604084015282015282828b010152018490610cba565b958151871015610eeb5782610ec388846112f5565b51166000528484526040600020548101809111610d7a57610ee58891976112e6565b90610c89565b95610c8e565b86548a168552958101958895509093019201610c58565b3461013157602080600319360112610131576001600160a01b0391600435838116919082900361013157606081610f4060009361117e565b8281528185820152816040820152015260005260008152604060002090610fe160405192610f6d8461117e565b848154168452610fce610f82600183016111bc565b84860190815260ff6003610f98600286016111bc565b946040890195865201541694606087019515158652604051978897828952511690870152516080604087015260a0860190610fee565b9051848203601f19016060860152610fee565b9051151560808301520390f35b919082519283825260005b84811061101a575050826000602080949584010152601f8019910116010190565b602081830181015184830182015201610ff9565b602080820190808352835180925260409283810182858560051b8401019601946000925b858410611063575050505050505090565b909192939495968580600192603f198582030187528a51906110a061109083516080808552840190610fee565b8484015183820386850152610fee565b91878101518883015260609081878060a01b0391015116910152990194019401929594939190611052565b9181601f840112156101315782359167ffffffffffffffff8311610131576020838186019501011161013157565b60406003198201126101315767ffffffffffffffff916004358381116101315782611126916004016110cb565b9390939260243591821161013157611140916004016110cb565b9091565b90600182811c92168015611174575b602083101461115e57565b634e487b7160e01b600052602260045260246000fd5b91607f1691611153565b6080810190811067ffffffffffffffff8211176102d657604052565b90601f8019910116810190811067ffffffffffffffff8211176102d657604052565b90604051918260008254926111d084611144565b90818452600194858116908160001461123f57506001146111fc575b50506111fa9250038361119a565b565b9093915060005260209081600020936000915b8183106112275750506111fa935082010138806111ec565b8554888401850152948501948794509183019161120f565b9150506111fa94506020925060ff191682840152151560051b82010138806111ec565b92919267ffffffffffffffff82116102d6576040519161128c601f8201601f19166020018461119a565b829481845281830111610131578281602093846000960137010152565b908060209392818452848401376000828201840152601f01601f1916010190565b80548210156102c05760005260206000209060021b0190600090565b6000198114610d7a5760010190565b80518210156102c05760209160051b010190565b67ffffffffffffffff81116102d65760051b60200190565b9060405161132e8161117e565b6060819361133b816111bc565b8352611349600182016111bc565b602084015260028101546040840152600301546001600160a01b031691015256fea2646970667358221220f87f4084df5a9f0969b9a71168283dfbcb301cf3eb1e30d3273fa4eed653ec6464736f6c63430008140033",
  "linkReferences": {},
  "deployedLinkReferences": {}
}